:100000000C94F9090C9403790C9434790C94657967
:100010000C9496790C94C7790C94F8790C94297AFD
:100020000C945A7A0C94260A0C94260A0C94260AEC
:100030000C94260A0C94260A0C94260A0C94260A80
:100040000C94260A0C94260A0C94260A0C94260A70
:100050000C9474250C94260A0C94260A0C948B7A22
:100060000C94260A0C94AF7D0C94D77E0C94260A2F
:100070000C94260A0C94260A0C94260A0C94260A40
:100080000C94260A0C94260A0C94260A0C94260A30
:100090000C94E87D0C94247F0C94260A0C94260A78
:1000A0000C94260A0C94260A0C94260A0C94260A10
:1000B0000C94260A0C94260A0C94260A0C94260A00
:1000C0000C94260A0C94260A0C94260A0C94217E81
:1000D0000C94717F0C94260A0C945A7E0C94BE7F6B
:1000E0000C94260A084AD73B3BCE016E84BCBFFD68
:1000F000C12F3D6C74319ABD56833DDA3D00C77FF8
:1001000011BED9E4BB4C3E916BAAAABE0000008090
:100110003F05A84CCDB2D44EB93836A9020C50B91F
:10012000918688083CA6AAAA2ABE000000803F0744
:10013000634236B79BD8A71A39685618AEBAAB5582
:100140008C1D3CB7CC5763BD6DEDFD753EF6177247
:1001500031BF000000803F08000000BE9224491219
:100160003EABAAAA2ABECDCCCC4C3E00000080BE3D
:10017000ABAAAAAA3E00000000BF000000803F001A
:1001800000000000084178D3BB4387D1133D190E0E
:100190003CC3BD4282AD2B3E68EC8276BED98FE176
:1001A000A93E4C80EFFFBE01C4FF7F3F000000006E
:1001B000004F4E004F464600435700434357004F01
:1001C0006E004F666600004D6F766520547970654D
:1001D00000436F6E74696E756F757300532D4D2DEE
:1001E000530054696D656C61707365004379636C8D
:1001F000650052756E007E0053686F77005365741A
:1002000074696E67730047454E00434F4E004D546E
:10021000520043414D0064656700230053706565DB
:100220006400446972656374696F6E004D6F746F2A
:100230007220536C656570005265636F7264004391
:10024000616D20547970650046697265205465734C
:10025000742053686F7400416C6C00496E666F7255
:100260006D6174696F6E0044697374616E636500DB
:10027000667073005265632074696D6500506C612F
:1002800079422054696D6500506C61794220465076
:100290005300537461727420486F6D650045787027
:1002A0006F737572650073686F742023006E6F2022
:1002B0006C696D6974003A004272696768746E65B2
:1002C000737300622D6C6967687420746D004D6FE4
:1002D000746F722044656C61790043616D204465E0
:1002E0006C6179005363726C2052616D70004D6FC8
:1002F000746F72205479706500476F20486F6D6588
:100300000053657420486F6D650048445200427286
:1003100061636B65740042756C622052616D7000A0
:10032000466972737420457870004C61737420457F
:10033000787000566964656F005365747570002DA0
:100340002D2D2D2D0052616D700052657365742046
:1003500053657474696E6773005363726C205261E5
:100360006D70005363726C205370656564006D732B
:10037000004B65796672616D6573002500636D00E1
:10038000636D2F7300726576004D6F746F72006D30
:10039000696E0073002F00496E666F726D6174693B
:1003A0006F6E006D696E69456E67696E65004369C1
:1003B0006E654D6F636F00446576656C6F70657236
:1003C000732028696E00616C7068616265742E200C
:1003D0006F72646572293A004169726963204C65E5
:1003E0006E7A2C00416C7661726F63616C766F2C53
:1003F00000432E412E204368757263682C004572BD
:1004000069632050616B2C004A757374696E204AD1
:10041000656E73656E2C004B61726C204D63446F8A
:100420006E616C642C004D617263204C616E652EB0
:1004300000436865636B206F75740063696E657453
:100440006963732E636F6D206F72006169726963F7
:100450006C656E7A2E636F6D00555342204D6F644C
:1004600065005072657373205B53454C4543545D82
:1004700020746F00726573746172742074686520F3
:1004800043696E654D6F636F00616E6420676574CC
:10049000206261636B20746F2074686500757375EA
:1004A000616C2043696E654D6F636F206D6F64658D
:1004B0002E00004D6F746F7220686F6D6500706F55
:1004C000736974696F6E206973206E6F772073652E
:1004D000742E00506C6561736520776169742077B4
:1004E00068696C65006D6F746F72206973206D6F41
:1004F00076656420746F00686F6D6520706F736936
:1005000074696F6E2E2E2E004D6F746F7220686F9F
:100510006D6520706F736974696F6E0072656163D9
:100520006865642E00526573657420736574746920
:100530006E677300416C6C20637573746F6D20730C
:10054000657474696E67730064656C657465642EA8
:100550002053797374656D2077696C6C00726562E5
:100560006F6F74206E6F772E2E2E00436861696E58
:10057000204944004D617374657200446576696377
:1005800065200044616973792D636861696E696EE5
:10059000670055706461746520436861696E007E10
:1005A00020757064617465210023204F66205368B4
:1005B0006F7473002B2F2D200043616E6F6E004E01
:1005C000696B6F6E0053797374656D000053686FCB
:1005D0007720737570706C79003C3D20312F313578
:1005E0007300312F31337300312F31307300312FCD
:1005F000387300312F367300312F357300312F34AB
:100600007300007368772065787470777200537098
:100610006565640052616D7020496E0052616D70B5
:10062000204F75740044697374616E6365005649A8
:1006300044454F004D6F76650082820081810053F2
:10064000657420537461727420506F696E74005326
:10065000657420456E6420506F696E7400476F208A
:10066000746F205374617274004B65796672616DAA
:10067000657300506F736974696F6E206973206EC3
:100680006F77207365742E00506C656173652077F9
:10069000616974207768696C65006D6F746F722092
:1006A0006973206D6F76656420746F006B657920C7
:1006B000706F736974696F6E2E2E2E004B657920F2
:1006C000706F736974696F6E0072656163686564E9
:1006D0002E000080207E0054686973206B657920AD
:1006E000776173206E6F740073657420796574216F
:1006F000004E6F7420616C6C206B65796672616D61
:100700006573007765726520736574210053797392
:100710007420536C656570004B65657020506F7771
:100720006572656400476F20746F20456E640055E4
:1007300070646174696E6720636861696E696E6771
:1007400000646174612E2054686973206D69676864
:10075000740074616B6520736F6D65207365636FE2
:100760006E64732E2E2E00446576002D2D004C6F86
:100770006F7000416C6C00526567697374657265D7
:100780006420696E0074686520636861696E2E2E4E
:100790002E00456E67696E652070726570617269C2
:1007A0006E672E2E2E005768696C6520776169741C
:1007B000696E6720666F72007468652063656E7489
:1007C00072616C2073796E63007369676E616C2C63
:1007D00020707265737320506C617900746F2073A0
:1007E00074617274206D616E75616C6C792E00534A
:1007F000746F702D6D6F74696F6E00506C656173EE
:100800006520505245535320504C415900746F207D
:10081000636F6E74696E75652077697468007468BB
:1008200065206E6578742073686F742E00446F7550
:1008300062626C652D707265737320746F007374DF
:100840006F70207265636F7264696E672E005374F7
:1008500061727420555342204D6F646500000000A2
:10086000B101B401B801BB01BF01C201C601C7019A
:10087000D101DC01E201EC01F201F601F801FD0118
:1008800006020A020E02120216021A021C022202BA
:100890002C0238023F02480257025B0267027002D4
:1008A00074027D02880292029D02A602AD02B60287
:1008B000B802C302CE02DA02E402EE02F902010338
:1008C0000A030E03160320032A03330339033F03ED
:1008D00045034A03590363036E0371037B037D03DE
:1008E0008003850389038F03930395039703A30371
:1008F000AE03B703C603D803E403F103FE03080401
:100900001704260431043B044B04590462047404A4
:1009100089049D04B204B304BE04D304E504F704BF
:1009200008051C052505340548055D056B0574059E
:100930007B05830592059F05A905B405B905BF058B
:10094000C505CC05CD05D905E205E805EE05F3059D
:10095000F805FD05020603060E0614061C0625060C
:100960002E06340639063C063F064F065D0669062C
:10097000730688069A06AC06BC06C906D206D306DC
:10098000D706E806F10603070D07180725072F0706
:100990004107520767076B076E07730777078507DD
:1009A0009207A607B807C907DC07EF07FB070D0882
:1009B0001E082D083E084E085D085E085F080C08FA
:1009C0007F5555555555D5D555557F0005081C3FC4
:1009D000FC3F1C0508FE030103FE5D002F002F20D5
:1009E000002F2020005B005B20005B2020005B00CC
:1009F0005B20005B2020005B202020002020204383
:100A00004F4D504C455445202020005052455353E3
:100A100020504C415920544F20454E4400426174AF
:100A20007465727900426174746572790053686FFD
:100A30006F7400494E2050524F47524553532E2E4B
:100A40002E008030000000000000000000000000C8
:100A5000000000C0E0E0F07070F0E0E0C00000EEE8
:100A6000EEEE00E0E0E0F0F07070F0E0E0C00000DA
:100A700080C0E0E0707070E0E0C0800000FFFFFF29
:100A8000FFFEF080000080F0FEFFFFFFFF0000C0CF
:100A9000E0E0E07070E0E0E0C080000080C0E0E0F6
:100AA000F07070E0E0C080000080C0E0E070707026
:100AB000E0E0C08000000000000000000000000036
:100AC0000000000000000000000000000000000026
:100AD00000003FFFFFE3C08080C0E1E1E12100FFB3
:100AE000FFFF00FFFFFFFF00000000FFFFFF003ED1
:100AF000FFFFFFCE8E8E8E8ECFCFCF0E00FFFFFF7B
:100B000000073FFFFCFCFF3F0700FFFFFF003FFF28
:100B1000FFE380808080C1FFFF7F000C7FFFFFC16B
:100B2000808080C0E1E161001EFFFFFFC080808007
:100B3000C0FFFFFF1E0000000000000000000000DA
:100B400000000000000000000000000000000000A5
:100B50000000C0C0C1C3C3C3C3C3C3C1C0C0C0C3FE
:100B6000C3C3C0C3C3C3C3C0C0C0C0C3C3C3C0C06A
:100B7000C0C1C1C3C3C3C3C3C3C1C0C0C0C3C3C357
:100B8000C0C0C0C1C3C3C1C0C0C0C3030300000014
:100B9000010303030303030100000000000101033C
:100BA0000303030301010000000001010303030329
:100BB0000301010000000000000000000000000030
:100BC0000000000000000000000000000000000025
:100BD0000000C7C7C7C7C7C7C7C7C7C7C7C7C7C733
:100BE000C7C7C7C7C7C7C7C7C7C7C7C7C7C7C7C795
:100BF000C7C7C7C7C7C7C7C7C7C7C7C7C7C7C7C785
:100C0000C7C7C7C7C7C7C7C7C7C7C7000000000057
:100C1000061EFEF08080F0FE1E06000000000000B0
:100C200000000000000000000000000000000000C4
:100C300000000000000000000000000000000000B4
:100C400000000000000000000000000000000000A4
:100C50000000070707070707070707070707070732
:100C60000707070707070707070707070707070714
:100C70000707070707070707070707070707070704
:100C80000707070707070707070707000000000017
:100C90000000000307070300000000000000000040
:100CA0000000000000000000000000000000000044
:100CB0000000000000000000000000000000000034
:100CC0000000000000000000000000000000000024
:100CD00000000070888890FE0000F81008081000DE
:100CE0000088FA8000003840804038000070A8A8D2
:100CF000A8300000F8100808F00000000000000014
:100D0000FE90888870000018A0A0A0780000000065
:100D1000000000F8083008F000000088FA800000A9
:100D200000F8100808F000000088FA80000000FEBB
:100D3000929292820000000000000000000000007B
:100D40000000000010880A14201A000A0A0A0A0A81
:100D50000A0A0A0A0A0A02050207090508080A0817
:100D6000090909090000000000000000000000005F
:100D70000000000000000000000000000000000073
:100D80000000000000000000000000000000000063
:100D90000000000000000000000000000000000053
:100DA0000000000000000000000000000000000043
:100DB0000000000000000000000000000000000033
:100DC0000000000000000000000000000000000023
:100DD0000000000000000000000000000000000013
:100DE0000000000000000000000000000000000003
:100DF00000000000000000000000000000000000F3
:100E000000000000000000000000000000000000E2
:100E100000000000000000000000000000000000D2
:100E200000000000000000000000000000000000C2
:100E300000000000000000000000000000000000B2
:100E400000000000000000000000000000000000A2
:100E50000000000000000000000000000000000092
:100E60000000000000000000000000000000000082
:100E70000000000000000000000000000000000072
:100E80000000000000000000000000000000000062
:100E90000000000000000000000000000000000052
:100EA0000000000000000000000000000000000042
:100EB000E0601000000000000002020202020000D8
:100EC00000000000006060000000000080F01C06D0
:100ED00080701E0300000000000000000000E0F829
:100EE0001C0C0C0C1CF8E00F3F70606060703F0F32
:100EF000000000000000000000203018FCFC000092
:100F0000007F7F000000000030381C0C0C0CFCF847
:100F10006070787C6E676360000000000000000075
:100F2000181C8C8C8CCC78303070616161733E1CE5
:100F30000000000000000000000080C0603018FCCD
:100F4000FC000E0F0D0C0C0C0C7F7F0C0000000041
:100F500000000000000000FCFC8C8C8C0C0C30713C
:100F6000616161733F1E0000000000000000C0F0DE
:100F700038988C8C8C0C001F3F73616161733F1E2D
:100F80000000000000000000000C0C0C0C0CCCFC5D
:100F90003C0C0040703C0F0300000000000000000B
:100FA0000000000030F8CC8C8C8CCCF8301C3E63F8
:100FB000616161633E1C000000000000000000F061
:100FC000F89C0C0C0C1CF8E000416363333B1F0FD2
:100FD000030000000000000000000000050720637F
:100FE000000000000000005F000000070007001480
:100FF0007F147F14242A7F2A12231308646236493F
:101000005522500005030000001C2241000041222F
:101010001C00082A1C2A0808083E08080050300056
:10102000000808080808006060000020100804029A
:101030003E5149453E00427F4000426151494621B0
:1010400041454B311814127F1027454545393C4A1C
:10105000494930017109050336494949360649496C
:10106000291E003636000000563600000008142203
:1010700041141414141441221408000201510906E9
:10108000324979413E7E1111117E7F494949363EF0
:10109000414141227F4141221C7F494949417F0909
:1010A0000901013E414151327F0808087F00417F1C
:1010B00041002040413F017F081422417F404040D1
:1010C000407F0204027F7F0408107F3E4141413E81
:1010D0007F090909063E4151215E7F0919294646CB
:1010E0004949493101017F01013F4040403F1F20F4
:1010F00040201F7F2018207F6314081463030478A6
:101100000403615149454300007F41410204081036
:101110002041417F00000402010204404040404061
:10112000000102040020545454787F484444383865
:1011300044444420384444487F3854545418087E6A
:10114000090102081454543C7F0804047800447DCB
:1011500040002040443D00007F10284400417F4073
:10116000007C041804787C0804047838444444382B
:101170007C14141408081414187C7C08040408480F
:1011800054545420043F4440203C4040207C1C20C8
:1011900040201C3C4030403C44281028440C505017
:1011A000503C4464544C44000836410000007F0029
:1011B00000004136080008083E1C08081C3E0808CC
:1011C0001020403806007F3E1C08081C3E7F002E81
:1011D0000000002100240027002A002D00300033E9
:1011E0000001010000040107010A0100002200259E
:1011F0000028002B002E0031003400020100000501
:101200000108010B01000020002300260029002C0A
:10121000002F003200000100000301060109010552
:10122000050505070508080808020202020A0A085F
:101230000804040404010101010101010103030385
:101240000303030303040707070C0C0C0C0C0C0C22
:101250000C0202020206060606060606060B0B0B29
:101260000B0B0B0B0B010210202008081020401064
:10127000204080020102010804020101020408105A
:101280002040808040201008040201800402018078
:1012900040201008040201080402010102040810A1
:1012A00020408001020408102040800000090A024A
:1012B000080B0C0D070603040100000000000000ED
:1012C000000000000000000000000000000000001E
:1012D0000000000000000011100F000000000000DE
:1012E00000000000000000000000000000000000FE
:1012F0000000407A10F35A00A0724E18090010A5A1
:10130000D4E80000E87648170000E40B540200001F
:10131000CA9A3B000000E1F50500008096980000A5
:101320000040420F000000A08601000000102700CE
:10133000000000E803000000006400000000000A54
:1013400000000000000100000000002C76D888DCBE
:10135000674F0823DFC1DFAE59E1B1B796E5E3E49B
:1013600053C63AE651997696E8E6C28426EB898C14
:101370009B62ED407C6FFCEFBC9C9F40F2BAA56F76
:10138000A5F490055A2AF75C936B6CF9676DC11B45
:10139000FCE0E40D47FEF520E6B500D0ED902E030D
:1013A00000943577050080841E080000204E0A0056
:1013B0000000C80C333333330F986E12831141EFA2
:1013C0008D2114893BE65516CFFEE6DB18D1844B00
:1013D000381BF77C1D901DA4BBE424203284725E70
:1013E000228100C9F124ECA1E53D27000120B16E66
:1013F000388111241FBECFEFD1E2DEBFCDBF00E0A8
:101400000CBF14E0A0E0B2E0E4E2F2E101E00BBFC7
:1014100002C007900D92A434B107D9F71BBE1DE09E
:10142000A4E4B4E001C01D92AA31B107E1F713E1D1
:10143000C2EFD3E104C02297FE010E94D588CC3EC2
:10144000D107C9F70E9456820C9410890C940000B1
:10145000EF92FF920F931F93F22FF02E47FD02C0E1
:10146000E4E001C0E4E1242F332727FD309537FF66
:1014700003C0309521953F4F4F2D512F0F2FEE2E4A
:1014800092D38F2D912F1F910F91FF90EF90089580
:10149000CF93DF93BC018230910510F462E070E0DD
:1014A000A091180DB091190DED01E0E0F0E040E0E1
:1014B00050E021C0888199818617970769F48A8155
:1014C0009B81309719F09383828304C09093190D08
:1014D0008093180DFE0134C06817790738F4411560
:1014E000510519F08417950708F4AC01FE018A81B3
:1014F0009B819C01E9012097E9F641155105A9F16D
:10150000CA01861B970B049708F4BA01E0E0F0E0EB
:101510002AC08D919C91119784179507F9F464174F
:10152000750781F412968D919C911397309719F05D
:101530009383828304C09093190D8093180DFD014D
:1015400032964CC0CA01861B970BFD01E80FF91FAC
:101550006193719302978D939C9340C0FD018281AA
:1015600093819C01D9011097A1F68091160D90915D
:10157000170D892B41F48091D5029091D60290935A
:10158000170D8093160D4091D7025091D802411546
:10159000510541F44DB75EB78091D3029091D402CA
:1015A000481B590B2091160D3091170DCA01821B53
:1015B000930B8617970780F0AB014E5F5F4F841740
:1015C000950750F0420F531F5093170D4093160D7F
:1015D000F9016193719302C0E0E0F0E0CF01DF9187
:1015E000CF910895CF93DF93009709F450C0EC0199
:1015F00022971B821A82A091180DB091190D109795
:1016000009F140E050E0AC17BD0708F1BB83AA83A5
:10161000FE0121913191E20FF31FAE17BF0779F45C
:101620008D919C911197280F391F2E5F3F4F398361
:10163000288312968D919C9113979B838A834115E1
:10164000510571F4D093190DC093180D20C0129656
:101650008D919C911397AD01009711F0DC01D3CFD0
:10166000FA01D383C28321913191E20FF31FCE1788
:10167000DF0769F488819981280F391F2E5F3F4F5A
:10168000FA01318320838A819B8193838283DF9156
:10169000CF910895A0E0B0E0E0E5FBE00C94E18894
:1016A000EC01A880B980CA80DB80A114B104C10418
:1016B000D10441F484E2A82E89EDB82E8BE5C82E22
:1016C00087E0D82EC601B5012DE133EF41E050E0AF
:1016D0000E94B88827EA31E440E050E00E94448844
:1016E0007B018C01C601B5012DE133EF41E050E0F3
:1016F0000E94B888CA01B9012CEE34EF4FEF5FEFBA
:101700000E9444886E0D7F1D801F911F97FF04C0AB
:101710006150704080409048688379838A839B83BE
:101720009B01AC015F77B901CA01CDB7DEB7EAE032
:101730000C94FD88AFCF89ED92E0ACCF6093D902D5
:101740007093DA028093DB029093DC020895FB0130
:10175000DC0105900D920020E1F70895FB01DC010A
:101760000D900020E9F7119701900D920020E1F70C
:101770000895FB01DC0101900D920020E1F708952E
:10178000FB019F01E8944230C4F04532B4F44A3082
:1017900029F497FB1EF4909581959F4F642F77272E
:1017A0000E946F88805D8A330CF0895D8193CB0144
:1017B0000097A1F716F45DE251931082C90142C46B
:1017C000AEE0B0E0E6EEFBE00C94E7880E891F89FE
:1017D00086E08C831A8309838FEF9FE79E838D8336
:1017E0009E01265E3F4FCE010196688D798DA9013D
:1017F0000AD02F813885020F131FF80110822E9610
:10180000E4E00C940389ABE0B0E0E9E0FCE00C9488
:10181000D9883C012B015A01FC0117821682838171
:1018200081FD03C06FEF7FEFB9C19AE0892E1E01E1
:101830000894211C311CF3012381F20123FD8591C1
:1018400023FF81912F01882309F4A5C1853239F442
:1018500023FD859123FF81912F01853221F490E0B2
:10186000B30100D4E8CF982FFF24EE249924FFE1A0
:10187000FF15D0F09B3269F09C3228F4903259F079
:10188000933291F40EC09D3249F0903369F441E0F7
:1018900024C052E0F52A84E0F82A28C098E0F92A0A
:1018A00025C0E0E1FE2A22C0F7FC29C0892F805321
:1018B0008A3070F4F6FE05C0989C902C1124980E86
:1018C00015C0E89CE02C1124E80EF0E2FF2A0EC0BF
:1018D0009E3229F4F6FC5FC140E4F42A07C09C362E
:1018E00019F450E8F52A02C0983649F4F20123FDB4
:1018F000959123FF91912F01992309F0B8CF892F5A
:101900008554833018F08052833038F444E050E03E
:10191000A40EB51E5FE359830FC0933631F09337A1
:1019200079F0933509F052C01FC0F5018081898399
:1019300042E050E0A40EB51E610101E010E011C0CC
:10194000F501C080D180F6FC03C06FEF7FEF02C0CD
:10195000692D70E042E050E0A40EB51EC60167D3C9
:101960008C015FE7F52213C0F501C080D180F6FC41
:1019700003C06FEF7FEF02C0692D70E042E050E0DE
:10198000A40EB51EC60148D38C0150E8F52AF3FE1B
:1019900006C018C080E290E0B30164D3EA948E2DB3
:1019A00090E008171907B0F30DC0F601F7FC859118
:1019B000F7FE81916F0190E0B30154D3E110EA94F6
:1019C000015010400115110581F7E2C0943611F065
:1019D000993661F5F7FE08C0F50120813181428119
:1019E000538184E090E00AC0F501808191819C01DF
:1019F000442737FD4095542F82E090E0A80EB91E91
:101A00009FE6F92257FF09C05095409530952195E2
:101A10003F4F4F4F5F4FE0E8FE2ACA01B901A101D5
:101A20002AE030E04BD3D82ED2183FC0953729F4A6
:101A30001F2D1F7E2AE030E01DC01F2D197F9F360D
:101A400061F0903720F4983509F0A5C00FC09037A9
:101A500039F0983709F09FC004C028E030E00AC090
:101A6000106114FD146020E130E004C014FD166024
:101A700020E132E017FF08C0F501608171818281A9
:101A8000938144E050E008C0F50180819181BC0160
:101A900080E090E042E050E0A40EB51EA1010ED31C
:101AA000D82ED2188FE7F82EF122F6FE0BC05EEF8B
:101AB000F522D91438F4F4FE07C0F2FC05C08FEE0D
:101AC000F82202C01D2D01C0192DF4FE0DC0FE012B
:101AD000ED0DF11D8081803319F499EEF92208C0D3
:101AE0001F5FF2FE05C003C08F2D867809F01F5FCF
:101AF0000F2DF3FC13C0F0FE0EC01E1510F09D2C30
:101B00000AC09D2C9E0C911A1E2D05C080E290E00B
:101B1000B301A8D21F5F1E15C8F304C01E1510F430
:101B2000E11A01C0EE2404FF0EC080E390E0B3018F
:101B300099D202FF1BC001FD03C088E790E00EC0F0
:101B400088E590E00BC0802F867881F001FF02C00D
:101B50008BE201C080E2F7FC8DE290E0B30182D21B
:101B600005C080E390E0B3017DD29A94D914C8F304
:101B7000DA94F101ED0DF11D808190E0B30172D294
:101B8000DD20B1F705C080E290E0B3016BD2EA94AA
:101B9000EE20C9F750CEF30166817781CB012B96F9
:101BA000E2E10C94F588A9E0B0E0E9EDFDE00C94E9
:101BB000DD886A01122FA02EBE2C2BE3201718F40B
:101BC0002CE3922E02C0902E9394AE014F5F5F4F94
:101BD00027E0092D49D1BC018981E82EFF24C701E6
:101BE00089709070019711F4ADE209C0B1FE02C096
:101BF000ABE205C0B0FC02C0A0E001C0A0E2E3FE81
:101C00003BC0AA2311F423E001C024E0211710F007
:101C100020E002C0121B212FEB2CB4FE02C0322F99
:101C20000AC0F601322F80E202C081933150332383
:101C3000E1F7C20ED11CAA2319F0F601A1936F019E
:101C4000F6013196E2FE05C09EE4D6019C9381E444
:101C500004C09EE6D6019C9381E611968C939183F5
:101C60003296DF01832F90E202C09D93815088233A
:101C7000E1F7E30FF11D40C0E2FE42C0AA2311F4D8
:101C800023E001C024E0211710F020E002C0121B65
:101C9000212FEB2CB4FE02C0922F0AC0F601922F26
:101CA00080E202C0819391509923E1F7C20ED11CCA
:101CB000AA2319F0F601A1936F01F6013196E2FE15
:101CC00008C089E4D6018C938EE411968C9386E447
:101CD00007C089E6D6018C938EE611968C9386E632
:101CE00081833296DF01892F20E202C02D9381503B
:101CF0008823E1F7E90FF11D10822EEF3FEFAFC00F
:101D0000161617061CF041E050E003C0AB014F5F10
:101D10005F4FAA2019F480E090E003C08A2D90E084
:101D2000019620E030E0AA2311F021E030E0240FFA
:101D3000351F280F391F812F90E02817390714F01D
:101D400020E002C0121B212F4B2D50E0CA018071F0
:101D50009070B4FC0DC0B3FC0BC0F601322F40E212
:101D600002C0419331503323E1F7C20ED11C01C0B0
:101D7000322FAA2319F0F601A1936F01892B11F0DC
:101D8000132F0AC0F601132F80E302C08193115074
:101D90001123E1F7C30ED11C092D060FBA8090E183
:101DA000892E912C8E209F20E4FE04C0F1E3BF1603
:101DB00009F40150101614F001E003C0093008F0D6
:101DC00008E09B0177FF02C020E030E0CB010196E4
:101DD000821B930BFE013196E80FF91F8EE2F82E5D
:101DE0003B01601A71088A2D90E044275527481B53
:101DF000590B8FEF2F3F380719F4D601FD926D0173
:101E0000621773072CF06216730614F4808101C008
:101E100080E32150304031962417350724F0D60155
:101E20008D936D01E6CF2617370749F4B5E3BB154F
:101E300028F0BB1621F48114910409F481E3F60122
:101E40008193D601812F90E202C09C93815011961C
:101E50008823D9F7E10FF11D108220E030E0C9019D
:101E60002996EEE00C94F988283008F027E0332713
:101E7000DA01990F311D87FD9160009661057105AA
:101E800039F432602E5F3D9330E32A95E1F70895EF
:101E90009F3F30F080387105610509F03C5F3C5F81
:101EA0003D93913008F08068911DDF93CF931F938D
:101EB0000F93FF92EF92192F987F9695E92F9695A1
:101EC0009695E90FFF27E55BFC4E99273327EE2413
:101ED000FF24A701E70105900894079428F4360F22
:101EE000E71EF81E491F511D660F771F881F991F97
:101EF0000694A1F70590079428F4E70EF81E491FF1
:101F0000561FC11D770F881F991F661F0694A1F7E2
:101F10000590079428F4F80E491F561FC71FD11DBE
:101F2000880F991F661F771F0694A1F705900794E5
:101F300020F4490F561FC71FD81F990F661F771F20
:101F4000881F0694A9F784911095177041F0D695D3
:101F5000C79557954795F794E7941A95C1F7E1EF20
:101F6000F2E16894159015913591659195910590E0
:101F70007FE27395E118F10A430B560BC90BD009A8
:101F8000C0F7E10CF11E431F561FC91FD01D7EF480
:101F9000703311F48A95E6CFE894015030F0080FC1
:101FA0000AF40027021708F4202F2395022F7A3312
:101FB00028F079E37D932A95E9F710C07D932A955F
:101FC00089F6069497956795379517951794E118B4
:101FD000F10A430B560BC90BD00998F023957E915B
:101FE00073957A3308F070E37C932013B8F77E91F1
:101FF00070617D9330F0839571E37D9370E32A9552
:10200000E1F71124EF90FF900F911F91CF91DF9195
:10201000992787FD90950895FC01059061507040C7
:102020000110D8F7809590958E0F9F1F0895FC01A1
:102030006150704001900110D8F7809590958E0FF7
:102040009F1F0895DC01FC01672F71917723E1F751
:10205000329704C07C916D9370836291AE17BF0775
:10206000C8F308950F931F93CF93DF938C01EB0177
:102070008B8181FF1BC082FF0DC02E813F818C812F
:102080009D812817390764F4E881F9810193F98368
:10209000E88306C0E885F985802F1995892B31F4EE
:1020A0008E819F8101969F838E8302C00FEF1FEF69
:1020B000C801DF91CF911F910F910895FA01AA27CE
:1020C000283051F1203181F1E8946F936E7F6E5F7B
:1020D0007F4F8F4F9F4FAF4FB1E03ED0B4E03CD029
:1020E000670F781F891F9A1FA11D680F791F8A1F0C
:1020F000911DA11D6A0F711D811D911DA11D20D073
:1021000009F468943F912AE0269F11243019305D2C
:102110003193DEF6CF010895462F4770405D41931D
:10212000B3E00FD0C9F7F6CF462F4F70405D4A336A
:1021300018F0495D31FD4052419302D0A9F7EACF32
:10214000B4E0A6959795879577956795BA95C9F761
:1021500000976105710508959B01AC010A2E069454
:102160005795479537952795BA95C9F7620F731F0D
:10217000841F951FA01D08958091EE029091EF029B
:10218000A091F002B091F1028093060890930708A5
:10219000A0930808B09309086091EA027091EB02DD
:1021A0008091EC029091ED020E94ED846093100802
:1021B0008091760480930F088091460390914703A5
:1021C000A0914803B09149038093020890930308BB
:1021D000A0930408B09305088091450380930A08F2
:1021E00080914A0380930B0880914B0380930C08E5
:1021F0008091780490E09695879596958795817063
:1022000080930D08809127038093120880917904B0
:1022100090E053E0969587955A95E1F78170809309
:1022200011080895EF92FF920F931F936091E202BD
:102230007091E3028091E4029091E5020E94198579
:102240007B018C0160915B0470915C0480915D0462
:1022500090915E040E9419859B01AC01C801B701F1
:102260000E94808420E030E04AE754E40E943D86EA
:102270000E94ED849B01AC0160934F047093500465
:1022800080935104909352048091EE029091EF025A
:10229000A091F002B091F102281739074A075B07B5
:1022A00040F42093EE023093EF024093F0025093FB
:1022B000F1021F910F91FF90EF9008952F923F929E
:1022C0004F925F926F927F928F929F92AF92BF9246
:1022D000CF92DF92EF92FF920F931F93DF93CF93F2
:1022E00000D00F92CDB7DEB73C018FEF90E0689E33
:1022F000B001699E700D789E700D1124FB01EE5E99
:10230000F64FDF01A751BF4FE351FF4F20813181CD
:10231000428153818D919D910D90BC91A02D2817E4
:1023200039074A075B0709F43FC1FB01EC5EF64F32
:1023300080E090E020E030E040E050E02083318316
:102340004283538320AF31AF42AF53AF148E158E0B
:10235000168E178E019634968730910579F78FEF98
:1023600090E0689E8001699E100D789E100D1124EA
:102370000E5E164F05501F4FD8016D917D918D91C6
:102380009C9120E030E040EA51E40E943D862FE637
:1023900032E143E852E40E9480846B017C010650E4
:1023A0001040D8018D919D910D90BC91A02D8983F5
:1023B0009A83AB83BC83F801B290A29092908290F2
:1023C000C701B601A50194010E943286181614F4C3
:1023D000750164018FEF90E0689EF001699EF00D39
:1023E000789EF00D1124E650F64F8081882321F469
:1023F000F7FAF094F7F8F094C701B60129813A8111
:102400004B815C810E9480841B012C01E89457F869
:102410008FEF90E0689EF001699EF00D789EF00DC0
:102420001124EE5EF64F2282338244825582E751B8
:10243000FF4F80819181A281B381E95EF040868F58
:10244000978FA0A3B1A3C2AED3AEE4AEF5AEC701E1
:10245000B60120E030E040E050E00E9432861816DD
:102460004CF489819A81AB81BC81B05889839A836D
:10247000AB83BC838FEF90E0689E8001699E100D56
:10248000789E100D11240E5E164FF6E56F2E712CFE
:10249000600E711E89819A81AB81BC81F3018083BA
:1024A0009183A283B3830F2EF0E08F2EF0E09F2E56
:1024B000F0E0AF2EF0E0BF2EF02DD80116968D92F1
:1024C0009D92AD92BC9219975E966D917D918D9182
:1024D0009C9191970E941B856B017C01C201B10107
:1024E000F80122AD33AD44AD55AD0E943D869B0150
:1024F000AC01C701B6010E94ED836B017C016981CB
:102500007A818B819C8120E030E040E05FE30E9493
:102510003D86A20191010E943D86A20191010E9487
:102520003D869B01AC01C701B6010E94ED830E946C
:10253000E8846B017C01D80192966D937D938D9315
:102540009C939597025C1F4FF80180829182A28232
:10255000B382045E1F4FD8018D929D92AD92BC92C2
:102560001397F301608171818281938120E030E0D3
:1025700040E05FE30E943D86D3016D937D938D9390
:102580009C9313970D561F4FF801C082D182E282AF
:10259000F38209501040D8018D929D92AD92BC9269
:1025A0001397F801129212920F900F900F900F90C4
:1025B000CF91DF911F910F91FF90EF90DF90CF901F
:1025C000BF90AF909F908F907F906F905F904F9053
:1025D0003F902F90089580E090E070CE6F927F92B0
:1025E0008F929F92AF92BF92CF92DF92EF92FF9223
:1025F0000F931F93CF93DF9380910B09882319F0DA
:1026000010920B09E8DF10920C0A10920B0A0F2EA1
:10261000F0E0CF2EF0E0DF2EF0E0EF2EF0E0FF2E26
:10262000F02DC0920D0AD0920E0AE0920F0AF0929D
:10263000100A10910D0910FF0AC18090F4099090C2
:10264000F509E401CC0FDD1FCC0FDD1FCC5ED64FAA
:10265000688179818A819B81A70196010E94798492
:10266000882361F4C0920D0AD0920E0AE0920F0AFC
:10267000F092100A1E7F10930D09E9C06091F609CF
:102680007091F7098091F8099091F9092DEC3CECD3
:102690004CE45DE30E94ED837B018C016093F609BD
:1026A0007093F7098093F8099093F909A880B9808D
:1026B000CA80DB80A60195010E9432868823ACF097
:1026C000C801B701A60195010E94EC836093F60949
:1026D0007093F7098093F8099093F909C401019662
:1026E0009093F5098093F4094C01C090F609D090BD
:1026F000F709E090F809F090F9098401000F111F23
:10270000000F111F0E5E164FF801668D778D80A1A8
:1027100091A10E941B854B015C01C701B601F80124
:1027200022AD33AD44AD55AD0E943D869B01AC0159
:10273000C501B4010E94ED834B015C010A5A1F4F91
:10274000C701B601F80120813181428153810E9485
:102750003D86A70196010E943D869B01AC01C50103
:10276000B4010E94ED830E94E8843B014C018091FA
:10277000FB099091FC09A091FD09B091FE0964014B
:102780005301A81AB90ACA0ADB0AD7FE08C0D094B6
:10279000C094B094A094A11CB11CC11CD11CC60152
:1027A000B5010E941B8523E333E343E852E40E9412
:1027B0003D867B018C0120E03FEF4FE757E40E940C
:1027C00032861816ACF0C801B70120E030E040E8CE
:1027D0005FE30E9479848823ACF40F2EF0E0EF2EA3
:1027E000F0E0FF2EF0E80F2FFFE31F2FF02D0AC0BF
:1027F0000F2EF0E0EF2EFFEFFF2EFFE70F2FF7E495
:102800001F2FF02DE0920D0AF0920E0A00930F0A8E
:102810001093100AB0920C0AA0920B0A20E080914B
:10282000FB099091FC09A091FD09B091FE09861564
:102830009705A805B9050CF421E02093FA096092E8
:10284000FB097092FC098092FD099092FE0981E0DB
:1028500080930709DF91CF911F910F91FF90EF9027
:10286000DF90CF90BF90AF909F908F907F906F90B0
:1028700008952F923F924F925F926F927F928F9224
:102880009F92AF92BF92CF92DF92EF92FF920F93FF
:102890001F93DF93CF93CDB7DEB760970FB6F89451
:1028A000DEBF0FBECDBF8C0149875A876B877C87FF
:1028B0003E872D878FEF90E0089FF001099FF00D74
:1028C000189FF00D1124E650F64F8081882359F4AB
:1028D0000F2EF0E0CF2EF0E0DF2EF0EAEF2EF1EC3D
:1028E000FF2EF02D0AC00F2EF0E0CF2EF0E0DF2EED
:1028F000F0EAEF2EF1E4FF2EF02D8FEF90E0089F2D
:102900009001099F300D189F300D11242E5E364F17
:1029100025503F4FD9012D903D904D905C90225114
:102920003040D9018D919D910D90BC91A02D8D834A
:102930009E83AF83B88729853A854B855C8582174E
:102940009307A407B5072CF04FEF5FEF588B4F8725
:1029500004C081E090E0988B8F87C201B10120E034
:1029600030E040E050E00E947984882309F44AC1B5
:102970008FEF90E0089FF001099FF00D189FF00D78
:102980001124E650F64F808190E0AF85B889FC01B4
:10299000AE9FC001AF9F900DBE9F900D112497FF79
:1029A00031C1C8018BDC3CC18FEF90E0089FF00182
:1029B000099FF00D189FF00D1124EE5EF64FEF50B9
:1029C000FF4F619071908190919080819181A2815F
:1029D000B38189839A83AB83BC83C701B601A2010B
:1029E00091010E943D862FE632E143E852E40E94C5
:1029F00080847B018C01E89417F9C801B701A40118
:102A000093010E94798487FD15C00F2EF0E06F2E90
:102A1000F0E07F2EF0E08F2EF0E09F2EF02D0F2EB5
:102A2000F0E02F2EF0E03F2EF0E04F2EFFE35F2E80
:102A3000F02D35C0C401B301A80197010E94EC83B9
:102A400029813A814B815C810E9480843B014C0149
:102A500020E030E040E05FE30E94798487FD15C00C
:102A60000F2EF0E06F2EF0E07F2EF0E08F2EFFE3D0
:102A70009F2EF02D0F2EF0E02F2EF0E03F2EF0E0F5
:102A80004F2EF0E05F2EF02D0AC060E070E080E095
:102A90009FE3A40193010E94EC831B012C01698137
:102AA0007A818B819C81A40193010E943D869B01C8
:102AB000AC01C801B7010E94ED835B016C01C80144
:102AC000B701A40193010E943D867B018C016981BD
:102AD0007A818B819C8120E030E040E05FE30E94BE
:102AE0003D86A40193010E943D86A40193010E94AA
:102AF0003D869B01AC01C801B7010E94ED830E9495
:102B0000E8840E941B857B018C01C201B101A601F2
:102B100095010E943D869B01AC01C801B7010E944E
:102B2000ED830E94E8840E941B857B018C01C60115
:102B3000B501A60195010E943D8620E030E040E00D
:102B40005FE30E943D8629813A814B815C810E942E
:102B500080849B01AC01C801B7010E94ED830E94F3
:102B6000E884EF85F8899F01442737FD4095542F6D
:102B70000E9444882D813E814F815885620F731FCA
:102B8000841F951F4F8558894130510551F429857F
:102B90003A854B855C8526173707480759078CF41B
:102BA0000EC04F8558894F5F5F4F59F429853A858C
:102BB0004B855C85621773078407950714F4CA0177
:102BC000B901AD85BE856D937D938D939C931397CD
:102BD00081E060960FB6F894DEBF0FBECDBFCF91F7
:102BE000DF911F910F91FF90EF90DF90CF90BF90FA
:102BF000AF909F908F907F906F905F904F903F909D
:102C00002F90089529853A854B855C858D819E811D
:102C1000AF81B885281739074A075B0709F0C4CE8A
:102C200080E0D7CF4F925F926F927F928F929F9268
:102C3000AF92BF92CF92DF92EF92FF920F931F93CA
:102C4000CF93DF932C017A018B018FEF90E0489EA8
:102C5000F001499EF00D589EF00D1124E150F64F01
:102C6000A080B180C280D380A416B506C606D70660
:102C70001CF0CFEFDFEF02C0C1E0D0E08FEF90E0BB
:102C8000489EF001499EF00D589EF00D1124E35F1F
:102C9000F54F608171818281938120E030E040E0D6
:102CA00050E00E947984882319F0C20107DB90C0AC
:102CB000CE01880F991F3C01882477FC8094982CC2
:102CC000A60CB71CC81CD91CC130D10531F4EA14BC
:102CD000FB040C051D055CF408C0CF5FDF4F39F421
:102CE000AE14BF04C006D10614F4570168018FEF7B
:102CF00090E0489EF001499EF00D589EF00D112481
:102D0000E45BF64F80E090E020E030E040E050E00F
:102D1000F8972083318342835383F896208331834D
:102D200042835383248F358F468F578F0196349675
:102D30008730910569F78FEF90E0489EF001499E3A
:102D4000F00D589EF00D1124EE5EF64FEC51FF4F42
:102D50002083318342835383E45EF0408AE097ED21
:102D6000A3E2BCE382839383A483B583E751FF4F3F
:102D700080819181A281B381E95EF040868F978F37
:102D8000A0A3B1A3680E791E8A1E9B1E62A273A225
:102D900084A295A2EE51FF4F118210823B96A08231
:102DA000B182C282D382A816B906CA06DB0681F0B8
:102DB00081E090E0A0E0B0E004C0880F991FAA1F56
:102DC000BB1F4A94D2F720910D09282B20930D099F
:102DD000DF91CF911F910F91FF90EF90DF90CF90F7
:102DE000BF90AF909F908F907F906F905F904F902B
:102DF00008958091110A80688093110A0895809146
:102E0000110A80648093110A08958091110A8062EA
:102E10008093110A08958091110A80618093110AAC
:102E200008958091110A88608093110A0895809115
:102E3000110A84608093110A089560914F04709183
:102E4000500480915104909152040E94198520E011
:102E500030E04AE754E40E9480849B01AC01609119
:102E600034037091350380913603909137030E94AB
:102E70003D866093300370933103809332039093C7
:102E80003303089560914F04709150048091510470
:102E9000909152040E94198520E030E04AE754E402
:102EA0000E9480849B01AC016091300370913103DA
:102EB00080913203909133030E94808460933403A5
:102EC0007093350380933603909337030895609190
:102ED000E10270E080E090E02091E6023091E702AC
:102EE0004091E8025091E9020E94448860935B049B
:102EF00070935C0480935D0490935E040E94198536
:102F00009B01AC016091EA027091EB028091EC02AE
:102F10009091ED020E94808460933003709331039E
:102F2000809332039093330380914504813029F4D8
:102F30008091E002882309F4A5CF0895809145048B
:102F4000813029F48091E002882309F476DFBFDF25
:102F5000809177048130B1F0813018F08230E9F54A
:102F600026C08091760490E0FC01EE0FFF1FE80F71
:102F7000F91FEE0FFF1FEB5FFB4F608171818281B4
:102F800093812BC08091760490E0FC01EE0FFF1F2F
:102F9000E80FF91FEE0FFF1FEB5FFB4F60817181A0
:102FA0008281938120E030E040E05FE314C08091B3
:102FB000760490E0FC01EE0FFF1FE80FF91FEE0F03
:102FC000FF1FEB5FFB4F608171818281938120E065
:102FD00030E040E85EE30E943D862091300330916E
:102FE000310340913203509133030E943D860E9489
:102FF000ED8460932E0A70932F0A8093300A909389
:10300000310A0895EF92FF920F931F93CF93DF93AE
:10301000C9E1D7E00F2EF0E0EF2EF0E0FF2EF0E058
:103020000F2FF0E01F2FF02D699170E0882777FDBA
:103030008095982F0E941B859B01AC01C801B701A8
:103040000E94ED837B018C0187E0C332D80761F7D2
:10305000C801B70120E030E040E251E40E948084E2
:103060007B018C0120E030E040E050E00E9432869D
:1030700088234CF0C801B70120E030E040E05FE376
:103080000E94ED8308C0C801B70120E030E040E0B5
:103090005FE30E94EC830E94E884862FDF91CF914A
:1030A0001F910F91FF90EF900895823061F083306F
:1030B00028F4882351F0813011F522C08330D9F0F3
:1030C0008430E9F41AC085E1089580914504909117
:1030D0004404882341F4913011F48FE0089599233A
:1030E00071F480E10895913011F48BE008959923F3
:1030F00031F48CE0089586E1089587E108950895FC
:1031000084E108952091DD023091DE0224FF16C093
:103110008091EF07882349F48091DF0286FF05C084
:1031200020623093DE022093DD028091DD029091D7
:10313000DE028F7E9093DE028093DD0208952F924F
:103140003F924F925F926F927F928F929F92AF9237
:10315000BF92CF92DF92EF92FF920F931F93DF9374
:10316000CF93CDB7DEB72A970FB6F894DEBF0FBE68
:10317000CDBF9A87898749835A836B837C830D836C
:103180001E832F83388780915B038530C1F5A98525
:10319000BA852D913D914D915C91283EB3E03B075E
:1031A000B0E04B07B0E05B0708F47BC0DA01C9016F
:1031B000885E9340A040B0408834E1E79E07E0E09D
:1031C000AE07E0E0BE0708F450C0DA01C901805341
:1031D0009547A040B0408033F5E79F07F0E0AF0788
:1031E000F0E0BF0708F456C020563A4E4040504029
:1031F00020563D434840504008F445C03DC084300F
:1032000009F054C0A985BA852D913D914D915C91ED
:103210002032B2E13B07BAE04B07B0E05B0760F554
:10322000DA01C90188549E4EA040B040883DE3E2D7
:103230009E07E9E0AE07E0E0BE0728F1DA01C90128
:1032400088519947A040B0408033F5E79F07F0E0F0
:10325000AF07F0E0BF07F0F0245C39404040504039
:1032600024553F4640405040E0F444EF242E41E0D6
:10327000342E412C512C1AC030E6232E3AEE332E38
:10328000412C512C13C020E1222E27E2322E412C5A
:10329000512C0CC098EE292E93E0392E412C512C44
:1032A00005C001E0202E312C412C512CA985BA8576
:1032B000AD90BD90CD90DC90B1EDAB16B7E0BB0604
:1032C000B0E0CB06B0E0DB0610F580911C03682F60
:1032D00070E0A6EFB2E0E0E0F0E016C08D919D91C5
:1032E0009C01442737FD4095542F2A153B054C057A
:1032F0005D0548F0A985BA852D933D934D935C9368
:1033000013978E2F04C03196E617F7073CF32091F0
:103310005B03253009F0A2C0E985FA85A080B18061
:10332000C280D3802D813E814F815885A216B3067D
:10333000C406D50630F0211531054105510509F0C7
:103340002DC130EDA31637E0B30630E0C30630E000
:10335000D306C8F4E82FF0E080911C0390E00197B9
:10336000E817F9072CF4EE0FFF1FE850FD4F9BC044
:1033700080ED97E0A0E0B0E0E985FA858083918355
:10338000A283B38302C16090120A7090130A8090E6
:10339000140A9090150A2D813E814F815885211580
:1033A000310541055105B9F40894611C711C811C5B
:1033B000911CC201B101A40193010E944488A60E90
:1033C000B71EC81ED91EA985BA85AD92BD92CD92F1
:1033D000DC921397C3C0ED80FE800F811885EA1838
:1033E000FB080C091D09C201B101A40193010E944F
:1033F00044886E157F058007910758F5C201B10119
:103400000E9419857B018C01C601B5010E941985B6
:103410005B016C01C401B3010E9419859B01AC01E1
:10342000C801B7010E943D869B01AC01C801B701EC
:103430000E94ED839B01AC01C601B5010E94ED83A2
:103440000E94ED84E985FA8560837183828393838A
:1034500085C02D813E814F81588579C0243009F087
:103460009DC0E985FA85A080B180C280D380298182
:103470003A814B815C812A153B054C055D0508F0BE
:103480008DC031EDA31637E0B30630E0C30630E05F
:10349000D30680F4882309F478C0E82FF0E0EE0F1B
:1034A000FF1FEC50FD4F80819181AA2797FDA095C9
:1034B000BA2F62CF6090120A7090130A8090140A9B
:1034C0009090150A8601750129813A814B815C81B2
:1034D000E21AF30A040B150BC201B101A401930116
:1034E0000E9444886E157F058007910760F5C20130
:1034F000B1010E9419857B018C01C601B5010E94B2
:1035000019855B016C01C401B3010E9419859B01FF
:10351000AC01C801B7010E943D869B01AC01C80106
:10352000B7010E94ED839B01AC01C601B5010E9469
:10353000EC830E94ED84A985BA856D937D938D936C
:103540009C9313970BC029813A814B815C81A9859B
:10355000BA852D933D934D935C931397E985FA8536
:103560006081718182819381A20191010E9496887C
:10357000CA01B901A20191010E944488A985BA85B6
:103580006D937D938D939C9313978091DD02909121
:10359000DE0280619093DE028093DD0220914F0471
:1035A000309150044091510450915204E985FA85BC
:1035B00080819181A281B381281739074A075B076F
:1035C00020F420833183428353832A960FB6F894E4
:1035D000DEBF0FBECDBFCF91DF911F910F91FF9046
:1035E000EF90DF90CF90BF90AF909F908F907F90A3
:1035F0006F905F904F903F902F9008952F923F9241
:103600004F925F926F927F92AF92BF92CF92DF9272
:10361000EF92FF920F931F93DF93CF93CDB7DEB757
:1036200062970FB6F894DEBF0FBECDBF9A8B898B21
:10363000762EB42EA22E602E80915B03853009F089
:103640008AC0A989BA890C91201728F4222329F06D
:103650006620D1F411C12223B9F4672D70E080E017
:1036600090E02091120A3091130A4091140A50916F
:10367000150A2F5F3F4F4F4F5F4F0E944488060F40
:10368000E989FA890083DCC0C02EDD248091120A0A
:103690009091130AA091140AB091150A8D839E830C
:1036A000AF83B887EA2CFF24EC18FD080027F7FC4D
:1036B0000095102F272C332444245524C201B10136
:1036C0002D813E814F8158850E9444886E157F056B
:1036D00080079107B0F5B601882777FD8095982F70
:1036E0000E941B8569877A878B879C87672D70E08E
:1036F000882777FD8095982F0E941B855B016C01C0
:10370000C201B1010E9419857B018C016D817E810E
:103710008F8198850E9419859B01AC01C801B70172
:103720000E943D869B01AC01C601B5010E94ED835C
:103730009B01AC0169857A858B859C850E94ED8310
:1037400070C0662021F0E989FA89B08279C0A98920
:10375000BA89AC9275C0843009F08EC0A989BA8943
:10376000EC90E41618F4002309F486C0CE2CDD2476
:103770008091120A9091130AA091140AB091150A2F
:1037800089839A83AB83BC837601EB18F108002709
:10379000F7FC0095102F272C332444245524C20114
:1037A000B10129813A814B815C810E9444886E1568
:1037B0007F0580079107D8F5B601882777FD8095AA
:1037C000982F0E941B856D877E878F87988B672D2A
:1037D00070E0882777FD8095982F0E941B855B01FC
:1037E0006C01C201B1010E9419857B018C016981C4
:1037F0007A818B819C810E9419859B01AC01C80153
:10380000B7010E943D869B01AC01C601B5010E9433
:10381000ED839B01AC016D857E858F8598890E9423
:10382000EC830E94ED84A989BA896C9309C0662053
:1038300021F0E989FA89A08203C0A989BA89BC92DA
:10384000E989FA89808190E0672D70E00E946F8895
:10385000872D90E09C01629FC001639F900D729F35
:10386000900D112480838091DD029091DE028061B1
:103870009093DE028093DD0262960FB6F894DEBF6D
:103880000FBECDBFCF91DF911F910F91FF90EF90B1
:10389000DF90CF90BF90AF907F906F905F904F90F0
:1038A0003F902F9008952F923F924F925F926F9288
:1038B0007F928F929F92AF92BF92CF92DF92EF92C0
:1038C000FF920F931F93DF93CF9300D00F92CDB74A
:1038D000DEB71C017A8369834A013C832B83809184
:1038E0005B03853009F06FC0F10180809180821602
:1038F000930618F0232B29F0DBC02B813C81232B6E
:10390000C1F4E981FA81BF01882777FD8095982F5E
:103910002091120A3091130A4091140A5091150A0D
:103920002F5F3F4F4F4F5F4F0E944488860E971E78
:10393000A1C04090120A5090130A6090140A70902F
:10394000150AEB80FC80E818F90800E010E02981F6
:103950003A815901CC24B7FCC094DC2CC601B501D6
:10396000A30192010E9444886E157F05800791078C
:1039700020F5C601B5010E941B857B018C01B401B5
:1039800080E090E00E9419855B016C01C301B201E7
:103990000E9419859B01AC01C801B7010E943D86B8
:1039A0009B01AC01C801B7010E94ED839B01AC01F2
:1039B000C601B5010E94ED8357C02B813C81F10106
:1039C000318320835AC0843009F072C0F101019024
:1039D000F081E02DFC83EB834E175F0708F068C091
:1039E0004090120A5090130A6090140A7090150AC1
:1039F0007F01E41AF50A00E010E029813A815901BB
:103A0000CC24B7FCC094DC2CC601B501A301920103
:103A10000E9444886E157F058007910758F5C601FE
:103A2000B5010E941B857B018C01EB81FC81BF01EC
:103A300080E090E00E9419855B016C01C301B20136
:103A40000E9419859B01AC01C801B7010E943D8607
:103A50009B01AC01C801B7010E94ED839B01AC0141
:103A6000C601B5010E94EC830E94ED84F1017183CF
:103A7000608303C0F10191828082F1018081918194
:103A800069817A810E946F8829813A81629FC00191
:103A9000639F900D729F900D11249183808380917C
:103AA000DD029091DE0280619093DE028093DD0260
:103AB0000F900F900F900F90CF91DF911F910F916A
:103AC000FF90EF90DF90CF90BF90AF909F908F903E
:103AD0007F906F905F904F903F902F9008952F921E
:103AE0003F924F925F926F927F928F929F92AF928E
:103AF000BF92CF92DF92EF92FF920F931F93DF93CB
:103B0000CF93CDB7DEB72E970FB6F894DEBF0FBEBA
:103B1000CDBF9E878D873A014B010D831E832F8376
:103B200038871601270180915B03853009F093C027
:103B3000AD85BE85AD90BD90CD90DC90A214B30450
:103B4000C404D50430F0211431044104510431F08F
:103B50000BC12114310441045104D9F4A60CB71C43
:103B6000C81CD91C2091120A3091130A4091140AE2
:103B70005091150AC401B3010E944488A60EB71ED5
:103B8000C81ED91EED85FE85A082B182C282D38275
:103B900053C08091120A9091130AA091140AB09117
:103BA000150A89839A83AB83BC8382017101EA1869
:103BB000FB080C091D09CB01BA0129813A814B810F
:103BC0005C810E9444886E157F058007910770F51F
:103BD000C401B3010E941B857B018C01C601B501A4
:103BE0000E9419855B016C0169817A818B819C81BE
:103BF0000E9419859B01AC01C801B7010E943D8656
:103C00009B01AC01C801B7010E94ED839B01AC018F
:103C1000C601B5010E94ED830E94ED84AD85BE858D
:103C20006D937D938D939C93139706C0ED85FE85D0
:103C30002082318242825382AD85BE856D917D9115
:103C40008D919C919301A4010E949688CA01B901AB
:103C50009301A40178C0843009F086C0AD85BE858B
:103C6000AD90BD90CD90DC908D819E81AF81B88567
:103C70008A159B05AC05BD0508F076C02090120A98
:103C80003090130A4090140A5090150A49877A869A
:103C90008B869C8686017501E81AF90A0A0B1B0BB4
:103CA000BA01C401A20191010E9444886E157F05EA
:103CB0008007910760F5C401B3010E941B857B0159
:103CC0008C01C601B5010E9419855B016C01C2011E
:103CD000B1010E9419859B01AC01C801B7010E9486
:103CE0003D869B01AC01C801B7010E94ED839B0199
:103CF000AC01C601B5010E94EC830E94ED84AD8544
:103D0000BE856D937D938D939C9313970AC08D818F
:103D10009E81AF81B885ED85FE8580839183A283E6
:103D2000B383AD85BE856D917D918D919C912985E3
:103D30003A854B855C850E949688CA01B901298520
:103D40003A854B855C850E944488ED85FE856083BD
:103D50007183828393838091DD029091DE02806182
:103D60009093DE028093DD022E960FB6F894DEBFAC
:103D70000FBECDBFCF91DF911F910F91FF90EF90BC
:103D8000DF90CF90BF90AF909F908F907F906F907B
:103D90005F904F903F902F9008952F923F924F92B7
:103DA0005F926F927F928F929F92AF92BF92CF92CB
:103DB000DF92EF92FF920F931F93DF93CF93CDB7D4
:103DC000DEB728970FB6F894DEBF0FBECDBF1C013B
:103DD0004A015B010D831E832F83388780915B032B
:103DE000853009F084C0D1018D919D910D90BC91D9
:103DF000A02D89839A83AB83BC83BC01CD01A7012D
:103E000096010E94798487FD0BC0C701B60120E0AE
:103E100030E040E050E00E947984882359F0D8C017
:103E2000C701B60120E030E040E050E00E94798414
:103E3000882321F56091120A7091130A8091140A67
:103E40009091150A0E9419859B01AC01C501B4012E
:103E50000E943D869B01AC01C501B4010E94ED8327
:103E60009B01AC0169817A818B819C810E94ED83E9
:103E7000F1016083718382839383A1C06091120AF0
:103E80007091130A8091140A9091150A0E94198565
:103E9000A50194010E943D862B013C01C701B6019A
:103EA00029813A814B815C810E94EC83A3019201BC
:103EB0000E9432861816ACF4C501B401A301920128
:103EC0000E94ED839B01AC0169817A818B819C8189
:103ED0000E94ED83D1016D937D938D939C931397F5
:103EE0006EC0F101C082D182E282F38268C0843068
:103EF00009F06EC0D101CD90DD90ED90FC90C7012E
:103F0000B6012D813E814F8158850E943286181658
:103F10000CF05EC06091120A7091130A8091140A2D
:103F20009091150A0E941985A50194010E943D8671
:103F30002B013C01C701B6012D813E814F8158857F
:103F40000E94EC83A30192010E943286181694F419
:103F5000C501B401A30192010E94ED839B01AC0154
:103F6000C701B6010E94EC83F101608371838283F3
:103F7000938309C08D819E81AF81B885F1018083D3
:103F80009183A283B3836D817E818F819885A50102
:103F900094010E94ED839B01AC01D1016D917D9153
:103FA0008D919C910E94798488234CF48D819E810F
:103FB000AF81B885F10180839183A283B38380911F
:103FC000DD029091DE0280619093DE028093DD023B
:103FD00028960FB6F894DEBF0FBECDBFCF91DF910C
:103FE0001F910F91FF90EF90DF90CF90BF90AF9017
:103FF0009F908F907F906F905F904F903F902F9009
:1040000008958CE297E066E048ED5CE00E94F4657C
:10401000809145048093E4070895DF92EF92FF9228
:104020000F931F93CF93DF93D82E809139089091EF
:104030003A088230910509F49FC08330910534F429
:10404000009769F0019709F04AC128C083309105B3
:1040500009F432C18436910509F041C132C18DE0C5
:10406000D81609F440C19AE0D91609F43CC181E0A0
:1040700090E090933A088093390890933C0880939D
:104080003B0810923D0810923E0810923F08109293
:104090004008109241081092420825C180913808CA
:1040A000883631F4E9E6DE1609F019C18AE00DC060
:1040B0008D3629F4F3E7DF1659F48EE106C0833715
:1040C00061F481E6D81609F582E380933D08F6C0D5
:1040D0009DE6D91651F488E246C08E3661F4E0E7D9
:1040E000DE1609F0FCC08FE13EC0F0E7DF1609F0F4
:1040F000F6C08BE238C08A3731F48DE6D81609F065
:10410000EEC08CE230C0833731F49DE6D91609F059
:10411000E6C08AE228C0803731F4E2E7DE1609F013
:10412000DEC089E220C0823631F4F6E6DF1609F0FF
:10413000D6C08CE318C0873631F48FE6D81609F064
:10414000CEC08DE3C2CF8A3631F49DE6D91609F090
:10415000C6C086E408C0893609F0C1C0EDE6DE16A7
:1041600009F0BDC087E480933D0882E090E0909321
:104170003A0880933908B7C09D2D90539A3020F0AB
:10418000FDE2DF1609F069C0809138088032D1F570
:1041900080913E088F5F80933E08883248F08AE91C
:1041A0009CE060E072E00E94828383E090E0DFCFD9
:1041B000E82FF0E0EE0FFF1FEE0FFF1FE55CF74F5B
:1041C00010821182128213828DE2D81639F48FEF99
:1041D0009FEF90933C0880933B0885C081E090E07E
:1041E00090933C0880933B088D2D992787FD9095EF
:1041F000C097AA2797FDA095BA2F80839183A283A9
:10420000B38371C09A3048F560913E08C62FD0E064
:10421000CC0FDD1FCC0FDD1FC55CD74FED2CFF246D
:10422000E7FCF094E0EDFFEFEE0EFF1E0027F7FC39
:104230000095102F688179818A819B812AE030E086
:1042400040E050E00E944488E60EF71E081F191F48
:10425000E882F9820A831B8346C0F0E2DF1621F070
:104260008DE0D81609F03FC08091380880538A301D
:10427000F8F400913E080023D9F010E0000F111F60
:10428000000F111F055C174F20913B0830913C082F
:10429000442737FD4095542FF80160817181828158
:1042A00093810E944488F8016083718382839383A1
:1042B000FDE0DF16C1F402C010923D0884E690E0F4
:1042C00056CF8AE0D81679F4809138088D3059F4A9
:1042D00080913D0810923A081092390805C010925A
:1042E0003A081092390880E0D0923808DF91CF91D7
:1042F0001F910F91FF90EF90DF900895DF92EF9262
:10430000FF920F931F93CF93DF93182FF62E8BE41A
:104310009AE06DE74BE023E000E4EE240E94B26DEA
:10432000112309F45AC08091400AFF2011F0182F80
:1043300003C01091410A181B0091420A063018F47C
:10434000E0E3DE2E17C0602F70E080E090E00E9476
:1043500019859B01AC0160E070E080EA90E40E9466
:10436000808420E030E040E452E40E943D860E94D8
:10437000ED84D62E612F70E080E090E0C02FD0E079
:10438000FF2031F00E9419857B018C01229705C026
:104390000E9419857B018C012197BE01882777FD3A
:1043A0008095982F0E941B859B01AC01C801B70125
:1043B0000E94808420E030E040E452E40E943D8688
:1043C0000E94ED84462F435F8BE49AE06EE721E084
:1043D0000D2DEE24EA940E94B26DDF91CF911F91D2
:1043E0000F91FF90EF90DF900895BF92CF92DF92F0
:1043F000EF92FF920F931F93182FD62E042F8091C8
:10440000530395E0B92EB10E8823F1F1809118077E
:1044100087FF3AC0B8E0FB2EF60EA2E0EA2EE10ECE
:104420004423C9F08BE49AE06CEC79E0412F2D2D08
:104430000FEF0E94CE6D8BE49AE0612F4F2D24E0A8
:1044400000E00E949C6D8BE49AE06E2D4F2D2FEFC3
:104450000E943D725BC08BE49AE06CEC79E0412FE6
:104460002D2D00E00E94CE6D8BE49AE0612F4F2D40
:1044700024E00FEF0E949C6D8BE49AE06E2D4F2D8F
:1044800020E00E943D723BC00E940218E82EF8E036
:10449000FF2EFD0CC12EC3940023F1F08BE49AE0B3
:1044A00063ED79E0412F2D2D0FEF0E94CE6D4F2D42
:1044B0004E198BE49AE06C2D22E00E2DEE24EA9446
:1044C0000E94B26D8BE49AE0612F4F2D1C5F212F6B
:1044D0000F2D0E942D6E1AC08BE49AE063ED79E0F7
:1044E000412F2D2D00E00E94CE6DFE188BE49AE046
:1044F0006C2D4F2D22E00E2DEE240E94B26D8BE428
:104500009AE06B2D4D2D29E00FEF06C08BE49AE069
:104510006B2D4D2D29E000E00E94A66D1F910F919B
:10452000FF90EF90DF90CF90BF900895CF93DF93EF
:10453000E091EF07EE23B1F08823D9F0C0E0D0E09E
:1045400009C0FE01EE50F84F808186FD02C080E078
:1045500015C021968CE297E00E94446690E0C8174F
:10456000D9077CF38091780490E0969587958170C7
:1045700005C0F0E0EF50F84F80818074DF91CF915B
:104580000895CF93DF93E091EF07EE2321F4E091BC
:104590007804E17025C08823F1F0C0E0D0E009C0C4
:1045A000FE01EE50F84F808187FD02C0E0E018C0A8
:1045B00021968CE297E00E94446690E0C817D907E4
:1045C0007CF38091780490E081709070E82F8823CC
:1045D00039F0E1E005C0F0E0EF50F84FE081E0781D
:1045E0008E2FDF91CF9108950F931F93182F062FD1
:1045F000442321F08CE297E06CEB07C08CE297E05B
:104600000E948C66682F8CE297E047E0212F0E9481
:10461000176A1F910F9108951F93182F8CE297E04E
:104620000E9444668823A9F08CE297E00E941A66F3
:10463000882379F089E160914504412FD5DF87E037
:104640006091E002412FD0DF86E360914404412F66
:10465000CBDF1F910895EF92FF920F931F938CE28F
:1046600097E00E941A66882389F18CE297E00E9405
:104670004466882359F180914504813039F5E090F2
:10468000E202F090E3020091E4021091E5028CE274
:1046900097E06CEB47E020E20E94A669E090E6021A
:1046A000F090E7020091E8021091E9028CE297E0B5
:1046B0006CEB47E021E20E94A6698CE297E06CEB8C
:1046C00047E022E20091E1020E94176A1F910F91D8
:1046D000FF90EF9008958091390390913A03A09153
:1046E0003B03B0913C030097A105B10579F080919F
:1046F00046048160809346040E94D37A6093470405
:10470000709348048093490490934A0408958091DB
:104710002E0A90912F0AA091300AB091310A009789
:10472000A105B10511F480E00895809146048260EE
:10473000809346040E94D37A6093470470934804A0
:104740008093490490934A0481E00895EF92FF9288
:104750000F931F93609153047091540480915504FA
:104760009091560420914F0430915004409151048F
:10477000509152040E9444887B018C0180917A04FC
:1047800090917B04A0917C04B0917D04E80EF91E09
:104790000A1F1B1F0E94D37A20E06E157F05800739
:1047A000910708F021E0822F1F910F91FF90EF9069
:1047B000089590917904882331F09860909379045A
:1047C00083E261E005C0977F9093790483E260E023
:1047D0000C944D7DAF92BF92CF92DF92EF92FF92F9
:1047E0000F931F93A0906E04B0906F04C09070045C
:1047F000D09071048091720490917304A09174041C
:10480000B0917504A81AB90ACA0ADB0AD7FE02C019
:1048100080E001C081E0CDDF809177048130B9F084
:10482000813020F0823009F03FC026C080917604AC
:1048300090E0FC01EE0FFF1FE80FF91FEE0FFF1FC6
:10484000EB5FFB4FE080F180028113812DC08091EE
:10485000760490E0FC01EE0FFF1FE80FF91FEE0F4A
:10486000FF1FEB5FFB4F608171818281938120E0AC
:1048700030E040E05FE314C08091760490E0FC01FA
:10488000EE0FFF1FE80FF91FEE0FFF1FEB5FFB4F4F
:10489000608171818281938120E030E040E85EE3B5
:1048A0000E943D867B018C01C601B5010E941B85DB
:1048B000A80197010E9480841F910F91FF90EF90B3
:1048C000DF90CF90BF90AF900895EF92FF920F933B
:1048D0001F9380DF7B018C0120E030E040E050E05E
:1048E0000E943286181624F017FB109517F91095C0
:1048F000E092EA02F092EB020093EC021093ED02D8
:104900000E9467170E9442171F910F91FF90EF902E
:104910000895EF92FF920F931F935CDF7B018C0150
:1049200020E030E040E050E00E943286181624F08B
:1049300017FB109517F91095E0924603F092470384
:1049400000934803109349031F910F91FF90EF903C
:10495000089580914504813031F48091E0028823EC
:1049600011F40E941D17809144048130D9F40E94F3
:1049700067176091E10270E080E090E02091E6022C
:104980003091E7024091E8025091E9020E94448888
:1049900060935B0470935C0480935D0490935E0469
:1049A0000E94121180914504813031F48091E0021F
:1049B000882311F40E94421780914404882331F423
:1049C00080914504882309F4A4CF7FCF0895809176
:1049D00045048130B1F48091E002882331F4809164
:1049E0004404882341F00C944217813061F4809193
:1049F0004404882321F469CF81E0809344040C941B
:104A00001D178823C9F3089580910608909107081F
:104A1000A0910808B09109088093EE029093EF02EC
:104A2000A093F002B093F1026091100870E080E072
:104A300090E00E9419856093EA027093EB028093E4
:104A4000EC029093ED0280910F08809376048091A0
:104A5000020890910308A0910408B0910508809382
:104A6000460390934703A0934803B0934903809172
:104A70000A088093450380910B0880934A03809134
:104A80000C0880934B038091120880932703809138
:104A900011088FDE80910D0890917804882311F021
:104AA000946001C09B7F9093780408950F931F93A7
:104AB0008091770490E0FC01EE0FFF1FE80FF91FD3
:104AC000E551FC4F028110E0B801617070708FE118
:104AD0000E944D7D16950795017080E2602F0E941F
:104AE0004D7D1F910F9108951F920F920FB60F9257
:104AF0000BB60F9211242F933F934F935F936F93B5
:104B00007F938F939F93AF93BF93CF93DF93EF9355
:104B1000FF9390E080910E09882309F491E090932F
:104B20000E09992311F1409103095091040941158F
:104B3000510509F476C02091010930910209809154
:104B4000050990910609820F931F909302098093A3
:104B500001098217930708F064C0415050405093F8
:104B6000040940930309449A5CC08091080990911C
:104B7000090901969093090980930809885E93407A
:104B800009F04EC0109209091092080980910A0993
:104B9000882319F0815080930A09C0915903D0915C
:104BA0005A0388819981892BA9F060910D0A70912F
:104BB0000E0A80910F0A9091100A20E030E040E048
:104BC00050E00E947984882329F480910C09816047
:104BD00080930C09E0915703F091580380910B0AE0
:104BE00090910C0A9183808360910D0A70910E0A56
:104BF00080910F0A9091100A0E94ED847983688356
:104C00006091FA09809113090E944D7DE09155034E
:104C1000F09156038FEF9FEF9183808310920709E5
:104C20004498FF91EF91DF91CF91BF91AF919F9108
:104C30008F917F916F915F914F913F912F910F9045
:104C40000BBE0F900FBE0F901F90189588E060E08C
:104C50000E944D7D89E060E00E944D7D80915F045F
:104C60008F7D80935F04089580915F0480628093BC
:104C70005F048091600490E0FC01EE0FFF1FE80FDD
:104C8000F91FEC50FC4F8281882319F088E061E025
:104C900002C088E060E00E944D7D89E061E00E94F2
:104CA0004D7D0E94D37A60934704709348048093AB
:104CB000490490934A04089588E061E00E944D7D84
:104CC0000E94D37A60934704709348048093490408
:104CD00090934A048091460480648093460408952A
:104CE000E82FF0E0EE0FFF1FE05AF74F25913491C7
:104CF00084E1689FB0011124CB0182589B4FB90118
:104D00000C94A70B6F927F928F929F92AF92BF925B
:104D1000CF92DF92EF92FF920F931F93DF93CF9387
:104D2000CDB7DEB766970FB6F894DEBF0FBECDBF26
:104D3000FC01A080B180C280D3808CE2A81681E003
:104D4000B80680E0C80680E0D80628F580911C03EC
:104D5000482F50E0E6EFF2E020E030E00FC0819114
:104D60009191AA2797FDA095BA2F8A159B05AC05AE
:104D7000BD0510F0822F05C02F5F3F4F2417350768
:104D800074F38D5860E0ACDFCE0101966EE774E0FD
:104D90000E94B90BCBC06CE0662E712C6C0E7D1E90
:104DA00080E6A8168AEEB80680E0C80680E0D8063D
:104DB00008F04FC0C601B5010E94198520E030E01F
:104DC0004AE754E40E9480847B018C010E94ED84B8
:104DD0005B016C01862F90E04E010894811C911CB0
:104DE000B4014AE050E00E94C00BC40168EE73E0D9
:104DF0000E94AE0BC801B70120E030E040E251E470
:104E00000E943D867B018C012A2D30E0B90153E0E0
:104E1000660F771F5A95E1F7220F331F620F731F3A
:104E2000882777FD8095982F0E941B859B01AC01F8
:104E3000C801B7010E94EC830E94ED84DC01CB0124
:104E400090E0B3014AE050E00E94C00BC401B301FE
:104E500062C0C601B50120E63AEE40E050E00E9493
:104E6000968879018A01C801B70120E63AEE40E050
:104E700050E00E944488A61AB70AC80AD90AC60197
:104E8000B50128EE33E040E050E00E9496885901D9
:104E90006A01C701B3014AE050E00E94C00B4E0115
:104EA0000894811C911C8AE0E816F10401051105A3
:104EB00050F4C40164EE73E00E94B90BC401B30165
:104EC0000E94AE0B04C0C401B3010E94B90B87E27B
:104ED00060E006DF4E010894811C911CC4016EE75E
:104EE00074E00E94AE0BC501BE01645F7F4F4AE0D3
:104EF00050E00E94C00B8AE0A816B104C104D1049E
:104F000028F4C40164EE73E00E94AE0BCE0101965A
:104F1000BE01645F7F4F0E94AE0B84E460E0E0DE80
:104F2000CE0101966EE774E00E94AE0BCE010196B1
:104F300066960FB6F894DEBF0FBECDBFCF91DF915E
:104F40001F910F91FF90EF90DF90CF90BF90AF90A7
:104F50009F908F907F906F900895EF920F931F9383
:104F6000182F81E860E0BCDE82E861E0B9DE83E80A
:104F700062E0B6DE8091410A882309F087C01430D0
:104F800009F084C08091460483FD80C08BE49AE0E0
:104F900060E04DE02EE108E0EE24EA940E94B26D5C
:104FA0008BE49AE060E00E940D738BE49AE06AE083
:104FB0004EE00E94FB728BE49AE062E974E00E948A
:104FC00082838091410A882309F06DC0143009F46E
:104FD0006AC0153009F467C08091460483FD63C040
:104FE0008BE49AE06FE14DE02DE308E0EE24EA94D3
:104FF0000E94B26D8BE49AE060E00E940D738BE436
:105000009AE06EE774E00E94657386956FE3681B13
:105010008BE49AE04EE00E94FB728BE49AE06EE72C
:1050200074E00E9482838091410A882309F048C07D
:10503000153009F045C08091460483FD41C08BE4E2
:105040009AE06DE54DE02EE108E0EE24EA940E943E
:10505000B26D8BE49AE060E00E940D738BE49AE0FD
:1050600068E64EE00E94FB728BE49AE066EA74E028
:105070000E9482838BE49AE060E046E12DE700E045
:105080000E949C6D1F910F91EF9008958BE49AE020
:1050900060E04DE02EE108E0EE240E94B26D8BE46A
:1050A0009AE06FEF80CF8BE49AE06FE14DE02DE363
:1050B00008E0EE240E94B26D8BE49AE06FEF9DCF82
:1050C0008BE49AE06DE54DE02EE108E0EE240E94CD
:1050D000B26D8BE49AE06FEFBFCF0F931F930BE499
:1050E0001AE0C80160E00E940D73C80163E542E068
:1050F0000E94FB7280E860E0F3DDC8016EE774E0B7
:105100000E9482831F910F910895DF92EF92FF9288
:105110000F931F93CF93DF9380913E0A0E945518FF
:10512000E82E1092420AC1E6D3E0DD24D3949881A0
:105130009E1509F06BC02981253169F480914504E1
:10514000813049F410E08091E002811111E01D25C9
:10515000012F10E002C000E010E0973141F420324E
:1051600031F480914404813011F00B5F1F4F892F7F
:105170008B50823030F09F3021F080E1E81609F04A
:105180004CC0223409F049C08CE297E00E941A66B4
:10519000882361F08CE297E00E941A668823E9F187
:1051A0008CE297E00E9444668823B9F5FF24F394CB
:1051B0008881843159F489818A3641F48CE297E000
:1051C0000E941A66882311F4FF24F39488818431A5
:1051D00049F489818A3631F48CE297E00E941A669C
:1051E0008823A1F0FF2091F4102F8981800F609116
:1051F000420A76DD9091420AE92FF0E0E250F94F41
:105200008981180F10839F5F9093420A229683E052
:10521000C13ED80709F08BCF02C0FF24C9CFDF9170
:10522000CF911F910F91FF90EF90DF900895909193
:105230004E03943621F484E061E00C944D7D8FEFB1
:10524000989FC001112464E670E00E94838884E086
:105250000C94DA7B88E30E94A67B20911807C39701
:1052600014F0206801C02F772093180708959F92AB
:10527000AF92BF92CF92DF92EF92FF920F931F9364
:10528000982E8091410A882309F075C080913E0ACA
:10529000882309F070C08091790481FD6CC02BC017
:1052A0000E9419857B018C01C601B5010E941985F8
:1052B0009B01AC01C801B7010E9480847B018C0175
:1052C000CB01D8018093220A9093230AA093240A49
:1052D000B093250A9920D9F0B701C8010E94F08641
:1052E0000E94F0866093220A7093230A8093240A16
:1052F0009093250A0CC080E090E0A0E8BFE3809383
:10530000220A9093230AA093240AB093250A60915D
:105310003D0370913E0380913F03909140032091A3
:105320004103309142034091430350914403621B77
:10533000730B840B950B0E9419852091220A3091E2
:10534000230A4091240A5091250A0E943D860E941A
:10535000ED8460931E0A70931F0A8093200A909335
:10536000210A1F910F91FF90EF90DF90CF90BF9097
:10537000AF909F90089560912E0A70912F0A8091AE
:10538000300A9091310AA0902803B0902903C09070
:105390002A03D0902B036A157B058C059D0508F424
:1053A0007FCFA9CFAF92BF92CF92DF92EF92FF92C1
:1053B0000F931F93E62E882311F00E949E17A09052
:1053C0002E0AB0902F0AC090300AD090310AEE20F9
:1053D00011F16091270370E080E090E00E94198550
:1053E00020E030E048EC52E40E9480847B018C0194
:1053F000D694C794B794A794C601B5010E941985A5
:105400009B01AC01C801B7010E943D860E94ED845A
:105410009B01AC0115C0A60195015695479537959E
:1054200027958091280390912903A0912A03B09198
:105430002B0382179307A407B50710F49C01AD0155
:105440002093260A3093270A4093280A5093290A6A
:1054500020932A0A30932B0A40932C0A50932D0A4A
:10546000211531054105510521F421E030E040E0EE
:1054700050E081E0B901FBDE8091790490E073E0B7
:10548000969587957A95E1F7817093D960912E0A68
:1054900070912F0A8091300A9091310A0E941985EB
:1054A0007B018C0160914F047091500480915104F4
:1054B000909152040E9419859B01AC01C801B7016B
:1054C0000E9480846093320A7093330A8093340A76
:1054D0009093350A10923A0A10923B0A10923C0AB5
:1054E00010923D0A1F910F91FF90EF90DF90CF90A7
:1054F000BF90AF9008952F923F924F925F926F921C
:105500007F928F929F92AF92BF92CF92DF92EF9253
:10551000FF920F931F93DF93CF93CDB7DEB7A29780
:105520000FB6F894DEBF0FBECDBF1C01498F5A8F56
:105530006B8F7C8F8FEF90E0289E9001299E300D1D
:10554000389E300D1124245B364F3A832983F901AC
:1055500080E090E020E030E040E050E0F8972083E9
:10556000318342835383F89620833183428353836C
:10557000248F358F468F578F01963496873091054B
:1055800069F78FEF90E0289EB001299E700D389E3C
:10559000700D11246E5E764F6C517F4FDB012D93A1
:1055A0003D934D935C9313976B5F7F4FDB012D9180
:1055B0003D914D915C912D8B3E8B4F8B588F695E49
:1055C0007040FB01268F378F40A351A36F507F4F50
:1055D000DB01ED90FD900D911D918D919D910D90B0
:1055E000BC91A02D898B9A8BAB8BBC8BC801B7016A
:1055F00029893A894B895C890E9480846D877E87DE
:105600008F87988BC801B7012D853E854F855889B6
:105610000E943D8669877A878B879C87698D7A8D02
:105620008B8D9C8D2D893E894F89588D621B730B04
:10563000840B950B97FF07C09095809570956195A9
:105640007F4F8F4F9F4F0E941B856D837E838F837B
:105650009887898D9A8DAB8DBC8D2D893E894F8918
:10566000588D281739074A075B072CF04FEF5FEF7B
:105670005C834B8304C081E090E09C838B838FEF3D
:1056800090E0289E8001299E100D389E100D112457
:105690000E5E164F05501F4FD8018D909D90AD9016
:1056A000BC900B5F1040C501B40120E030E040EA3F
:1056B00050E40E94328618160CF027C1F801E85118
:1056C000FF4F8081882329F460E070E080EA91EC4C
:1056D00004C060E070E080EA91E4A50194010E94BA
:1056E0003D862FE632E143E852E40E9480846B015C
:1056F0007C0129893A894B895C890E9480842B012D
:105700003C01E89477F869897A898B899C8920E043
:1057100030E040E05FE30E943D86A30192010E94D9
:105720003D86A30192010E943D866D8F7E8F8F8FF3
:1057300098A3EB81FC81BF01882777FD8095982F86
:105740000E941B854B015C01C701B601A5019401B4
:105750000E943D8620E030E040E050E00E947984E5
:105760008823BCF58FEF90E0289E8001299E100DC4
:10577000389E100D11240E5E164FD80112964D92D0
:105780005D926D927C9215970B501F4FC501B4012D
:10579000F80120813181428153810E943D860F5959
:1057A0001040D8016D937D938D939C93139706556C
:1057B0001040F801C2AED3AEE4AEF5AE6D817E818D
:1057C0008F8198852D8D3E8D4F8D58A10E94ED8340
:1057D00050C06D817E818F8198852D8D3E8D4F8D3E
:1057E00058A10E94798488230CF04BC08FEF90E081
:1057F000289E8001299E100D389E100D11240E5EEA
:10580000164FD80112964D925D926D927C9215972B
:10581000EB81FC81F095E195FF4FFC83EB83BF01A9
:10582000882777FD8095982F0E941B850B501F4F6E
:10583000D8012D913D914D915C910E943D860F596B
:105840001040F80160837183828393830655104072
:10585000D801DA96CD92DD92ED92FC92DD976D8DB6
:105860007E8D8F8D98A12D813E814F8158850E941C
:10587000EC836D837E838F83988771E0672E712C14
:1058800046C06D817E818F8198852D8D3E8D4F8D97
:1058900058A10E94ED836D837E838F8398878FEF5D
:1058A00090E0289E6001299ED00C389ED00C1124D7
:1058B000E2E1F9E0CE0EDF1E6D897E898F89988D39
:1058C0000E941B857B018C01C501B4012D8D3E8D8D
:1058D0004F8D58A10E943D869B01AC01C801B701C4
:1058E0000E94EC830E94E884D6015E966D937D93BE
:1058F0008D939C939197E4EEF0E0CE0EDF1ED601DF
:105900004D925D926D927C921397662477246D81FF
:105910007E818F81988529853A854B855C850E949B
:10592000798418163CF4BD85B9A3EE85EAA34F84AB
:1059300058881AC08FEF90E0289EF001299EF00D44
:10594000389EF00D1124E95FF54F6D817E818F81C6
:10595000988520813181428153810E9480840E94F8
:10596000F08669A37AA32C01F301EE0FFF1FEE0F5F
:10597000FF1F8FEF90E0289E7001299EF00C389E4B
:10598000F00C1124EE0DFF1DEC5EF64F29A13AA19B
:10599000C901D20180839183A283B3832B813C818F
:1059A000B901882777FD8095982F0E941B854B01B0
:1059B0005C018301000F111F000F111F0E0D1F1D31
:1059C0000859164F42E1C42E49E0D42ECE0CDF1CFC
:1059D000F601EB50FF4F20813181428153810E94BB
:1059E0003D86D8016D937D938D939C9313976D8124
:1059F0007E818F81988529853A854B855C850E94BB
:105A000032861816ACF50894611C711C8301000FD6
:105A1000111F000F111F0E0D1F1D0C5E164F6D8103
:105A20007E818F81988529853A854B855C850E948A
:105A3000EC83F601EF50FF4F208131814281538189
:105A40000E948084F8016083718382839383F301D1
:105A5000EE0FFF1FEE0FFF1FEE0DFF1DE859F64F73
:105A600080E090E0A0E0B0E080839183A283B383E4
:105A70000894611C711CF301EE0FFF1FEE0FFF1F56
:105A80008FEF90E0289E7001299EF00C389EF00C5C
:105A90001124EE0DFF1DEC5EF64F29A13AA1C901BC
:105AA000D20180839183A283B3838301000F111FEE
:105AB000000F111F0E0D1F1D0859164FF701E95F4A
:105AC000F54F20813181428153815058C501B40185
:105AD0000E943D86D8016D937D938D939C9313977F
