:020000023000CC
:10E000000D9472F00D9491F00D9491F00D9491F0A7
:10E010000D9491F00D9491F00D9491F00D9491F078
:10E020000D9491F00D9491F00D9491F00D9491F068
:10E030000D9491F00D9491F00D9491F00D9491F058
:10E040000D9491F00D9491F00D9491F00D9491F048
:10E050000D9491F00D9491F00D9491F00D9491F038
:10E060000D9491F00D9491F00D9491F00D9491F028
:10E070000D9491F00D9491F00D9491F00D9491F018
:10E080000D9491F00D9491F00D9491F00D9491F008
:10E090000D9491F00D9491F00D9491F00D9491F0F8
:10E0A0000D9491F00D9491F00D9491F00D9491F0E8
:10E0B0000D9491F00D9491F00D9491F00D9491F0D8
:10E0C0000D9491F00D9491F00D9491F00D9491F0C8
:10E0D0000D9491F00D9491F00D9491F00D9491F0B8
:10E0E0000D9491F011241FBECFEFD1E2DEBFCDBF62
:10E0F00001E00CBF12E0A0E0B2E0ECE1F9EE02C0FA
:10E1000005900D92AC34B107D9F713E0ACE4B2E05E
:10E1100001C01D92A535B107E1F70F948EF10D9462
:10E120008DF40D9400F0EE27FF2709940895909147
:10E130004C02913019F0923041F008959091C00056
:10E1400095FFFCCF8093C60008959091C80095FF7D
:10E15000FCCF8093CE0008951F93982F95959595A9
:10E1600095959595905D182F1F701A304CF4105DA1
:10E17000892F0F9497F0812F0F9497F01F91089596
:10E18000195A892F0F9497F0812F0F9497F01F91B0
:10E19000089580914C02813001F1823011F080E0CD
:10E1A000089580E090E0DC012091C80027FD12C0B6
:10E1B0000196A11DB11D813422E492072FE0A20730
:10E1C00020E0B20788F3EE27FF2709942091C800CA
:10E1D00027FFEECF8091CE00089580E090E0DC0133
:10E1E0002091C00027FD12C00196A11DB11D8134F0
:10E1F00022E492072FE0A20720E0B20788F3EE277F
:10E20000FF2709942091C00027FFEECF8091C60020
:10E2100008951F930F94C9F0182F0F9497F011369B
:10E2200034F410330CF01053812F1F9108951755BB
:10E23000812F1F9108951F930F9409F1182F0F94A8
:10E2400009F11295107F810F1F91089520914C02C2
:10E25000882339F0213031F0223061F08150882359
:10E26000C9F708959091C00097FFFCCF9091C60028
:10E270008150F5CF9091C80097FFFCCF9091CE00D0
:10E280008150EDCF1F93182F0F94C9F0803261F0A9
:10E2900080914D028F5F80934D02853019F4EE27F7
:10E2A000FF2709941F91089584E10F9497F0812F1F
:10E2B0000F9497F080E10F9497F0F4CF0F94C9F08A
:10E2C000803261F080914D028F5F80934D028530E6
:10E2D00009F00895EE27FF270994089584E10F942B
:10E2E00097F080E10F9497F0089515C02F9A2FEFC3
:10E2F00031EE44E0215030404040E1F700C00000E2
:10E300002F982FEF31EE44E0215030404040E1F7AC
:10E3100000C000008150882349F70895EF92FF92D2
:10E320000F931F93DF93CF9300D00F92CDB7DEB73B
:10E33000000081E080934C021092C50080E1809340
:10E34000C4001092C00086E08093C20088E18093F0
:10E35000C1006898709A279A81E00F9475F10F9424
:10E36000C9F08033B9F18133C1F1803409F455C06B
:10E37000813409F459C0823409F468C0853409F441
:10E380006BC0803539F1823529F1813519F1853538
:10E3900009F468C0863509F470C0843609F479C080
:10E3A000843709F4E4C0853709F43EC1863709F49F
:10E3B00049C0813209F466C180914D028F5F80931C
:10E3C0004D02853061F6EE27FF2709940F94C9F0BE
:10E3D000803349F60F945EF1C2CF0F94C9F08032BA
:10E3E00059F784E10F9497F081E40F9497F086E554
:10E3F0000F9497F082E50F9497F080E20F9497F0D6
:10E4000089E40F9497F083E50F9497F080E50F94DB
:10E4100097F080E10F9497F0A2CF0F94C9F086385F
:10E42000C8F20F94C9F0D6CF0F94C9F0803809F420
:10E4300025C1813809F41EC1823809F441C18839E7
:10E4400009F407C180E00F9442F189CF84E10F9471
:10E4500026F10F945EF183CF85E00F9426F10F949F
:10E460005EF17DCF0F94C9F080934E020F94C9F0F6
:10E4700080934F020F945EF172CF0F94C9F08033F6
:10E4800009F4EBC083E00F9426F180E00F9442F191
:10E4900066CF0F94C9F0809351030F94C9F0809315
:10E4A0005003809154038E7F809354030F94C9F0DE
:10E4B000853429F4809154038160809354038091C2
:10E4C0005003909151030097A1F060E5E62E62E0C1
:10E4D000F62E00E010E00F94C9F0D7018D937D0176
:10E4E0000F5F1F4F80915003909151030817190738
:10E4F00090F30F94C9F0803209F05ECF80915403FD
:10E5000080FFF4C080914E0290914F02880F991FB6
:10E5100090934F0280934E0220915003309151030B
:10E5200021153105E9F040E5E42E42E0F42E00E04B
:10E5300010E0F70161917F010F947FF480914E020A
:10E5400090914F02019690934F0280934E020F5F7D
:10E550001F4F20915003309151030217130748F3C6
:10E5600084E10F9497F080E10F9497F0F8CE0F9428
:10E57000C9F0809351030F94C9F0809350038091A8
:10E580004E0290914F0297FD24C1209154032D7F9C
:10E5900020935403880F991F90934F0280934E024B
:10E5A0000F94C9F0853409F40EC1809154038E7F15
:10E5B000809354030F94C9F0803209F0D0CE84E1E7
:10E5C0000F9497F000E010E012C0E0914E02F0913D
:10E5D0004F0284910F9497F080914E0290914F02D8
:10E5E000019690934F0280934E020F5F1F4F8091D0
:10E5F0005003909151030817190738F5809154037F
:10E6000080FD62C081FFE1CF80914E0290914F0268
:10E61000A0E0B0E080509040AF4FBF4FABBFFC01D7
:10E6200087910F9497F0D8CF0F94C9F0803209F0FA
:10E63000C3CE84E10F9497F08EE10F9497F088E9B0
:10E640000F9497F081E00F9497F080E10F9497F08A
:10E6500086CE83E00F9442F182CE0F94C9F00F94DE
:10E66000C9F0082F0F94C9F0002309F4B8C0013095
:10E6700009F4B9C081E00F9442F171CE82E00F94A9
:10E6800042F16DCE0F94C9F0813209F068CE0F943B
:10E69000C9F0813209F063CE279A2F981092520365
:10E6A000E0E0F0E0E050FE4F8081882309F4A9C04B
:10E6B0000F9497F0E0915203EF5FE0935203F1CF94
:10E6C00080E10F9442F14BCE80914E0290914F0227
:10E6D0000F9477F40F9497F080914E0290914F022F
:10E6E000019690934F0280934E027FCF80914F020C
:10E6F00087FD7DC010925303809153038BBF80919F
:10E700004E0290914F02880F991F90934F02809371
:10E710004E028091500380FF09C080915003909178
:10E72000510301969093510380935003F894F99903
:10E73000FECF1127E0914E02F0914F02C0E5D2E0EA
:10E740008091500390915103103091F40091570043
:10E7500001700130D9F303E000935700E895009170
:10E76000570001700130D9F301E100935700E8959B
:10E77000099019900091570001700130D9F301E020
:10E7800000935700E8951395103898F011270091E1
:10E79000570001700130D9F305E000935700E89568
:10E7A0000091570001700130D9F301E10093570047
:10E7B000E8953296029709F0C7CF103011F0029613
:10E7C000E5CF1124CDCE8091540381608093540312
:10E7D000F1CE20915403226020935403DBCE8EE1CE
:10E7E0000F9442F1BCCD88E90F9442F1B8CD81E09D
:10E7F0008093530381CF1F9975C02F9A80E30F94A4
:10E8000097F08AE00F9497F08DE00F9497F08AE3E9
:10E810000F9497F080E20F9497F00F94C9F0082FAF
:10E820000F9497F0043739F3023771F10737A1F0ED
:10E83000053749F0023609F43EC00A3611F7EE27D3
:10E84000FF270994DECF0F94C9F00F9497F00F942F
:10E85000C9F00F9497F0F7CF0F94C9F00F9497F089
:10E860000F941BF1E82E0F941BF1082F0F94C9F0A1
:10E870000F9497F00F941BF1EC821B82EB81FC81CB
:10E88000E00FF11D8083BDCF0F94C9F00F9497F076
:10E890000F941BF1E82E0F941BF1082F8DE30F94BA
:10E8A00097F0EA821982E981FA81E00FF11D8081F7
:10E8B0000F94ACF0A6CF82E60F9497F085E70F9403
:10E8C00097F083E70F9497F080E885BF109274006B
:10E8D00010927500E0E0F1E181913097E9F7E0E016
:10E8E000F1E1FACF2F9881E30F9497F08ACFF9994D
:10E8F000FECF92BD81BDF89A992780B50895262F45
:10E90000F999FECF1FBA92BD81BD20BD0FB6F89414
:0CE91000FA9AF99A0FBE01960895FFCF05
:10E91C0041546D656761424F4F54202F2041726402
:10E92C0075696E6F204D65676132353630202D204C
:10E93C002843292041726475696E6F204C4C43202A
:10E94C006D6F646966696564206279204D4C532053
:0CE95C002D203130303530370A0D00809E
:040000033000E000E9
:00000001FF
