:100000000C94FF090C94A7760C94D8760C9409777D
:100010000C943A770C946B770C949C770C94CD7776
:100020000C94FE770C942C0A0C942C0A0C942C0A39
:100030000C942C0A0C942C0A0C942C0A0C942C0A68
:100040000C942C0A0C942C0A0C942C0A0C942C0A58
:100050000C94F3210C942C0A0C942C0A0C942F78F9
:100060000C942C0A0C94537B0C947B7C0C942C0ADF
:100070000C942C0A0C942C0A0C942C0A0C942C0A28
:100080000C942C0A0C942C0A0C942C0A0C942C0A18
:100090000C948C7B0C94C87C0C942C0A0C942C0A29
:1000A0000C942C0A0C942C0A0C942C0A0C942C0AF8
:1000B0000C942C0A0C942C0A0C942C0A0C942C0AE8
:1000C0000C942C0A0C942C0A0C942C0A0C94C57BCE
:1000D0000C94157D0C942C0A0C94FE7B0C94627D80
:1000E0000C942C0A084AD73B3BCE016E84BCBFFD62
:1000F000C12F3D6C74319ABD56833DDA3D00C77FF8
:1001000011BED9E4BB4C3E916BAAAABE0000008090
:100110003F05A84CCDB2D44EB93836A9020C50B91F
:10012000918688083CA6AAAA2ABE000000803F0744
:10013000634236B79BD8A71A39685618AEBAAB5582
:100140008C1D3CB7CC5763BD6DEDFD753EF6177247
:1001500031BF000000803F08000000BE9224491219
:100160003EABAAAA2ABECDCCCC4C3E00000080BE3D
:10017000ABAAAAAA3E00000000BF000000803F001A
:1001800000000000084178D3BB4387D1133D190E0E
:100190003CC3BD4282AD2B3E68EC8276BED98FE176
:1001A000A93E4C80EFFFBE01C4FF7F3F000000006E
:1001B000004F4E004F464600435700434357004F01
:1001C0006E004F666600004D6F766520547970654D
:1001D00000436F6E74696E756F757300532D4D2DEE
:1001E000530054696D656C61707365004379636C8D
:1001F000650052756E007E0053686F77005365741A
:1002000074696E67730047454E00434F4E004D546E
:10021000520043414D00646567000053706565649A
:1002200000446972656374696F6E004D6F746F721C
:1002300020536C656570005265636F7264004361A2
:100240006D20547970650046697265205465737439
:100250002053686F740000496E666F726D61746937
:100260006F6E0044697374616E636500667073003D
:100270005265632074696D6500506C617942205449
:10028000696D6500506C617942204650530053748B
:1002900061727420486F6D65004578706F73757278
:1002A000650073686F742023006E6F206C696D6940
:1002B00074003A004272696768746E657373006215
:1002C0002D6C6967687420746D004D6F746F7220B7
:1002D00044656C61790043616D2044656C6179000F
:1002E0005363726C2052616D70004D6F746F722099
:1002F0005479706500676F20686F6D650053657491
:1003000020486F6D650048445200427261636B651E
:10031000740042756C622052616D700046697273A0
:100320007420457870004C617374204578700056D5
:100330006964656F005365747570002D2D2D2D2D2A
:100340000052616D7000526573657420536574745A
:10035000696E6773005363726C2052616D70005355
:1003600063726C205370656564006D73004B657932
:100370006672616D6573002500636D00636D2F7398
:1003800000726576004465766963652F4D6F740071
:100390006D696E0073002F00496E666F726D617437
:1003A000696F6E006D696E69456E67696E650043C1
:1003B000696E654D6F636F2076322E31004465762D
:1003C000656C6F706572732028696E00616C706176
:1003D00068616265742E206F72646572293A00410B
:1003E00069726963204C656E7A2C00416C7661728B
:1003F0006F63616C766F2C00432E412E204368752D
:100400007263682C00457269632050616B2C004A4E
:10041000757374696E204A656E73656E2C004B614E
:10042000726C204D63446F6E616C642C004D617280
:1004300063204C616E652E00436865636B206F75A9
:10044000740063696E65746963732E636F6D206FEA
:10045000720061697269636C656E7A2E636F6D00FC
:10046000555342204D6F6465005072657373205B75
:1004700053454C4543545D20746F0072657374613D
:100480007274207468652043696E654D6F636F00F8
:10049000616E6420676574206261636B20746F20F5
:1004A00074686500757375616C2043696E654D6F86
:1004B000636F206D6F64652E00004D6F746F722046
:1004C000686F6D6500706F736974696F6E20697312
:1004D000206E6F77207365742E00506C65617365B4
:1004E0002077616974207768696C65006D6F746F3F
:1004F00072206973206D6F76656420746F00686F79
:100500006D6520706F736974696F6E2E2E2E004DAD
:100510006F746F7220686F6D6520706F7369746996
:100520006F6E00726561636865642E005265736565
:10053000742073657474696E677300416C6C20631A
:100540007573746F6D2073657474696E677300647E
:10055000656C657465642E2053797374656D2077BE
:10056000696C6C007265626F6F74206E6F772E2EEF
:100570002E00436861696E204944004D61737465C3
:100580007200446576696365200044616973792D62
:10059000636861696E696E67005570646174652097
:1005A000436861696E007E20757064617465210026
:1005B00023204F662053686F7473002B2F2D20006B
:1005C00043616E6F6E004E696B6F6E00537973748A
:1005D000656D000053686F7720737570706C7900DB
:1005E0003C3D20312F31357300312F3133730031D1
:1005F0002F31307300312F387300312F36730031B3
:100600002F357300312F34730000736877206578BD
:10061000747077720053706565640052616D70206C
:10062000496E0052616D70204F7574004469737497
:10063000616E636500564944454F004D6F76650015
:10064000828200818100536574205374617274202A
:10065000506F696E740053657420456E6420506F4E
:10066000696E7400476F20746F2053746172740058
:100670004B65796672616D657300506F736974695B
:100680006F6E206973206E6F77207365742E005033
:100690006C656173652077616974207768696C6542
:1006A000006D6F746F72206973206D6F76656420C2
:1006B000746F006B657920706F736974696F6E2E4B
:1006C0002E2E004B657920706F736974696F6E0010
:1006D000726561636865642E000080207E00546846
:1006E0006973206B657920776173206E6F74007376
:1006F00065742079657421004E6F7420616C6C20E4
:100700006B65796672616D657300776572652073DC
:10071000657421005379737420536C656570004BC8
:1007200065657020506F776572656400476F20744F
:100730006F20456E64005570646174696E67206354
:100740006861696E696E6700646174612E20546827
:100750006973206D696768740074616B6520736FDD
:100760006D65207365636F6E64732E2E2E00446575
:1007700076002D2D00426F756E63696E67007E20D6
:10078000616C6C0052656769737465726564206999
:100790006E0074686520636861696E2E2E2E0045B8
:1007A0006E67696E6520707265706172696E672E22
:1007B0002E2E005768696C652077616974696E67D1
:1007C00020666F72007468652063656E7472616C78
:1007D0002073796E63007369676E616C2C20707290
:1007E00065737320506C617900746F20737461724B
:1007F00074206D616E75616C6C792E0053746F702E
:100800002D6D6F74696F6E00506C6561736520505B
:100810005245535320504C415900746F20636F6E02
:1008200074696E7565207769746800746865206EF8
:100830006578742073686F742E00446F7562626C03
:10084000652D707265737320746F0073746F702000
:100850007265636F7264696E672E0053746172749F
:1008600020555342204D6F646500000000B101B473
:1008700001B801BB01BF01C201C601C701D101DC42
:1008800001E201EC01F201F601F801FD0106020AA4
:10089000020E02120216021A021B0221022B02375A
:1008A000023E0247025602570263026C027002794E
:1008B0000284028E029902A202A902B202B402BF0D
:1008C00002CA02D602E002EA02F502FD0206030AAB
:1008D0000312031C0326032F0335033B0341034686
:1008E0000355035F036A036D03770379037C038178
:1008F0000385039003940396039803A403AF03BDF9
:1009000003CC03DF03EB03F80305040F041E042DDF
:1009100004380442045204600469047B049004A473
:1009200004B904BA04C504DA04EC04FE040F052378
:10093000052C053B054F05640572057B0582058A7C
:10094000059905A605B005BB05C005C605CC05D3B0
:1009500005D405E005E905EF05F505FA05FF0504F1
:100960000609060A0615061B0623062C0635063B55
:10097000064006430646065606640670067A068F4B
:1009800006A106B306C306D006D906DA06DE06EFD0
:1009900006F8060A0714071F072C073607480759E9
:1009A000076E07720775077E07840792079F07B3D4
:1009B00007C507D607E907FC0708081A082B083AF5
:1009C000084B085B086A086B086C080C087F5555D3
:1009D000555555D5D555557F0005081C3FFC3F1C86
:1009E0000508FE030103FE5D002F002F20002F20CD
:1009F00020005B005B20005B2020005B005B200090
:100A00005B2020005B20202000202020434F4D5001
:100A10004C45544520202000505245535320504C03
:100A2000415920544F20454E440042617474657210
:100A30007900426174746572790053686F6F740055
:100A4000494E2050524F47524553532E2E2E008070
:100A50003000000000000000000000000000000066
:100A6000C0E0E0F07070F0E0E0C00000EEEEEE00FC
:100A7000E0E0E0F0F07070F0E0E0C0000080C0E086
:100A8000E0707070E0E0C0800000FFFFFFFFFEF04C
:100A900080000080F0FEFFFFFFFF0000C0E0E0E00C
:100AA0007070E0E0E0C080000080C0E0E0F07070B6
:100AB000E0E0C080000080C0E0E0707070E0E0C066
:100AC00080000000000000000000000000000000A6
:100AD0000000000000000000000000000000003FD7
:100AE000FFFFE3C08080C0E1E1E12100FFFFFF00E4
:100AF000FFFFFFFF00000000FFFFFF003EFFFFFFC2
:100B0000CE8E8E8E8ECFCFCF0E00FFFFFF00073F21
:100B1000FFFCFCFF3F0700FFFFFF003FFFFFE380FC
:100B2000808080C1FFFF7F000C7FFFFFC18080803D
:100B3000C0E1E161001EFFFFFFC0808080C0FFFFB9
:100B4000FF1E000000000000000000000000000088
:100B5000000000000000000000000000000000C0D5
:100B6000C0C1C3C3C3C3C3C3C1C0C0C0C3C3C3C068
:100B7000C3C3C3C3C0C0C0C0C3C3C3C0C0C0C1C15E
:100B8000C3C3C3C3C3C3C1C0C0C0C3C3C3C0C0C049
:100B9000C1C3C3C1C0C0C0C303030000000103033D
:100BA000030303030100000000000101030303032A
:100BB000030101000000000101030303030301011D
:100BC0000000000000000000000000000000000025
:100BD000000000000000000000000000000000C74E
:100BE000C7C7C7C7C7C7C7C7C7C7C7C7C7C7C7C795
:100BF000C7C7C7C7C7C7C7C7C7C7C7C7C7C7C7C785
:100C0000C7C7C7C7C7C7C7C7C7C7C7C7C7C7C7C774
:100C1000C7C7C7C7C7C7C7C70000000000061EFE7A
:100C2000F08080F0FE1E06000000000000000000C2
:100C300000000000000000000000000000000000B4
:100C400000000000000000000000000000000000A4
:100C5000000000000000000000000000000000078D
:100C60000707070707070707070707070707070714
:100C70000707070707070707070707070707070704
:100C800007070707070707070707070707070707F4
:100C9000070707070707070700000000000000001C
:100CA0000307070300000000000000000000000030
:100CB0000000000000000000000000000000000034
:100CC0000000000000000000000000000000000024
:100CD0000000000000000000000000000000000014
:100CE00070888890FE0000F810080810000088FA4C
:100CF0008000003840804038000070A8A8A830006C
:100D000000F8100808F000000000000000FE9088C5
:100D10008870000018A0A0A078000000000000006B
:100D2000F8083008F000000088FA80000000F81091
:100D30000808F000000088FA80000000FE929292FD
:100D40008200000000000000000000000000000021
:100D50000010880A14201A000A0A0A0A0A0A0A0A53
:100D60000A0A0A02050207090508080A080909090A
:100D7000090000000000000000000000000000006A
:100D80000000000000000000000000000000000063
:100D90000000000000000000000000000000000053
:100DA0000000000000000000000000000000000043
:100DB0000000000000000000000000000000000033
:100DC0000000000000000000000000000000000023
:100DD0000000000000000000000000000000000013
:100DE0000000000000000000000000000000000003
:100DF00000000000000000000000000000000000F3
:100E000000000000000000000000000000000000E2
:100E100000000000000000000000000000000000D2
:100E200000000000000000000000000000000000C2
:100E300000000000000000000000000000000000B2
:100E400000000000000000000000000000000000A2
:100E50000000000000000000000000000000000092
:100E60000000000000000000000000000000000082
:100E70000000000000000000000000000000000072
:100E80000000000000000000000000000000000062
:100E90000000000000000000000000000000000052
:100EA0000000000000000000000000000000000042
:100EB00000000000000000000000000000E06010E2
:100EC0000000000000000202020202000000000018
:100ED00000006060000000000080F01C0680701EB2
:100EE0000300000000000000000000E0F81C0C0CF3
:100EF0000C1CF8E00F3F70606060703F0F00000056
:100F0000000000000000203018FCFC0000007F7F83
:100F1000000000000030381C0C0C0CFCF8607078ED
:100F20007C6E6763600000000000000000181C8CED
:100F30008C8CCC78303070616161733E1C00000095
:100F40000000000000000080C0603018FCFC000EB3
:100F50000F0D0C0C0C0C7F7F0C000000000000003B
:100F600000000000FCFC8C8C8C0C0C307161616109
:100F7000733F1E0000000000000000C0F038988C95
:100F80008C8C0C001F3F73616161733F1E00000079
:100F90000000000000000C0C0C0C0CCCFC3C0C0005
:100FA00040703C0F03000000000000000000000043
:100FB0000030F8CC8C8C8CCCF8301C3E63616161C5
:100FC000633E1C000000000000000000F0F89C0CD4
:100FD0000C0C1CF8E000416363333B1F0F0300005F
:100FE0000000000000000000000507206300000072
:100FF000000000005F00000007000700147F147F5E
:1010000014242A7F2A122313086462364955225079
:101010000005030000001C2241000041221C0008C2
:101020002A1C2A0808083E0808005030000008085A
:10103000080808006060000020100804023E5149C2
:10104000453E00427F400042615149462141454BA7
:10105000311814127F1027454545393C4A4949301B
:1010600001710905033649494936064949291E00D7
:1010700036360000005636000000081422411414D1
:10108000141414412214080002015109063249794E
:10109000413E7E1111117E7F494949363E41414111
:1010A000227F4141221C7F494949417F09090101B1
:1010B0003E414151327F0808087F00417F410020B6
:1010C00040413F017F081422417F404040407F0261
:1010D00004027F7F0408107F3E4141413E7F0909A1
:1010E00009063E4151215E7F091929464649494971
:1010F0003101017F01013F4040403F1F2040201F40
:101100007F2018207F6314081463030478040361AC
:101110005149454300007F414102040810204141EC
:101120007F000004020102044040404040000102F0
:10113000040020545454787F48444438384444448C
:1011400020384444487F3854545418087E0901021A
:10115000081454543C7F0804047800447D40002067
:1011600040443D00007F10284400417F40007C0443
:101170001804787C0804047838444444387C1414F7
:101180001408081414187C7C0804040848545454A7
:1011900020043F4440203C4040207C1C2040201C38
:1011A0003C4030403C44281028440C5050503C44B3
:1011B00064544C44000836410000007F00000041A8
:1011C00036080008083E1C08081C3E08081020408D
:1011D0003806007F3E1C08081C3E7F002E000000E1
:1011E0002100240027002A002D00300033000101D7
:1011F0000000040107010A01000022002500280068
:101200002B002E003100340002010000050108010E
:101210000B01000020002300260029002C002F00D5
:101220003200000100000301060109010505050562
:10123000070508080808020202020A0A080804044E
:10124000040401010101010101010303030303037C
:101250000303040707070C0C0C0C0C0C0C0C02020B
:10126000020206060606060606060B0B0B0B0B0B08
:101270000B0B010210202008081020401020408095
:10128000020102010804020101020408102040804A
:1012900080402010080402018004020180402010D8
:1012A0000804020108040201010204081020408021
:1012B00001020408102040800000090A02080B0CFB
:1012C0000D070603040100000000000000000000FC
:1012D000000000000000000000000000000000000E
:1012E0000000000011100F000000000000000000CE
:1012F00000000000000000000000000000000040AE
:101300007A10F35A00A0724E18090010A5D4E80014
:1013100000E87648170000E40B54020000CA9A3B2C
:10132000000000E1F50500008096980000004042B2
:101330000F000000A0860100000010270000000040
:10134000E803000000006400000000000A00000044
:1013500000000100000000002C76D888DC674F08F0
:1013600023DFC1DFAE59E1B1B796E5E3E453C63AF6
:10137000E651997696E8E6C28426EB898C9B62ED6D
:10138000407C6FFCEFBC9C9F40F2BAA56FA5F49027
:10139000055A2AF75C936B6CF9676DC11BFCE0E49E
:1013A0000D47FEF520E6B500D0ED902E03009435F4
:1013B00077050080841E080000204E0A000000C847
:1013C0000C333333330F986E12831141EF8D211498
:1013D000893BE65516CFFEE6DB18D1844B381BF768
:1013E0007C1D901DA4BBE424203284725E22810007
:1013F000C9F124ECA1E53D274D1F556CDC7E11247D
:101400001FBECFEFD1E2DEBFCDBF00E00CBF14E0C6
:10141000A0E0B2E0ECE6FDE001E00BBF02C0079007
:101420000D92A431B107D9F71BBE1CE0A4E1B4E0D2
:1014300001C01D92A53EB107E1F713E1CEEFD3E164
:1014400004C02297FE010E947986C83FD107C9F7E0
:101450000E94FA7F0C94B4860C940000EF92FF92E5
:101460000F931F93F22FF02E47FD02C0E4E001C05E
:10147000E4E1242F332727FD309537FF03C0309553
:1014800021953F4F4F2D512F0F2FEE2E92D38F2DA1
:10149000912F1F910F91FF90EF900895CF93DF93BD
:1014A000BC018230910510F462E070E0A091E30C81
:1014B000B091E40CED01E0E0F0E040E050E021C04C
:1014C000888199818617970769F48A819B81309773
:1014D00019F09383828304C09093E40C8093E30C0F
:1014E000FE0134C06817790738F44115510519F029
:1014F0008417950708F4AC01FE018A819B819C0149
:10150000E9012097E9F641155105A9F1CA01861BA9
:10151000970B049708F4BA01E0E0F0E02AC08D913F
:101520009C91119784179507F9F46417750781F456
:1015300012968D919C911397309719F09383828323
:1015400004C09093E40C8093E30CFD0132964CC0F0
:10155000CA01861B970BFD01E80FF91F6193719378
:1015600002978D939C9340C0FD01828193819C01E1
:10157000D9011097A1F68091E10C9091E20C892B92
:1015800041F48091B8029091B9029093E20C80935B
:10159000E10C4091BA025091BB024115510541F452
:1015A0004DB75EB78091B6029091B702481B590BB8
:1015B0002091E10C3091E20CCA01821B930B86173B
:1015C000970780F0AB014E5F5F4F8417950750F08F
:1015D000420F531F5093E20C4093E10CF9016193C9
:1015E000719302C0E0E0F0E0CF01DF91CF91089568
:1015F000CF93DF93009709F450C0EC0122971B8230
:101600001A82A091E30CB091E40C109709F140E02C
:1016100050E0AC17BD0708F1BB83AA83FE012191FE
:101620003191E20FF31FAE17BF0779F48D919C91B2
:101630001197280F391F2E5F3F4F39832883129649
:101640008D919C9113979B838A834115510571F469
:10165000D093E40CC093E30C20C012968D919C9122
:101660001397AD01009711F0DC01D3CFFA01D383BA
:10167000C28321913191E20FF31FCE17DF0769F486
:1016800088819981280F391F2E5F3F4FFA013183DE
:1016900020838A819B8193838283DF91CF910895F8
:1016A000A0E0B0E0E6E5FBE00C948586EC01A880C4
:1016B000B980CA80DB80A114B104C104D10441F413
:1016C00084E2A82E89EDB82E8BE5C82E87E0D82EAF
:1016D000C601B5012DE133EF41E050E00E945C8688
:1016E00027EA31E440E050E00E94E8857B018C016C
:1016F000C601B5012DE133EF41E050E00E945C8668
:10170000CA01B9012CEE34EF4FEF5FEF0E94E8857C
:101710006E0D7F1D801F911F97FF04C061507040A8
:1017200080409048688379838A839B839B01AC01C6
:101730005F77B901CA01CDB7DEB7EAE00C94A186A4
:10174000AFCF8CEB92E0ACCF6093BC027093BD0244
:101750008093BE029093BF020895FB01DC010590C7
:101760000D920020E1F70895FB01DC010D900020AF
:10177000E9F7119701900D920020E1F70895FB0120
:10178000DC0101900D920020E1F70895FB019F011B
:10179000E8944230C4F04532B4F44A3029F497FB5F
:1017A0001EF4909581959F4F642F77270E94138692
:1017B000805D8A330CF0895D8193CB010097A1F79E
:1017C00016F45DE251931082C90142C4AEE0B0E06C
:1017D000ECEEFBE00C948B860E891F8986E08C83EF
:1017E0001A8309838FEF9FE79E838D839E01265E78
:1017F0003F4FCE010196688D798DA9010AD02F81C6
:101800003885020F131FF80110822E96E4E00C9425
:10181000A786ABE0B0E0EFE0FCE00C947D863C01F5
:101820002B015A01FC0117821682838181FD03C0BE
:101830006FEF7FEFB9C19AE0892E1E010894211C39
:10184000311CF3012381F20123FD859123FF819156
:101850002F01882309F4A5C1853239F423FD859130
:1018600023FF81912F01853221F490E0B30100D450
:10187000E8CF982FFF24EE249924FFE1FF15D0F044
:101880009B3269F09C3228F4903259F0933291F4F3
:101890000EC09D3249F0903369F441E024C052E01B
:1018A000F52A84E0F82A28C098E0F92A25C0E0E16A
:1018B000FE2A22C0F7FC29C0892F80538A3070F499
:1018C000F6FE05C0989C902C1124980E15C0E89C3B
:1018D000E02C1124E80EF0E2FF2A0EC09E3229F41B
:1018E000F6FC5FC140E4F42A07C09C3619F450E8C6
:1018F000F52A02C0983649F4F20123FD959123FFA1
:1019000091912F01992309F0B8CF892F8554833005
:1019100018F08052833038F444E050E0A40EB51E35
:101920005FE359830FC0933631F0933779F09335E5
:1019300009F052C01FC0F5018081898342E050E068
:10194000A40EB51E610101E010E011C0F501C080D8
:10195000D180F6FC03C06FEF7FEF02C0692D70E00D
:1019600042E050E0A40EB51EC60167D38C015FE7CC
:10197000F52213C0F501C080D180F6FC03C06FEFE3
:101980007FEF02C0692D70E042E050E0A40EB51E6A
:10199000C60148D38C0150E8F52AF3FE06C018C0F2
:1019A00080E290E0B30164D3EA948E2D90E00817B2
:1019B0001907B0F30DC0F601F7FC8591F7FE819190
:1019C0006F0190E0B30154D3E110EA94015010404C
:1019D0000115110581F7E2C0943611F0993661F5D1
:1019E000F7FE08C0F501208131814281538184E0F6
:1019F00090E00AC0F501808191819C01442737FD68
:101A00004095542F82E090E0A80EB91E9FE6F9227F
:101A100057FF09C050954095309521953F4F4F4F46
:101A20005F4FE0E8FE2ACA01B901A1012AE030E0D7
:101A30004BD3D82ED2183FC0953729F41F2D1F7EC7
:101A40002AE030E01DC01F2D197F9F3661F09037CE
:101A500020F4983509F0A5C00FC0903739F09837B9
:101A600009F09FC004C028E030E00AC0106114FDF6
:101A7000146020E130E004C014FD166020E132E083
:101A800017FF08C0F501608171818281938144E074
:101A900050E008C0F50180819181BC0180E090E0B8
:101AA00042E050E0A40EB51EA1010ED3D82ED218EC
:101AB0008FE7F82EF122F6FE0BC05EEFF522D91467
:101AC00038F4F4FE07C0F2FC05C08FEEF82202C025
:101AD0001D2D01C0192DF4FE0DC0FE01ED0DF11DEF
:101AE0008081803319F499EEF92208C01F5FF2FE5D
:101AF00005C003C08F2D867809F01F5F0F2DF3FC02
:101B000013C0F0FE0EC01E1510F09D2C0AC09D2CB7
:101B10009E0C911A1E2D05C080E290E0B301A8D260
:101B20001F5F1E15C8F304C01E1510F4E11A01C092
:101B3000EE2404FF0EC080E390E0B30199D202FFCF
:101B40001BC001FD03C088E790E00EC088E590E06F
:101B50000BC0802F867881F001FF02C08BE201C0AC
:101B600080E2F7FC8DE290E0B30182D205C080E311
:101B700090E0B3017DD29A94D914C8F3DA94F101BC
:101B8000ED0DF11D808190E0B30172D2DD20B1F73F
:101B900005C080E290E0B3016BD2EA94EE20C9F771
:101BA00050CEF30166817781CB012B96E2E10C9454
:101BB0009986A9E0B0E0EFEDFDE00C9481866A0122
:101BC000122FA02EBE2C2BE3201718F42CE3922EFC
:101BD00002C0902E9394AE014F5F5F4F27E0092D16
:101BE00049D1BC018981E82EFF24C701897090701A
:101BF000019711F4ADE209C0B1FE02C0ABE205C02D
:101C0000B0FC02C0A0E001C0A0E2E3FE3BC0AA23FA
:101C100011F423E001C024E0211710F020E002C0FD
:101C2000121B212FEB2CB4FE02C0322F0AC0F6018A
:101C3000322F80E202C0819331503323E1F7C20E8C
:101C4000D11CAA2319F0F601A1936F01F601319678
:101C5000E2FE05C09EE4D6019C9381E404C09EE6AA
:101C6000D6019C9381E611968C9391833296DF0185
:101C7000832F90E202C09D9381508823E1F7E30F08
:101C8000F11D40C0E2FE42C0AA2311F423E001C0CE
:101C900024E0211710F020E002C0121B212FEB2CB2
:101CA000B4FE02C0922F0AC0F601922F80E202C059
:101CB000819391509923E1F7C20ED11CAA2319F008
:101CC000F601A1936F01F6013196E2FE08C089E4A6
:101CD000D6018C938EE411968C9386E407C089E636
:101CE000D6018C938EE611968C9386E6818332968C
:101CF000DF01892F20E202C02D9381508823E1F774
:101D0000E90FF11D10822EEF3FEFAFC01616170638
:101D10001CF041E050E003C0AB014F5F5F4FAA20D1
:101D200019F480E090E003C08A2D90E0019620E055
:101D300030E0AA2311F021E030E0240F351F280FF6
:101D4000391F812F90E02817390714F020E002C0D6
:101D5000121B212F4B2D50E0CA0180719070B4FCF2
:101D60000DC0B3FC0BC0F601322F40E202C041931C
:101D700031503323E1F7C20ED11C01C0322FAA2308
:101D800019F0F601A1936F01892B11F0132F0AC0EE
:101D9000F601132F80E302C0819311501123E1F764
:101DA000C30ED11C092D060FBA8090E1892E912C0B
:101DB0008E209F20E4FE04C0F1E3BF1609F4015019
:101DC000101614F001E003C0093008F008E09B0190
:101DD00077FF02C020E030E0CB010196821B930B1D
:101DE000FE013196E80FF91F8EE2F82E3B01601AD2
:101DF00071088A2D90E044275527481B590B8FEF17
:101E00002F3F380719F4D601FD926D016217730751
:101E10002CF06216730614F4808101C080E3215017
:101E2000304031962417350724F0D6018D936D018B
:101E3000E6CF2617370749F4B5E3BB1528F0BB16E4
:101E400021F48114910409F481E3F6018193D60110
:101E5000812F90E202C09C93815011968823D9F77C
:101E6000E10FF11D108220E030E0C9012996EEE07B
:101E70000C949D86283008F027E03327DA01990F6B
:101E8000311D87FD916000966105710539F432605E
:101E90002E5F3D9330E32A95E1F708959F3F30F0A0
:101EA00080387105610509F03C5F3C5F3D939130DE
:101EB00008F08068911DDF93CF931F930F93FF92DB
:101EC000EF92192F987F9695E92F96959695E90FA1
:101ED000FF27E85AFC4E99273327EE24FF24A70159
:101EE000E70105900894079428F4360FE71EF81EC2
:101EF000491F511D660F771F881F991F0694A1F770
:101F00000590079428F4E70EF81E491F561FC11DBF
:101F1000770F881F991F661F0694A1F705900794F5
:101F200028F4F80E491F561FC71FD11D880F991F8F
:101F3000661F771F0694A1F70590079420F4490FB8
:101F4000561FC71FD81F990F661F771F881F06943B
:101F5000A9F784911095177041F0D695C7955795BC
:101F60004795F794E7941A95C1F7EEEFF2E168947C
:101F70001590159135916591959105907FE2739536
:101F8000E118F10A430B560BC90BD009C0F7E10C5D
:101F9000F11E431F561FC91FD01D7EF4703311F46C
:101FA0008A95E6CFE894015030F0080F0AF4002734
:101FB000021708F4202F2395022F7A3328F079E3B3
:101FC0007D932A95E9F710C07D932A9589F60694AA
:101FD00097956795379517951794E118F10A430B74
:101FE000560BC90BD00998F023957E9173957A33DF
:101FF00008F070E37C932013B8F77E9170617D93B5
:1020000030F0839571E37D9370E32A95E1F7112415
:10201000EF90FF900F911F91CF91DF91992787FD4E
:1020200090950895FC010590615070400110D8F71B
:10203000809590958E0F9F1F0895FC016150704010
:1020400001900110D8F7809590958E0F9F1F0895ED
:10205000DC01FC01672F71917723E1F7329704C00F
:102060007C916D9370836291AE17BF07C8F308959A
:102070000F931F93CF93DF938C01EB018B8181FF33
:102080001BC082FF0DC02E813F818C819D8128174E
:10209000390764F4E881F9810193F983E88306C084
:1020A000E885F985802F1995892B31F48E819F81E0
:1020B00001969F838E8302C00FEF1FEFC801DF914F
:1020C000CF911F910F910895FA01AA27283051F15D
:1020D000203181F1E8946F936E7F6E5F7F4F8F4F59
:1020E0009F4FAF4FB1E03ED0B4E03CD0670F781FB8
:1020F000891F9A1FA11D680F791F8A1F911DA11D9D
:102100006A0F711D811D911DA11D20D009F46894D5
:102110003F912AE0269F11243019305D3193DEF67D
:10212000CF010895462F4770405D4193B3E00FD033
:10213000C9F7F6CF462F4F70405D4A3318F0495D1E
:1021400031FD4052419302D0A9F7EACFB4E0A69501
:102150009795879577956795BA95C9F70097610523
:10216000710508959B01AC010A2E06945795479579
:1021700037952795BA95C9F7620F731F841F951F6E
:10218000A01D0895EF92FF920F931F936091C502D7
:102190007091C6028091C7029091C8020E94BD82D0
:1021A0007B018C0160912B0470912C0480912D0493
:1021B00090912E040E94BD829B01AC01C801B70121
:1021C0000E94248220E030E04AE754E40E94E18348
:1021D0000E9491829B01AC0160931F0470932004C4
:1021E00080932104909322048091D1029091D20295
:1021F000A091D302B091D402281739074A075B0790
:1022000040F42093D1023093D2024093D3025093F2
:10221000D4021F910F91FF90EF9008952F923F925B
:102220004F925F926F927F928F929F92AF92BF92E6
:10223000CF92DF92EF92FF920F931F93DF93CF9392
:1022400000D00F92CDB7DEB73C018FEF90E0689ED3
:10225000B001699E700D789E700D1124FB01E35250
:10226000F74FDF01A751BF4FE351FF4F208131816D
:10227000428153818D919D910D90BC91A02D281785
:1022800039074A075B0709F43FC1FB01E152F74FE9
:1022900080E090E020E030E040E050E020833183B7
:1022A0004283538320AF31AF42AF53AF148E158EAC
:1022B000168E178E019634968730910579F78FEF39
:1022C00090E0689E8001699E100D789E100D11248B
:1022D0000352174F05501F4FD8016D917D918D917D
:1022E0009C9120E030E040EA51E40E94E1832FE637
:1022F00032E143E852E40E9424826B017C010650E3
:102300001040D8018D919D910D90BC91A02D898395
:102310009A83AB83BC83F801B290A2909290829092
:10232000C701B601A50194010E94D683181614F4C2
:10233000750164018FEF90E0689EF001699EF00DD9
:10234000789EF00D1124EB53F64F8081882321F401
:10235000F7FAF094F7F8F094C701B60129813A81B1
:102360004B815C810E9424821B012C01E89457F868
:102370008FEF90E0689EF001699EF00D789EF00D61
:102380001124E352F74F2282338244825582E7516F
:10239000FF4F80819181A281B381E95EF040868FF9
:1023A000978FA0A3B1A3C2AED3AEE4AEF5AEC70182
:1023B000B60120E030E040E050E00E94D6831816DD
:1023C0004CF489819A81AB81BC81B05889839A830E
:1023D000AB83BC838FEF90E0689E8001699E100DF7
:1023E000789E100D11240352174F56E5652E712C5F
:1023F000600E711E89819A81AB81BC81F30180835B
:102400009183A283B3830F2EF0E08F2EF0E09F2EF6
:10241000F0E0AF2EF0E0BF2EF02DD80116968D9291
:102420009D92AD92BC9219975E966D917D918D9122
:102430009C9191970E94BF826B017C01C201B10106
:10244000F80122AD33AD44AD55AD0E94E1839B014F
:10245000AC01C701B6010E9491816B017C016981C9
:102460007A818B819C8120E030E040E05FE30E9434
:10247000E183A20191010E94E183A20191010E94E6
:10248000E1839B01AC01C701B6010E9491810E94CA
:102490008C826B017C01D80192966D937D938D9314
:1024A0009C939597025C1F4FF80180829182A282D3
:1024B000B382045E1F4FD8018D929D92AD92BC9263
:1024C0001397F301608171818281938120E030E074
:1024D00040E05FE30E94E183D3016D937D938D9390
:1024E0009C9313970D561F4FF801C082D182E28250
:1024F000F38209501040D8018D929D92AD92BC920A
:102500001397F801129212920F900F900F900F9064
:10251000CF91DF911F910F91FF90EF90DF90CF90BF
:10252000BF90AF909F908F907F906F905F904F90F3
:102530003F902F90089580E090E070CE6F927F9250
:102540008F929F92AF92BF92CF92DF92EF92FF92C3
:102550000F931F93CF93DF938091D608882319F0B0
:102560001092D608E8DF1092D7091092D6090F2EE4
:10257000F0E0CF2EF0E0DF2EF0E0EF2EF0E0FF2EC7
:10258000F02DC092D809D092D909E092DA09F092E0
:10259000DB091091D80810FF0AC18090BF09909004
:1025A000C009E401CC0FDD1FCC0FDD1FC152D74F96
:1025B000688179818A819B81A70196010E941D8291
:1025C000882361F4C092D809D092D909E092DA093F
:1025D000F092DB091E7F1093D808E9C06091C10911
:1025E0007091C2098091C3099091C4092DEC3CEC13
:1025F0004CE45DE30E9491817B018C016093C109F1
:102600007093C2098093C3099093C409A880B980CC
:10261000CA80DB80A60195010E94D6838823ACF096
:10262000C801B701A60195010E9490816093C1097C
:102630007093C2098093C3099093C409C4010196A1
:102640009093C0098093BF094C01C090C109D090FC
:10265000C209E090C309F090C4098401000F111F62
:10266000000F111F0352174FF801668D778D80A15F
:1026700091A10E94BF824B015C01C701B601F80124
:1026800022AD33AD44AD55AD0E94E1839B01AC0159
:10269000C501B4010E9491814B015C010A5A1F4F90
:1026A000C701B601F80120813181428153810E9426
:1026B000E183A70196010E94E1839B01AC01C50162
:1026C000B4010E9491810E948C823B014C01809157
:1026D000C6099091C709A091C809B091C9096401C0
:1026E0005301A81AB90ACA0ADB0AD7FE08C0D09457
:1026F000C094B094A094A11CB11CC11CD11CC601F3
:10270000B5010E94BF8223E333E343E852E40E9411
:10271000E1837B018C0120E03FEF4FE757E40E940B
:10272000D6831816ACF0C801B70120E030E040E8CD
:102730005FE30E941D828823ACF40F2EF0E0EF2EA1
:10274000F0E0FF2EF0E80F2FFFE31F2FF02D0AC05F
:102750000F2EF0E0EF2EFFEFFF2EFFE70F2FF7E435
:102760001F2FF02DE092D809F092D9090093DA09D1
:102770001093DB09B092D709A092D60920E080918E
:10278000C6099091C709A091C809B091C9098615D9
:102790009705A805B9050CF421E02093C5096092BE
:1027A000C6097092C7098092C8099092C90981E050
:1027B0008093D208DF91CF911F910F91FF90EF90FE
:1027C000DF90CF90BF90AF909F908F907F906F9051
:1027D00008952F923F924F925F926F927F928F92C5
:1027E0009F92AF92BF92CF92DF92EF92FF920F93A0
:1027F0001F93DF93CF93CDB7DEB760970FB6F894F2
:10280000DEBF0FBECDBF8C0149875A876B877C879F
:102810003E872D878FEF90E0089FF001099FF00D14
:10282000189FF00D1124EB53F64F8081882359F443
:102830000F2EF0E0CF2EF0E0DF2EF0EAEF2EF1ECDD
:10284000FF2EF02D0AC00F2EF0E0CF2EF0E0DF2E8D
:10285000F0EAEF2EF1E4FF2EF02D8FEF90E0089FCD
:102860009001099F300D189F300D11242352374FCE
:1028700025503F4FD9012D903D904D905C902251B5
:102880003040D9018D919D910D90BC91A02D8D83EB
:102890009E83AF83B88729853A854B855C858217EF
:1028A0009307A407B5072CF04FEF5FEF588B4F87C6
:1028B00004C081E090E0988B8F87C201B10120E0D5
:1028C00030E040E050E00E941D82882309F44AC1B4
:1028D0008FEF90E0089FF001099FF00D189FF00D19
:1028E0001124EB53F64F808190E0AF85B889FC014D
:1028F000AE9FC001AF9F900DBE9F900D112497FF1A
:1029000031C1C8018BDC3CC18FEF90E0089FF00122
:10291000099FF00D189FF00D1124E352F74FEF506F
:10292000FF4F619071908190919080819181A281FF
:10293000B38189839A83AB83BC83C701B601A201AB
:1029400091010E94E1832FE632E143E852E40E94C4
:1029500024827B018C01E89417F9C801B701A40116
:1029600093010E941D8287FD15C00F2EF0E06F2E8F
:10297000F0E07F2EF0E08F2EF0E09F2EF02D0F2E56
:10298000F0E02F2EF0E03F2EF0E04F2EFFE35F2E21
:10299000F02D35C0C401B301A80197010E949081B8
:1029A00029813A814B815C810E9424823B014C0148
:1029B00020E030E040E05FE30E941D8287FD15C00B
:1029C0000F2EF0E06F2EF0E07F2EF0E08F2EFFE371
:1029D0009F2EF02D0F2EF0E02F2EF0E03F2EF0E096
:1029E0004F2EF0E05F2EF02D0AC060E070E080E036
:1029F0009FE3A40193010E9490811B012C01698136
:102A00007A818B819C81A40193010E94E1839B01C7
:102A1000AC01C801B7010E9491815B016C01C80142
:102A2000B701A40193010E94E1837B018C016981BC
:102A30007A818B819C8120E030E040E05FE30E945E
:102A4000E183A40193010E94E183A40193010E9408
:102A5000E1839B01AC01C801B7010E9491810E94F2
:102A60008C820E94BF827B018C01C201B101A60150
:102A700095010E94E1839B01AC01C801B7010E944E
:102A800091810E948C820E94BF827B018C01C601D1
:102A9000B501A60195010E94E18320E030E040E00D
:102AA0005FE30E94E18329813A814B815C810E942E
:102AB00024829B01AC01C801B7010E9491810E9450
:102AC0008C82EF85F8899F01442737FD4095542F6C
:102AD0000E94E8852D813E814F815885620F731FCA
:102AE000841F951F4F8558894130510551F4298520
:102AF0003A854B855C8526173707480759078CF4BC
:102B00000EC04F8558894F5F5F4F59F429853A852C
:102B10004B855C85621773078407950714F4CA0117
:102B2000B901AD85BE856D937D938D939C9313976D
:102B300081E060960FB6F894DEBF0FBECDBFCF9197
:102B4000DF911F910F91FF90EF90DF90CF90BF909A
:102B5000AF909F908F907F906F905F904F903F903D
:102B60002F90089529853A854B855C858D819E81BE
:102B7000AF81B885281739074A075B0709F0C4CE2B
:102B800080E0D7CF4F925F926F927F928F929F9209
:102B9000AF92BF92CF92DF92EF92FF920F931F936B
:102BA000CF93DF932C017A018B018FEF90E0489E49
:102BB000F001499EF00D589EF00D1124E653F64F9A
:102BC000A080B180C280D380A416B506C606D70601
:102BD0001CF0CFEFDFEF02C0C1E0D0E08FEF90E05C
:102BE000489EF001499EF00D589EF00D1124E852C8
:102BF000F64F608171818281938120E030E040E076
:102C000050E00E941D82882319F0C20107DB90C0AA
:102C1000CE01880F991F3C01882477FC8094982C62
:102C2000A60CB71CC81CD91CC130D10531F4EA145C
:102C3000FB040C051D055CF408C0CF5FDF4F39F4C1
:102C4000AE14BF04C006D10614F4570168018FEF1B
:102C500090E0489EF001499EF00D589EF00D112421
:102C6000E95EF64F80E090E020E030E040E050E0A8
:102C7000F8972083318342835383F89620833183EE
:102C800042835383248F358F468F578F0196349616
:102C90008730910569F78FEF90E0489EF001499EDB
:102CA000F00D589EF00D1124E352F74FEC51FF4FF9
:102CB0002083318342835383E45EF0408AE097EDC2
:102CC000A3E2BCE382839383A483B583E751FF4FE0
:102CD00080819181A281B381E95EF040868F978FD8
:102CE000A0A3B1A3680E791E8A1E9B1E62A273A2C6
:102CF00084A295A2EE51FF4F118210823B96A082D2
:102D0000B182C282D382A816B906CA06DB0681F058
:102D100081E090E0A0E0B0E004C0880F991FAA1FF6
:102D2000BB1F4A94D2F72091D808282B2093D808AB
:102D3000DF91CF911F910F91FF90EF90DF90CF9097
:102D4000BF90AF909F908F907F906F905F904F90CB
:102D500008958091DC0980688093DC090895809152
:102D6000DC0980648093DC0908958091DC0980622D
:102D70008093DC0908958091DC0980618093DC09EF
:102D800008958091DC0988608093DC090895809122
:102D9000DC0984608093DC09089560911F047091C0
:102DA000200480912104909122040E94BD8220E0A1
:102DB00030E04AE754E40E9424829B01AC01609118
:102DC0001703709118038091190390911A030E94C0
:102DD000E18360931303709314038093150390931E
:102DE0001603089560911F047091200480912104BE
:102DF000909122040E94BD8220E030E04AE754E432
:102E00000E9424829B01AC01609113037091140312
:102E100080911503909116030E94248260931703FA
:102E2000709318038093190390931A030895609187
:102E3000C40270E080E090E02091C9023091CA02A3
:102E40004091CB025091CC020E94E88560932B0404
:102E500070932C0480932D0490932E040E94BD82C5
:102E60009B01AC016091CD027091CE028091CF02A6
:102E70009091D0020E9424826093130370931403F4
:102E8000809315039093160380911504813029F4E3
:102E90008091C302882309F4A5CF0895EF92FF9291
:102EA0000F931F93CF93DF93C8EED6E00F2EF0E081
:102EB000EF2EF0E0FF2EF0E00F2FF0E01F2FF02DAF
:102EC000699170E0882777FD8095982F0E94BF82D6
:102ED0009B01AC01C801B7010E9491817B018C016B
:102EE00086E0C23FD80761F7C801B70120E030E0B3
:102EF00040E251E40E9424827B018C0120E030E01A
:102F000040E050E00E94D68388234CF0C801B7010E
:102F100020E030E040E05FE30E94918108C0C801FA
:102F2000B70120E030E040E05FE30E9490810E9422
:102F30008C82862FDF91CF911F910F91FF90EF90A0
:102F40000895823061F0833028F4882351F0813075
:102F500011F522C08330D9F08430E9F41AC085E13C
:102F600008958091150490911404882341F49130C0
:102F700011F48FE00895992371F480E10895913060
:102F800011F48BE00895992331F48CE0089586E1E3
:102F9000089587E10895089584E108952091C0027D
:102FA0003091C10224FF16C08091BE07882349F4E6
:102FB0008091C20286FF05C020623093C102209337
:102FC000C0028091C0029091C1028F7E9093C10295
:102FD0008093C00208952F923F924F925F926F921A
:102FE0007F928F929F92AF92BF92CF92DF92EF9299
:102FF000FF920F931F93DF93CF93CDB7DEB72A973E
:103000000FB6F894DEBF0FBECDBF9A87898749837C
:103010005A836B837C830D831E832F833887809133
:103020003E038530C1F5A985BA852D913D914D911D
:103030005C91283EB3E03B07B0E04B07B0E05B0794
:1030400008F47BC0DA01C901885E9340A040B0401B
:103050008834E1E79E07E0E0AE07E0E0BE0708F451
:1030600050C0DA01C90180539547A040B040803379
:10307000F5E79F07F0E0AF07F0E0BF0708F456C0A0
:1030800020563A4E4040504020563D434840504024
:1030900008F445C03DC0843009F054C0A985BA8504
:1030A0002D913D914D915C912032B2E13B07BAE008
:1030B0004B07B0E05B0760F5DA01C90188549E4E0A
:1030C000A040B040883DE3E29E07E9E0AE07E0E0C3
:1030D000BE0728F1DA01C90188519947A040B040E4
:1030E0008033F5E79F07F0E0AF07F0E0BF07F0F0AF
:1030F000245C39404040504024553F4640405040B9
:10310000E0F434EF232E31E0332E412C512C1AC041
:1031100020E6222E2AEE322E412C512C13C090E1B3
:10312000292E97E2392E412C512C0CC008EE202E6E
:1031300003E0302E412C512C05C011E0212E312C02
:10314000412C512CA985BA85AD90BD90CD90DC90D5
:10315000B1EDAB16B7E0BB06B0E0CB06B0E0DB06E6
:1031600010F58091FF02682F70E0A9EDB2E0E0E079
:10317000F0E016C08D919D919C01442737FD40954C
:10318000542F2A153B054C055D0548F0A985BA85E5
:103190002D933D934D935C9313978E2F04C03196DE
:1031A000E617F7073CF320913E03253009F0A2C053
:1031B000E985FA85A080B180C280D3802D813E81CF
:1031C0004F815885A216B306C406D50630F02115E6
:1031D00031054105510509F02DC130EDA31637E049
:1031E000B30630E0C30630E0D306C8F4E82FF0E0C1
:1031F0008091FF0290E00197E817F9072CF4EE0F99
:10320000FF1FE552FD4F9BC080ED97E0A0E0B0E0CE
:10321000E985FA8580839183A283B38302C160909C
:10322000DD097090DE098090DF099090E0092D8122
:103230003E814F8158852115310541055105B9F46D
:103240000894611C711C811C911CC201B101A40174
:1032500093010E94E885A60EB71EC81ED91EA98537
:10326000BA85AD92BD92CD92DC921397C3C0ED802A
:10327000FE800F811885EA18FB080C091D09C201A0
:10328000B101A40193010E94E8856E157F058007B6
:10329000910758F5C201B1010E94BD827B018C01EA
:1032A000C601B5010E94BD825B016C01C401B3017E
:1032B0000E94BD829B01AC01C801B7010E94E1835D
:1032C0009B01AC01C801B7010E9491819B01AC0137
:1032D000C601B5010E9491810E949182E985FA851B
:1032E000608371838283938385C02D813E814F816A
:1032F000588579C0243009F09DC0E985FA85A08001
:10330000B180C280D38029813A814B815C812A15AA
:103310003B054C055D0508F08DC031EDA31637E087
:10332000B30630E0C30630E0D30680F4882309F406
:1033300078C0E82FF0E0EE0FFF1FE952FD4F8081CB
:103340009181AA2797FDA095BA2F62CF6090DD09E1
:103350007090DE098090DF099090E0098601750188
:1033600029813A814B815C81E21AF30A040B150B27
:10337000C201B101A40193010E94E8856E157F0589
:103380008007910760F5C201B1010E94BD827B01F7
:103390008C01C601B5010E94BD825B016C01C401B4
:1033A000B3010E94BD829B01AC01C801B7010E941C
:1033B000E1839B01AC01C801B7010E9491819B018F
:1033C000AC01C601B5010E9490810E949182A9853D
:1033D000BA856D937D938D939C9313970BC0298130
:1033E0003A814B815C81A985BA852D933D934D939C
:1033F0005C931397E985FA8560817181828193815D
:10340000A20191010E943A86CA01B901A20191016B
:103410000E94E885A985BA856D937D938D939C93D1
:1034200013978091C0029091C10280619093C10274
:103430008093C00220911F04309120044091210408
:1034400050912204E985FA8580819181A281B3811E
:10345000281739074A075B0720F42083318342830A
:1034600053832A960FB6F894DEBF0FBECDBFCF911F
:10347000DF911F910F91FF90EF90DF90CF90BF9061
:10348000AF909F908F907F906F905F904F903F9004
:103490002F9008952F923F924F925F926F927F925A
:1034A000AF92BF92CF92DF92EF92FF920F931F9352
:1034B000DF93CF93CDB7DEB762970FB6F894DEBF38
:1034C0000FBECDBF9A8B898B762EB42EA22E602E86
:1034D00080913E03853009F08AC0A989BA890C9190
:1034E000201728F4222329F06620D1F411C12223C9
:1034F000B9F4672D70E080E090E02091DD09309113
:10350000DE094091DF095091E0092F5F3F4F4F4F97
:103510005F4F0E94E885060FE989FA890083DCC0C5
:10352000C02EDD248091DD099091DE09A091DF0994
:10353000B091E0098D839E83AF83B887EA2CFF2486
:10354000EC18FD080027F7FC0095102F272C3324DA
:1035500044245524C201B1012D813E814F815885FB
:103560000E94E8856E157F0580079107B0F5B601CA
:10357000882777FD8095982F0E94BF8269877A8778
:103580008B879C87672D70E0882777FD8095982F23
:103590000E94BF825B016C01C201B1010E94BD8229
:1035A0007B018C016D817E818F8198850E94BD8217
:1035B0009B01AC01C801B7010E94E1839B01AC01F2
:1035C000C601B5010E9491819B01AC0169857A8594
:1035D0008B859C850E94918170C0662021F0E989CD
:1035E000FA89B08279C0A989BA89AC9275C0843051
:1035F00009F08EC0A989BA89EC90E41618F400236A
:1036000009F486C0CE2CDD248091DD099091DE097D
:10361000A091DF09B091E00989839A83AB83BC83D1
:103620007601EB18F1080027F7FC0095102F272CE6
:10363000332444245524C201B10129813A814B81AC
:103640005C810E94E8856E157F0580079107D8F59B
:10365000B601882777FD8095982F0E94BF826D87DD
:103660007E878F87988B672D70E0882777FD809500
:10367000982F0E94BF825B016C01C201B1010E94C0
:10368000BD827B018C0169817A818B819C810E9442
:10369000BD829B01AC01C801B7010E94E1839B017F
:1036A000AC01C601B5010E9491819B01AC016D8501
:1036B0007E858F8598890E9490810E949182A98938
:1036C000BA896C9309C0662021F0E989FA89A08241
:1036D00003C0A989BA89BC92E989FA89808190E0FE
:1036E000672D70E00E941386872D90E09C01629FF9
:1036F000C001639F900D729F900D11248083809173
:10370000C0029091C10280619093C1028093C00277
:1037100062960FB6F894DEBF0FBECDBFCF91DF919A
:103720001F910F91FF90EF90DF90CF90BF90AF90DF
:103730007F906F905F904F903F902F9008952F92C1
:103740003F924F925F926F927F928F929F92AF9231
:10375000BF92CF92DF92EF92FF920F931F93DF936E
:10376000CF9300D00F92CDB7DEB71C017A83698367
:103770004A013C832B8380913E03853009F06FC062
:10378000F101808091808216930618F0232B29F096
:10379000DBC02B813C81232BC1F4E981FA81BF017D
:1037A000882777FD8095982F2091DD093091DE09DB
:1037B0004091DF095091E0092F5F3F4F4F4F5F4F1E
:1037C0000E94E885860E971EA1C04090DD095090AA
:1037D000DE096090DF097090E009EB80FC80E8185A
:1037E000F90800E010E029813A815901CC24B7FCA6
:1037F000C094DC2CC601B501A30192010E94E885AA
:103800006E157F058007910720F5C601B5010E945E
:10381000BF827B018C01B40180E090E00E94BD82F8
:103820005B016C01C301B2010E94BD829B01AC012E
:10383000C801B7010E94E1839B01AC01C801B70137
:103840000E9491819B01AC01C601B5010E9491814A
:1038500057C02B813C81F101318320835AC08430D1
:1038600009F072C0F1010190F081E02DFC83EB833F
:103870004E175F0708F068C04090DD095090DE09E0
:103880006090DF097090E0097F01E41AF50A00E01A
:1038900010E029813A815901CC24B7FCC094DC2C7A
:1038A000C601B501A30192010E94E8856E157F054E
:1038B0008007910758F5C601B5010E94BF827B01C0
:1038C0008C01EB81FC81BF0180E090E00E94BD8211
:1038D0005B016C01C301B2010E94BD829B01AC017E
:1038E000C801B7010E94E1839B01AC01C801B70187
:1038F0000E9491819B01AC01C601B5010E9490819B
:103900000E949182F1017183608303C0F101918271
:103910008082F1018081918169817A810E94138680
:1039200029813A81629FC001639F900D729F900D23
:103930001124918380838091C0029091C1028061A3
:103940009093C1028093C0020F900F900F900F9040
:10395000CF91DF911F910F91FF90EF90DF90CF906B
:10396000BF90AF909F908F907F906F905F904F909F
:103970003F902F9008952F923F924F925F926F92B7
:103980007F928F929F92AF92BF92CF92DF92EF92EF
:10399000FF920F931F93DF93CF93CDB7DEB72E9790
:1039A0000FB6F894DEBF0FBECDBF9E878D873A015C
:1039B0004B010D831E832F833887160127018091C9
:1039C0003E03853009F093C0AD85BE85AD90BD90B6
:1039D000CD90DC90A214B304C404D50430F02114BB
:1039E00031044104510431F00BC12114310441046C
:1039F0005104D9F4A60CB71CC81CD91C2091DD09B0
:103A00003091DE094091DF095091E009C401B30112
:103A10000E94E885A60EB71EC81ED91EED85FE853C
:103A2000A082B182C282D38253C08091DD0990917D
:103A3000DE09A091DF09B091E00989839A83AB8305
:103A4000BC8382017101EA18FB080C091D09CB0136
:103A5000BA0129813A814B815C810E94E8856E150B
:103A60007F058007910770F5C401B3010E94BF82F2
:103A70007B018C01C601B5010E94BD825B016C0116
:103A800069817A818B819C810E94BD829B01AC01FE
:103A9000C801B7010E94E1839B01AC01C801B701D5
:103AA0000E9491819B01AC01C601B5010E949181E8
:103AB0000E949182AD85BE856D937D938D939C937D
:103AC000139706C0ED85FE852082318242825382A3
:103AD000AD85BE856D917D918D919C919301A401E1
:103AE0000E943A86CA01B9019301A40178C08430CA
:103AF00009F086C0AD85BE85AD90BD90CD90DC90BF
:103B00008D819E81AF81B8858A159B05AC05BD0569
:103B100008F076C02090DD093090DE094090DF0982
:103B20005090E00949877A868B869C8686017501CC
:103B3000E81AF90A0A0B1B0BBA01C401A201910190
:103B40000E94E8856E157F058007910760F5C40126
:103B5000B3010E94BF827B018C01C601B5010E94A6
:103B6000BD825B016C01C201B1010E94BD829B015B
:103B7000AC01C801B7010E94E1839B01AC01C801FF
:103B8000B7010E9491819B01AC01C601B5010E9461
:103B900090810E949182AD85BE856D937D938D93BA
:103BA0009C9313970AC08D819E81AF81B885ED8566
:103BB000FE8580839183A283B383AD85BE856D919D
:103BC0007D918D919C9129853A854B855C850E94DC
:103BD0003A86CA01B90129853A854B855C850E94E0
:103BE000E885ED85FE856083718382839383809170
:103BF000C0029091C10280619093C1028093C00283
:103C00002E960FB6F894DEBF0FBECDBFCF91DF91D9
:103C10001F910F91FF90EF90DF90CF90BF90AF90EA
:103C20009F908F907F906F905F904F903F902F90DC
:103C300008952F923F924F925F926F927F928F9250
:103C40009F92AF92BF92CF92DF92EF92FF920F932B
:103C50001F93DF93CF93CDB7DEB728970FB6F894B5
:103C6000DEBF0FBECDBF1C014A015B010D831E8369
:103C70002F83388780913E03853009F084C0D101BD
:103C80008D919D910D90BC91A02D89839A83AB83DA
:103C9000BC83BC01CD01A70196010E941D8287FD56
:103CA0000BC0C701B60120E030E040E050E00E94C8
:103CB0001D82882359F0D8C0C701B60120E030E04A
:103CC00040E050E00E941D82882321F56091DD09CB
:103CD0007091DE098091DF099091E0090E94BD8218
:103CE0009B01AC01C501B4010E94E1839B01AC01C1
:103CF000C501B4010E9491819B01AC0169817A8167
:103D00008B819C810E949181F10160837183828308
:103D10009383A1C06091DD097091DE098091DF0974
:103D20009091E0090E94BD82A50194010E94E18367
:103D30002B013C01C701B60129813A814B815C818D
:103D40000E949081A30192010E94D6831816ACF4C0
:103D5000C501B401A30192010E9491819B01AC01B4
:103D600069817A818B819C810E949181D1016D93BF
:103D70007D938D939C9313976EC0F101C082D18285
:103D8000E282F38268C0843009F06EC0D101CD9028
:103D9000DD90ED90FC90C701B6012D813E814F81F1
:103DA00058850E94D68318160CF05EC06091DD091C
:103DB0007091DE098091DF099091E0090E94BD8237
:103DC000A50194010E94E1832B013C01C701B601CA
:103DD0002D813E814F8158850E949081A3019201DF
:103DE0000E94D683181694F4C501B401A301920170
:103DF0000E9491819B01AC01C701B6010E94908194
:103E0000F101608371838283938309C08D819E81D8
:103E1000AF81B885F10180839183A283B3836D81E3
:103E20007E818F819885A50194010E9491819B01DB
:103E3000AC01D1016D917D918D919C910E941D826B
:103E400088234CF48D819E81AF81B885F1018083F8
:103E50009183A283B3838091C0029091C10280615B
:103E60009093C1028093C00228960FB6F894DEBFEB
:103E70000FBECDBFCF91DF911F910F91FF90EF90BB
:103E8000DF90CF90BF90AF909F908F907F906F907A
:103E90005F904F903F902F9008958BEF96E066E0F3
:103EA00043EA5CE00E949863809115048093B30715
:103EB0000895DF92EF92FF920F931F93CF93DF93BA
:103EC000D82E80910408909105088230910509F45C
:103ED0009FC08330910534F4009769F0019709F091
:103EE0004AC128C08330910509F432C18436910556
:103EF00009F041C132C18DE0D81609F440C19AE001
:103F0000D91609F43CC181E090E0909305088093B4
:103F100004089093070880930608109208081092EE
:103F2000090810920A0810920B0810920C081092BF
:103F30000D0825C180910308883631F4E9E6DE16C4
:103F400009F019C18AE00DC08D3629F4F3E7DF16B8
:103F500059F48EE106C0833761F481E6D81609F57D
:103F600082E380930808F6C09DE6D91651F488E2F2
:103F700046C08E3661F4E0E7DE1609F0FCC08FE142
:103F80003EC0F0E7DF1609F0F6C08BE238C08A3792
:103F900031F48DE6D81609F0EEC08CE230C08337DC
:103FA00031F49DE6D91609F0E6C08AE228C08037D0
:103FB00031F4E2E7DE1609F0DEC089E220C0823685
:103FC00031F4F6E6DF1609F0D6C08CE318C0873668
:103FD00031F48FE6D81609F0CEC08DE3C2CF8A3611
:103FE00031F49DE6D91609F0C6C086E408C08936CA
:103FF00009F0C1C0EDE6DE1609F0BDC087E480938C
:10400000080882E090E09093050880930408B7C008
:104010009D2D90539A3020F0FDE2DF1609F069C023
:10402000809103088032D1F5809109088F5F8093D9
:104030000908883248F085E69CE060E072E00E9462
:10404000268183E090E0DFCFE82FF0E0EE0FFF1F46
:10405000EE0FFF1FEA5FF74F108211821282138268
:104060008DE2D81639F48FEF9FEF90930708809375
:10407000060885C081E090E09093070880930608C9
:104080008D2D992787FD9095C097AA2797FDA0951C
:10409000BA2F80839183A283B38371C09A3048F58D
:1040A00060910908C62FD0E0CC0FDD1FCC0FDD1FBB
:1040B000CA5FD74FED2CFF24E7FCF094E0EDFFEF53
:1040C000EE0EFF1E0027F7FC0095102F6881798106
:1040D0008A819B812AE030E040E050E00E94E88540
:1040E000E60EF71E081F191FE882F9820A831B8358
:1040F00046C0F0E2DF1621F08DE0D81609F03FC08F
:104100008091030880538A30F8F400910908002355
:10411000D9F010E0000F111F000F111F0A5F174F99
:104120002091060830910708442737FD4095542F09
:10413000F80160817181828193810E94E885F80194
:104140006083718382839383FDE0DF16C1F402C034
:104150001092080884E690E056CF8AE0D81679F4E9
:10416000809103088D3059F4809108081092050859
:104170001092040805C0109205081092040880E00F
:10418000D0920308DF91CF911F910F91FF90EF9094
:10419000DF900895DF92EF92FF920F931F93CF93DA
:1041A000DF93182FF62E86E19AE06DE74BE023E0CF
:1041B00000E4EE240E94566B112309F45AC080914A
:1041C0000B0AFF2011F0182F03C010910C0A181BC6
:1041D00000910D0A063018F470E3D72E17C0602F37
:1041E00070E080E090E00E94BD829B01AC0160E045
:1041F00070E080EA90E40E94248220E030E040E415
:1042000052E40E94E1830E949182D62E612F70E0D9
:1042100080E090E0C02FD0E0FF2031F00E94BD820E
:104220007B018C01229705C00E94BD827B018C011D
:104230002197BE01882777FD8095982F0E94BF8225
:104240009B01AC01C801B7010E94248220E030E04C
:1042500040E452E40E94E1830E949182462F435F32
:1042600086E19AE06EE721E00D2DEE24EA940E94AB
:10427000566BDF91CF911F910F91FF90EF90DF90E0
:104280000895BF92CF92DF92EF92FF920F931F9308
:10429000182FD62E042F80913603B5E0BB2EB10E19
:1042A0008823F1F18091E70687FF3AC0A8E0FA2E53
:1042B000F60EF2E0EF2EE10E4423C9F086E19AE01B
:1042C00069ED79E0412F2D2D0FEF0E94726B86E191
:1042D0009AE0612F4F2D24E000E00E94406B86E1C0
:1042E0009AE06E2D4F2D2FEF0E94E16F5BC086E1AB
:1042F0009AE069ED79E0412F2D2D00E00E94726B6C
:1043000086E19AE0612F4F2D24E00FEF0E94406B71
:1043100086E19AE06E2D4F2D20E00E94E16F3BC0B8
:104320000E944E17E82EE8E0FE2EFD0CC12EC3942D
:104330000023F1F086E19AE060EE79E0412F2D2D27
:104340000FEF0E94726B4F2D4E1986E19AE06C2D93
:1043500022E00E2DEE24EA940E94566B86E19AE04C
:10436000612F4F2D1C5F212F0F2D0E94D16B1AC082
:1043700086E19AE060EE79E0412F2D2D00E00E9469
:10438000726BFE1886E19AE06C2D4F2D22E00E2D07
:10439000EE240E94566B86E19AE06B2D4D2D29E0AC
:1043A0000FEF06C086E19AE06B2D4D2D29E000E06D
:1043B0000E944A6B1F910F91FF90EF90DF90CF907A
:1043C000BF90089590914804882331F098609093AD
:1043D000480483E261E005C0977F9093480483E23C
:1043E00060E00C94F17A1F920F920FB60F920BB609
:1043F0000F9211242F933F934F935F936F937F936B
:104400008F939F93AF93BF93CF93DF93EF93FF93DC
:1044100090E08091D908882309F491E09093D9081D
:10442000992311F14091CE085091CF0841155105C3
:1044300009F476C02091CC083091CD088091D00845
:104440009091D108820F931F9093CD088093CC0850
:104450008217930708F064C0415050405093CF0832
:104460004093CE08449A5CC08091D3089091D408C0
:1044700001969093D4088093D308885E934009F006
:104480004EC01092D4081092D3088091D50888238A
:1044900019F081508093D508C0913C03D0913D0321
:1044A00088819981892BA9F06091D8097091D909E7
:1044B0008091DA099091DB0920E030E040E050E0A3
:1044C0000E941D82882329F48091D70881608093FF
:1044D000D708E0913A03F0913B038091D60990917F
:1044E000D709918380836091D8097091D90980910F
:1044F000DA099091DB090E94918279836883609147
:10450000C5098091DE080E94F17AE0913803F091AC
:1045100039038FEF9FEF918380831092D2084498E4
:10452000FF91EF91DF91CF91BF91AF919F918F91CB
:104530007F916F915F914F913F912F910F900BBEA3
:104540000F900FBE0F901F90189588E060E00E94BA
:10455000F17A89E060E00E94F17A80912F048F7DEA
:1045600080932F0408950F931F93182F062F442331
:1045700021F08BEF96E06CEB07C08BEF96E00E948A
:104580003064682F8BEF96E047E0212F0E94BB67D5
:104590001F910F91089580911C0390911D03A0918C
:1045A0001E03B0911F030097A105B10579F080911A
:1045B00016048160809316040E9477786093170434
:1045C000709318048093190490931A0408958091AD
:1045D000F9099091FA09A091FB09B091FC090097A3
:1045E000A105B10511F480E0089580911604826060
:1045F000809316040E9477786093170470931804D0
:104600008093190490931A0481E00895EF92FF9229
:104610000F931F93609123047091240480912504CB
:104620009091260420911F04309120044091210490
:10463000509122040E94E8857B018C0180914904FD
:1046400090914A04A0914B04B0914C04E80EF91EDD
:104650000A1F1B1F0E94777820E06E157F058007D8
:10466000910708F021E0822F1F910F91FF90EF90AA
:10467000089580912F04806280932F0480FF03C0EF
:1046800088E061E002C088E060E00E94F17A89E0A1
:1046900061E00E94F17A0E9477786093170470932A
:1046A00018048093190490931A04089588E061E037
:1046B0000E94F17A0E94777860931704709318042F
:1046C0008093190490931A04809116048064809357
:1046D00016040895EF92FF920F931F938BEF96E0CD
:1046E0000E94BE63882389F18BEF96E00E94E86305
:1046F000882359F180911504813039F5E090C50285
:10470000F090C6020091C7021091C8028BEF96E0AC
:104710006CEB47E020E20E944A67E090C902F0900B
:10472000CA020091CB021091CC028BEF96E06CEBA9
:1047300047E021E20E944A678BEF96E06CEB47E08E
:1047400022E20091C4020E94BB671F910F91FF906B
:10475000EF9008951F93182F8BEF96E00E94E86367
:104760008823A9F08BEF96E00E94BE63882379F03E
:1047700089E160911504412FF6DE87E06091C30264
:10478000412FF1DE86E360911404412FECDE1F918E
:104790000895E82FF0E0EE0FFF1FE359F74F259142
:1047A000349184E1689FB0011124CB01835B9B4F5E
:1047B000B9010C94AD0B6F927F928F929F92AF9242
:1047C000BF92CF92DF92EF92FF920F931F93DF93EE
:1047D000CF93CDB7DEB766970FB6F894DEBF0FBEA6
:1047E000CDBFFC01A080B180C280D3808CE2A8162E
:1047F00081E0B80680E0C80680E0D80628F5809100
:10480000FF02482F50E0E9EDF2E020E030E00FC079
:1048100081919191AA2797FDA095BA2F8A159B05A2
:10482000AC05BD0510F0822F05C02F5F3F4F241748
:10483000350774F38D5860E0ACDFCE0101966DE46E
:1048400074E00E94BF0BCBC05CE0652E712C6C0E37
:104850007D1E80E6A8168AEEB80680E0C80680E0D5
:10486000D80608F04FC0C601B5010E94BD8220E005
:1048700030E04AE754E40E9424827B018C010E94CC
:1048800091825B016C01862F90E04E010894811C9F
:10489000911CB4014AE050E00E94C60BC40167ECD1
:1048A00073E00E94B40BC801B70120E030E040E2A1
:1048B00051E40E94E1837B018C012A2D30E0B90193
:1048C00043E0660F771F4A95E1F7220F331F620F0F
:1048D000731F882777FD8095982F0E94BF829B01C8
:1048E000AC01C801B7010E9490810E949182DC0155
:1048F000CB0190E0B3014AE050E00E94C60BC40136
:10490000B30162C0C601B50120E63AEE40E050E0D6
:104910000E943A8679018A01C801B70120E63AEE81
:1049200040E050E00E94E885A61AB70AC80AD90AF2
:10493000C601B50128EE33E040E050E00E943A861F
:1049400059016A01C701B3014AE050E00E94C60B59
:104950004E010894811C911C8AE0E816F1040105BF
:10496000110550F4C40163EC73E00E94BF0BC40155
:10497000B3010E94B40B04C0C401B3010E94BF0B79
:1049800087E260E006DF4E010894811C911CC4019F
:104990006DE474E00E94B40BC501BE01645F7F4FFB
:1049A0004AE050E00E94C60B8AE0A816B104C10498
:1049B000D10428F4C40163EC73E00E94B40BCE016F
:1049C0000196BE01645F7F4F0E94B40B84E460E0F7
:1049D000E0DECE0101966DE474E00E94B40BCE01DE
:1049E000019666960FB6F894DEBF0FBECDBFCF918D
:1049F000DF911F910F91FF90EF90DF90CF90BF90CC
:104A0000AF909F908F907F906F900895EF920F934B
:104A10001F93182F81E860E0BCDE82E861E0B9DE18
:104A200083E862E0B6DE80910C0A882309F087C033
:104A3000143009F084C08091160483FD80C086E1A3
:104A40009AE060E04DE02EE108E0EE24EA940E9456
:104A5000566B86E19AE060E00E94B17086E19AE0D0
:104A60006AE04EE00E949F7086E19AE061E674E0A1
:104A70000E94268180910C0A882309F06DC01430B1
:104A800009F46AC0153009F467C08091160483FDEB
:104A900063C086E19AE06FE14DE02DE308E0EE248B
:104AA000EA940E94566B86E19AE060E00E94B17041
:104AB00086E19AE06DE474E00E94097186956FE3E7
:104AC000681B86E19AE04EE00E949F7086E19AE0C2
:104AD0006DE474E00E94268180910C0A882309F01D
:104AE00048C0153009F045C08091160483FD41C0CF
:104AF00086E19AE06DE54DE02EE108E0EE24EA94CF
:104B00000E94566B86E19AE060E00E94B17086E1F7
:104B10009AE068E64EE00E949F7086E19AE065E7C1
:104B200074E00E94268186E19AE060E046E12DE78C
:104B300000E00E94406B1F910F91EF90089586E175
:104B40009AE060E04DE02EE108E0EE240E94566B12
:104B500086E19AE06FEF80CF86E19AE06FE14DE069
:104B60002DE308E0EE240E94566B86E19AE06FEF99
:104B70009DCF86E19AE06DE54DE02EE108E0EE2460
:104B80000E94566B86E19AE06FEFBFCF0F931F93A1
:104B900006E11AE0C80160E00E94B170C80163E557
:104BA00042E00E949F7080E860E0F3DDC8016DE4A0
:104BB00074E00E9426811F910F910895DF92EF9279
:104BC000FF920F931F93CF93DF938091090A0E9466
:104BD000A117E82E10920D0AC4E4D3E0DD24D3948B
:104BE00028812E1509F083C09981953169F480914F
:104BF0001504813049F410E08091C302811111E065
:104C00001D25012F10E002C000E010E0273159F40B
:104C1000903209F073C080911404813009F46EC0A1
:104C20000B5F1F4F6BC02C3009F068C0923409F045
:104C300065C08BEF96E00E94BE63882371F08BEF16
:104C400096E00E94BE63882309F458C08BEF96E07B
:104C50000E94E863882309F051C0FF24F3948881FF
:104C6000843159F489818A3641F48BEF96E00E94B1
:104C7000BE63882311F4FF24F39488818031B9F452
:104C800089818234A1F48BEF96E00E94BE63882371
:104C900061F08BEF96E00E94BE63882341F08BEFBA
:104CA00096E00E94E863882311F4FF24F39488813E
:104CB000843149F489818A3631F48BEF96E00E9481
:104CC000BE638823A1F0FF2091F4102F8981800F0B
:104CD00060910D0A5EDD90910D0AE92FF0E0E3533B
:104CE000F94F8981180F10839F5F90930D0A2296C8
:104CF00083E0C03CD80709F073CF02C0FF24AFCFD8
:104D0000DF91CF911F910F91FF90EF90DF90089569
:104D100090913103943621F484E061E00C94F17AAF
:104D20008FEF989FC001112464E670E00E942786EF
:104D300084E00C947E7988E30E944A792091E7060A
:104D4000C39714F0206801C02F772093E7060895D9
:104D50009F92AF92BF92CF92DF92EF92FF920F930A
:104D60001F93982E80910C0A882309F075C08091BA
:104D7000090A882309F070C08091480481FD6CC045
:104D80002BC00E94BD827B018C01C601B5010E942F
:104D9000BD829B01AC01C801B7010E9424827B0146
:104DA0008C01CB01D8018093ED099093EE09A0937B
:104DB000EF09B093F0099920D9F0B701C8010E941A
:104DC00094840E9494846093ED097093EE0980931B
:104DD000EF099093F0090CC080E090E0A0E8BFE3F9
:104DE0008093ED099093EE09A093EF09B093F00939
:104DF00060912003709121038091220390912303FD
:104E000020912403309125034091260350912703DC
:104E1000621B730B840B950B0E94BD822091ED09E0
:104E20003091EE094091EF095091F0090E94E18321
:104E30000E9491826093E9097093EA098093EB09DB
:104E40009093EC091F910F91FF90EF90DF90CF901E
:104E5000BF90AF909F9008956091F9097091FA0901
:104E60008091FB099091FC09A0900B03B0900C037A
:104E7000C0900D03D0900E036A157B058C059D052F
:104E800008F47FCFA9CF2F923F924F925F926F92FB
:104E90007F928F929F92AF92BF92CF92DF92EF92CA
:104EA000FF920F931F93DF93CF93CDB7DEB7A297F7
:104EB0000FB6F894DEBF0FBECDBF1C01498F5A8FCD
:104EC0006B8F7C8F8FEF90E0289E9001299E300D94
:104ED000389E300D1124295E364F3A832983F9011B
:104EE00080E090E020E030E040E050E0F897208360
:104EF000318342835383F8962083318342835383E3
:104F0000248F358F468F578F0196349687309105C1
:104F100069F78FEF90E0289EB001299E700D389EB2
:104F2000700D11246352774F6C517F4FDB012D932D
:104F30003D934D935C9313976B5F7F4FDB012D91F6
:104F40003D914D915C912D8B3E8B4F8B588F695EBF
:104F50007040FB01268F378F40A351A36F507F4FC6
:104F6000DB01ED90FD900D911D918D919D910D9026
:104F7000BC91A02D898B9A8BAB8BBC8BC801B701E0
:104F800029893A894B895C890E9424826D877E87B2
:104F90008F87988BC801B7012D853E854F8558892D
:104FA0000E94E18369877A878B879C87698D7A8DD8
:104FB0008B8D9C8D2D893E894F89588D621B730B7B
:104FC000840B950B97FF07C0909580957095619520
:104FD0007F4F8F4F9F4F0E94BF826D837E838F8351
:104FE0009887898D9A8DAB8DBC8D2D893E894F898F
:104FF000588D281739074A075B072CF04FEF5FEFF2
:105000005C834B8304C081E090E09C838B838FEFB3
:1050100090E0289E8001299E100D389E100D1124CD
:105020000352174F05501F4FD8018D909D90AD90A2
:10503000BC900B5F1040C501B40120E030E040EAB5
:1050400050E40E94D68318160CF027C1F801E851ED
:10505000FF4F8081882329F460E070E080EA91ECC2
:1050600004C060E070E080EA91E4A50194010E9430
:10507000E1832FE632E143E852E40E9424826B018F
:105080007C0129893A894B895C890E9424822B0101
:105090003C01E89477F869897A898B899C8920E0BA
:1050A00030E040E05FE30E94E183A30192010E94AF
:1050B000E183A30192010E94E1836D8F7E8F8F8F28
:1050C00098A3EB81FC81BF01882777FD8095982FFD
:1050D0000E94BF824B015C01C701B601A50194018A
:1050E0000E94E18320E030E040E050E00E941D8219
:1050F0008823BCF58FEF90E0289E8001299E100D3B
:10510000389E100D11240352174FD80112964D925C
:105110005D926D927C9215970B501F4FC501B401A3
:10512000F80120813181428153810E94E1830F592E
:105130001040D8016D937D938D939C9313970655E2
:105140001040F801C2AED3AEE4AEF5AE6D817E8103
:105150008F8198852D8D3E8D4F8D58A10E94918114
:1051600050C06D817E818F8198852D8D3E8D4F8DB4
:1051700058A10E941D8288230CF04BC08FEF90E055
:10518000289E8001299E100D389E100D1124035277
:10519000174FD80112964D925D926D927C921597A1
:1051A000EB81FC81F095E195FF4FFC83EB83BF0120
:1051B000882777FD8095982F0E94BF820B501F4F44
:1051C000D8012D913D914D915C910E94E1830F5941
:1051D0001040F801608371838283938306551040E9
:1051E000D801DA96CD92DD92ED92FC92DD976D8D2D
:1051F0007E8D8F8D98A12D813E814F8158850E9493
:1052000090816D837E838F83988741E0642E712C1B
:1052100046C06D817E818F8198852D8D3E8D4F8D0D
:1052200058A10E9491816D837E838F8398878FEF31
:1052300090E0289E6001299ED00C389ED00C11244D
:10524000EDEDF8E0CE0EDF1E6D897E898F89988D99
:105250000E94BF827B018C01C501B4012D8D3E8D62
:105260004F8D58A10E94E1839B01AC01C801B70199
:105270000E9490810E948C82D6015E966D937D93F0
:105280008D939C939197E4EEF0E0CE0EDF1ED60155
:105290004D925D926D927C921397662477246D8176
:1052A0007E818F81988529853A854B855C850E9412
:1052B0001D8218163CF4BD85B9A3EE85EAA34F8480
:1052C00058881AC08FEF90E0289EF001299EF00DBB
:1052D000389EF00D1124EE52F64F6D817E818F8144
:1052E000988520813181428153810E9424820E94CD
:1052F000948469A37AA32C01F301EE0FFF1FEE0F34
:10530000FF1F8FEF90E0289E7001299EF00C389EC1
:10531000F00C1124EE0DFF1DE152F74F29A13AA127
:10532000C901D20180839183A283B3832B813C8105
:10533000B901882777FD8095982F0E94BF824B0185
:105340005C018301000F111F000F111F0E0D1F1DA7
:105350000D5C164F9DEDC92E98E0D92ECE0CDF1CAA
:10536000F601EB50FF4FC501B4012081318142812C
:1053700053810E94E183D8016D937D938D939C931B
:1053800013976D817E818F81988529853A854B851C
:105390005C850E94D6831816ACF50894611C711CBC
:1053A0008301000F111F000F111F0E0D1F1D015251
:1053B000174F6D817E818F81988529853A854B8530
:1053C0005C850E949081F601EF50FF4F2081318172
:1053D000428153810E942482F80160837183828319
:1053E0009383F301EE0FFF1FEE0FFF1FEE0DFF1D66
:1053F000ED5CF64F80E090E0A0E0B0E08083918328
:10540000A283B3830894611C711CF301EE0FFF1F8C
:10541000EE0FFF1F8FEF90E0289E7001299EF00C89
:10542000389EF00C1124EE0DFF1DE152F74F29A11B
:105430003AA1C901D20180839183A283B3838301FE
:10544000000F111F000F111F0E0D1F1D0D5C164FB9
:10545000F701EE52F64F208131814281538150583D
:10546000C501B4010E94E183D8016D937D938D93B2
:105470009C931397EFED4E2EE8E05E2E4E0C5F1CD2
:1054800071E0872E912CF201A080B180C280D38080
:10549000648D758D868D978D0E94BF827B018C01F6
:1054A000C601B501A981BA812D913D914D915C91C3
:1054B0000E94E1839B01AC01C801B7010E94918168
:1054C0007B018C01E981FA81648D758D868D978DC4
:1054D00020E030E040E05FE30E94E183A601950117
:1054E0000E94E183A60195010E94E1839B01AC012A
:1054F000C801B7010E9491810E948C82D2019096CE
:105500006D937D938D939C939397C601B501E9812B
:10551000FA81248D358D468D578D0E94E1839B0144
:10552000AC01A981BA816D917D918D919C910E9470
:105530009181E981FA8164837583868397830894D6
:10554000811C911C24E030E0420E531E3496FA83F5
:10555000E983681479040CF096CFF3013196EE0FCD
:10556000FF1FEE0FFF1F8FEF90E0AC01249EC001E4
:10557000259E900D349E900D1124E80FF91FE352E3
:10558000F74F298D3A8D4B8D5C8D268F378F40A339
:1055900051A38C010D5C164FEE24FF24D8016D91B0
:1055A0007D918D919C9120E030E040E05FE30E948E
:1055B000E183F80161937193819391938F01089432
:1055C000E11CF11C6E147F044CF78FEF90E0289ED5
:1055D000F001299EF00D389EF00D1124E154F64F94
:1055E00011821082A2960FB6F894DEBF0FBECDBF17
:1055F000CF91DF911F910F91FF90EF90DF90CF90AF
:10560000BF90AF909F908F907F906F905F904F90E2
:105610003F902F900895CF93DF93EC018FEF90E0B0
:10562000C89FF001C99FF00DD89FF00D1124E352DF
:10563000F74FE351FF4F4083518362837383B291ED
:10564000A29192918291481759076A077B0791F0BE
:10565000CE0119DC81E090E0A0E0B0E004C0880F4A
:10566000991FAA1FBB1FCA95D2F72091D808282BD3
:105670002093D808DF91CF9108952F923F924F92B7
:105680005F926F927F928F929F92AF92BF92CF92D2
:10569000DF92EF92FF920F931F93DF93CF93CDB7DB
:1056A000DEB760970FB6F894DEBF0FBECDBF9A8706
:1056B00089877C876B8728013901CD86DE86EF8656
:1056C000F88A662757FD6095762FCB01BA010E94B4
:1056D000BF8220E030E04AE754E40E9424827B014C
:1056E0008C016D857E858F8598890E94BF826D8330
:1056F0007E838F8398872D853E854F855889421AF2
:10570000530A640A750AC301B2010E94BF829B0159
:10571000AC01C801B7010E94E1839B01AC016D811E
:105720007E818F8198850E9491810E948C821B01CD
:105730002C018D859E85AF85B889881A990AAA0A99
:10574000BB0AC501B4010E94BF829B01AC01C80124
:10575000B7010E94E1839B01AC016D817E818F8145
:1057600098850E9491810E948C8269837A838B83C1
:105770009C838FEF90E0A985BA85A89FF001A99F2F
:10578000F00DB89FF00D1124E957F64F20E030E0FE
:1057900080E090E0A0E0B0E0F89780839183A2835E
:1057A000B383F89680839183A283B383848F958F8C
:1057B000A68FB78F2F5F3F4F34962730310561F7A3
:1057C0008FEF90E0E985FA85E89F8001E99F100D51
:1057D000F89F100D11240352174F0E561F4FD8017A
:1057E0002D923D924D925C921397EB85FC85BF0103
:1057F000882777FD8095982F0E94BF8220E030E0B7
:105800004AE754E40E94248220E030E040E05FE375
:105810000E94E1836B017C010C511040D8016D9313
:105820007D938D939C931397065710405EEA652EE7
:10583000712C600E711E6D857E858F859889621929
:105840007309840995090E94BF82A70196010E94ED
:105850002482F30160837183828393830A561F4FEE
:105860002D853E854F855889D8012D933D934D93C5
:105870005C9313970C511040F801C082D182E282F0
:10588000F382085C1F4F69817A818B819C81621B46
:10589000730B840B950B0E94BF82A70196010E9497
:1058A00024824B015C01D8016D937D938D939C9371
:1058B0001397F301608171818281938120E030E050
:1058C00040E05FE30E94E1836B017C01C201B10112
:1058D0000E94BF82A70196010E9490810E948C8243
:1058E0002B013C0104521040D8016D937D938D93A0
:1058F0009C9313970C51104080E090E0A0E8BFE328
:10590000F80180839183A283B3830C5A1F4FF8015F
:10591000C082D182E282F3820C52104029813A8106
:105920004B815C81F80120833183428353830C5186
:105930001040F80180839183A283B383085C1F4FDA
:10594000D8018D929D92AD92BC921397045E1F4F29
:10595000C501B40120E030E040E05FEB0E94E1834C
:10596000F8016083718382839383045310406981BB
:105970007A818B819C810E94BF826B017C01C50171
:10598000B40120E030E040E05FE30E94E1839B014E
:10599000AC01C701B6010E9491810E948C82D8019E
:1059A0006D937D938D939C93139789859A85B3010D
:1059B000A20131DE60960FB6F894DEBF0FBECDBFF8
:1059C000CF91DF911F910F91FF90EF90DF90CF90DB
:1059D000BF90AF909F908F907F906F905F904F900F
:1059E0003F902F900895EF92FF920F931F93CF93C4
:1059F000DF930E9477786093F7067093F8068093A0
:105A0000F9069093FA062091490430914A04409196
:105A10004B0450914C04621B730B840B950B0E943A
:105A2000BD822091FD093091FE094091FF095091FE
:105A3000000A0E94E1830E9491822091050A309120
:105A4000060A4091070A5091080A261737074807A7
:105A5000590778F4DC01CB01821B930BA40BB50B27
:105A60008093010A9093020AA093030AB093040A58
:105A700008C01092010A1092020A1092030A1092B2
:105A8000040AC0E0D0E024C081E261E00E94F17A23
:105A900084E190E00E94DE7881E260E00E94F17A89
:105AA00086E990E00E94DE788091050A9091060ACE
:105AB000A091070AB091080A0196A11DB11D80931B
:105AC000050A9093060AA093070AB093080A219644
:105AD000E090010AF090020A0091030A1091040A72
