:100000000C94FF090C94EA6D0C941B6E0C944C6ECE
:100010000C947D6E0C94AE6E0C94DF6E0C94106F8D
:100020000C94416F0C942B0A0C942B0A0C942B0A01
:100030000C942B0A0C942B0A0C942B0A0C942B0A6C
:100040000C942B0A0C942B0A0C942B0A0C942B0A5C
:100050000C94681C0C942B0A0C942B0A0C94726F51
:100060000C942B0A0C9487720C94AF730C942B0A8B
:100070000C942B0A0C942B0A0C942B0A0C942B0A2C
:100080000C942B0A0C942B0A0C942B0A0C942B0A1C
:100090000C94C0720C94FC730C942B0A0C942B0AD5
:1000A0000C942B0A0C942B0A0C942B0A0C942B0AFC
:1000B0000C942B0A0C942B0A0C942B0A0C942B0AEC
:1000C0000C942B0A0C942B0A0C942B0A0C94F972A6
:1000D0000C9449740C942B0A0C9432730C949674FF
:1000E0000C942B0A084AD73B3BCE016E84BCBFFD63
:1000F000C12F3D6C74319ABD56833DDA3D00C77FF8
:1001000011BED9E4BB4C3E916BAAAABE0000008090
:100110003F05A84CCDB2D44EB93836A9020C50B91F
:10012000918688083CA6AAAA2ABE000000803F0744
:10013000634236B79BD8A71A39685618AEBAAB5582
:100140008C1D3CB7CC5763BD6DEDFD753EF6177247
:1001500031BF000000803F08000000BE9224491219
:100160003EABAAAA2ABECDCCCC4C3E00000080BE3D
:10017000ABAAAAAA3E00000000BF000000803F001A
:1001800000000000084178D3BB4387D1133D190E0E
:100190003CC3BD4282AD2B3E68EC8276BED98FE176
:1001A000A93E4C80EFFFBE01C4FF7F3F000000006E
:1001B000004F4E004F464600435700434357004F01
:1001C0006E004F666600004D6F766520547970654D
:1001D00000436F6E74696E756F757300532D4D2DEE
:1001E000530054696D656C61707365004379636C8D
:1001F000650052756E007E0053686F77005365741A
:1002000074696E67730047454E00434F4E004D546E
:10021000520043414D00646567000053706565649A
:1002200000446972656374696F6E004D6F746F721C
:1002300020536C656570005265636F7264004361A2
:100240006D20547970650046697265205465737439
:100250002053686F740000496E666F726D61746937
:100260006F6E0044697374616E636500667073003D
:100270005265632074696D6500506C617942205449
:10028000696D6500506C617942204650530053748B
:1002900061727420486F6D65004578706F73757278
:1002A000650073686F742023006E6F206C696D6940
:1002B00074003A004272696768746E657373006215
:1002C0002D6C6967687420746D004D6F746F7220B7
:1002D00044656C61790043616D2044656C6179000F
:1002E0005363726C2052616D70004D6F746F722099
:1002F0005479706500676F20686F6D650053657491
:1003000020486F6D650048445200427261636B651E
:10031000740042756C622052616D700046697273A0
:100320007420457870004C617374204578700056D5
:100330006964656F005365747570002D2D2D2D2D2A
:100340000052616D7000526573657420536574745A
:10035000696E6773005363726C2052616D70005355
:1003600063726C205370656564006D73004B657932
:100370006672616D6573002500636D00636D2F7398
:1003800000726576004465766963652F4D6F740071
:100390006D696E0073002F00496E666F726D617437
:1003A000696F6E006D696E69456E67696E650043C1
:1003B000696E654D6F636F2076322E33004465762B
:1003C000656C6F706572732028696E00616C706176
:1003D00068616265742E206F72646572293A00410B
:1003E00069726963204C656E7A2C00416C7661728B
:1003F0006F63616C766F2C00432E412E204368752D
:100400007263682C00457269632050616B2C004A4E
:10041000757374696E204A656E73656E2C004B614E
:10042000726C204D63446F6E616C642C004D617280
:1004300063204C616E652E00436865636B206F75A9
:10044000740063696E65746963732E636F6D206FEA
:10045000720061697269636C656E7A2E636F6D00FC
:10046000555342204D6F6465005072657373205B75
:1004700053454C4543545D20746F0072657374613D
:100480007274207468652043696E654D6F636F00F8
:10049000616E6420676574206261636B20746F20F5
:1004A00074686500757375616C2043696E654D6F86
:1004B000636F206D6F64652E00004D6F746F722046
:1004C000686F6D6500706F736974696F6E20697312
:1004D000206E6F77207365742E00506C65617365B4
:1004E0002077616974207768696C65006D6F746F3F
:1004F00072206973206D6F76656420746F00686F79
:100500006D6520706F736974696F6E2E2E2E004DAD
:100510006F746F7220686F6D6520706F7369746996
:100520006F6E00726561636865642E005265736565
:10053000742073657474696E677300416C6C20631A
:100540007573746F6D2073657474696E677300647E
:10055000656C657465642E2053797374656D2077BE
:10056000696C6C007265626F6F74206E6F772E2EEF
:100570002E00436861696E204944004D61737465C3
:100580007200446576696365200044616973792D62
:10059000636861696E696E67005570646174652097
:1005A000436861696E007E20757064617465210026
:1005B00023204F662053686F7473002B2F2D20006B
:1005C00043616E6F6E004E696B6F6E00537973748A
:1005D000656D000053686F7720737570706C7900DB
:1005E0003C3D20312F31357300312F3133730031D1
:1005F0002F31307300312F387300312F36730031B3
:100600002F357300312F34730000736877206578BD
:10061000747077720053706565640052616D70206C
:10062000496E0052616D70204F7574004469737497
:10063000616E636500564944454F004D6F76650015
:10064000828200818100536574205374617274202A
:10065000506F696E740053657420456E6420506F4E
:10066000696E7400476F20746F2053746172740058
:100670004B65796672616D657300506F736974695B
:100680006F6E206973206E6F77207365742E005033
:100690006C656173652077616974207768696C6542
:1006A000006D6F746F72206973206D6F76656420C2
:1006B000746F006B657920706F736974696F6E2E4B
:1006C0002E2E004B657920706F736974696F6E0010
:1006D000726561636865642E000080207E00546846
:1006E0006973206B657920776173206E6F74007376
:1006F00065742079657421004E6F7420616C6C20E4
:100700006B65796672616D657300776572652073DC
:10071000657421005379737420536C656570004BC8
:1007200065657020506F776572656400476F20744F
:100730006F20456E64005570646174696E67206354
:100740006861696E696E6700646174612E20546827
:100750006973206D696768740074616B6520736FDD
:100760006D65207365636F6E64732E2E2E00446575
:1007700076002D2D00426F756E63696E67007E20D6
:10078000616C6C0052656769737465726564206999
:100790006E0074686520636861696E2E2E2E0045B8
:1007A0006E67696E6520707265706172696E672E22
:1007B0002E2E005768696C652077616974696E67D1
:1007C00020666F72007468652063656E7472616C78
:1007D0002073796E63007369676E616C2C20707290
:1007E00065737320506C617900746F20737461724B
:1007F00074206D616E75616C6C792E0053746F702E
:100800002D6D6F74696F6E00506C6561736520505B
:100810005245535320504C415900746F20636F6E02
:1008200074696E7565207769746800746865206EF8
:100830006578742073686F742E00446F7562626C03
:10084000652D707265737320746F0073746F702000
:100850007265636F7264696E672E0053746172749F
:1008600020555342204D6F646500000000B101B473
:1008700001B801BB01BF01C201C601C701D101DC42
:1008800001E201EC01F201F601F801FD0106020AA4
:10089000020E02120216021A021B0221022B02375A
:1008A000023E0247025602570263026C027002794E
:1008B0000284028E029902A202A902B202B402BF0D
:1008C00002CA02D602E002EA02F502FD0206030AAB
:1008D0000312031C0326032F0335033B0341034686
:1008E0000355035F036A036D03770379037C038178
:1008F0000385039003940396039803A403AF03BDF9
:1009000003CC03DF03EB03F80305040F041E042DDF
:1009100004380442045204600469047B049004A473
:1009200004B904BA04C504DA04EC04FE040F052378
:10093000052C053B054F05640572057B0582058A7C
:10094000059905A605B005BB05C005C605CC05D3B0
:1009500005D405E005E905EF05F505FA05FF0504F1
:100960000609060A0615061B0623062C0635063B55
:10097000064006430646065606640670067A068F4B
:1009800006A106B306C306D006D906DA06DE06EFD0
:1009900006F8060A0714071F072C073607480759E9
:1009A000076E07720775077E07840792079F07B3D4
:1009B00007C507D607E907FC0708081A082B083AF5
:1009C000084B085B086A086B086C080C087F5555D3
:1009D000555555D5D555557F0005081C3FFC3F1C86
:1009E0000508FE030103FE5D002F002F20002F20CD
:1009F00020005B005B20005B2020005B005B200090
:100A00005B2020005B20202000202020434F4D5001
:100A10004C45544520202000505245535320504C03
:100A2000415920544F20454E440042617474657210
:100A30007900426174746572790053686F6F740055
:100A4000494E2050524F47524553532E2E2E008070
:100A50003000000000000000000000000000000066
:100A6000C0E0E0F07070F0E0E0C00000EEEEEE00FC
:100A7000E0E0E0F0F07070F0E0E0C0000080C0E086
:100A8000E0707070E0E0C0800000FFFFFFFFFEF04C
:100A900080000080F0FEFFFFFFFF0000C0E0E0E00C
:100AA0007070E0E0E0C080000080C0E0E0F07070B6
:100AB000E0E0C080000080C0E0E0707070E0E0C066
:100AC00080000000000000000000000000000000A6
:100AD0000000000000000000000000000000003FD7
:100AE000FFFFE3C08080C0E1E1E12100FFFFFF00E4
:100AF000FFFFFFFF00000000FFFFFF003EFFFFFFC2
:100B0000CE8E8E8E8ECFCFCF0E00FFFFFF00073F21
:100B1000FFFCFCFF3F0700FFFFFF003FFFFFE380FC
:100B2000808080C1FFFF7F000C7FFFFFC18080803D
:100B3000C0E1E161001EFFFFFFC0808080C0FFFFB9
:100B4000FF1E000000000000000000000000000088
:100B5000000000000000000000000000000000C0D5
:100B6000C0C1C3C3C3C3C3C3C1C0C0C0C3C3C3C068
:100B7000C3C3C3C3C0C0C0C0C3C3C3C0C0C0C1C15E
:100B8000C3C3C3C3C3C3C1C0C0C0C3C3C3C0C0C049
:100B9000C1C3C3C1C0C0C0C303030000000103033D
:100BA000030303030100000000000101030303032A
:100BB000030101000000000101030303030301011D
:100BC0000000000000000000000000000000000025
:100BD000000000000000000000000000000000C74E
:100BE000C7C7C7C7C7C7C7C7C7C7C7C7C7C7C7C795
:100BF000C7C7C7C7C7C7C7C7C7C7C7C7C7C7C7C785
:100C0000C7C7C7C7C7C7C7C7C7C7C7C7C7C7C7C774
:100C1000C7C7C7C7C7C7C7C70000000000061EFE7A
:100C2000F08080F0FE1E06000000000000000000C2
:100C300000000000000000000000000000000000B4
:100C400000000000000000000000000000000000A4
:100C5000000000000000000000000000000000078D
:100C60000707070707070707070707070707070714
:100C70000707070707070707070707070707070704
:100C800007070707070707070707070707070707F4
:100C9000070707070707070700000000000000001C
:100CA0000307070300000000000000000000000030
:100CB0000000000000000000000000000000000034
:100CC0000000000000000000000000000000000024
:100CD0000000000000000000000000000000000014
:100CE00070888890FE0000F810080810000088FA4C
:100CF0008000003840804038000070A8A8A830006C
:100D000000F8100808F000000000000000FE9088C5
:100D10008870000018A0A0A078000000000000006B
:100D2000F8083008F000000088FA80000000F81091
:100D30000808F000000088FA80000000FE929292FD
:100D40008200000000000000000000000000000021
:100D50000010880A14201A000A0A0A0A0A0A0A0A53
:100D60000A0A0A02050207090508080A080909090A
:100D7000090000000000000000000000000000006A
:100D80000000000000000000000000000000000063
:100D90000000000000000000000000000000000053
:100DA0000000000000000000000000000000000043
:100DB0000000000000000000000000000000000033
:100DC0000000000000000000000000000000000023
:100DD0000000000000000000000000000000000013
:100DE0000000000000000000000000000000000003
:100DF00000000000000000000000000000000000F3
:100E000000000000000000000000000000000000E2
:100E100000000000000000000000000000000000D2
:100E200000000000000000000000000000000000C2
:100E300000000000000000000000000000000000B2
:100E400000000000000000000000000000000000A2
:100E50000000000000000000000000000000000092
:100E60000000000000000000000000000000000082
:100E70000000000000000000000000000000000072
:100E80000000000000000000000000000000000062
:100E90000000000000000000000000000000000052
:100EA0000000000000000000000000000000000042
:100EB00000000000000000000000000000E06010E2
:100EC0000000000000000202020202000000000018
:100ED00000006060000000000080F01C0680701EB2
:100EE0000300000000000000000000E0F81C0C0CF3
:100EF0000C1CF8E00F3F70606060703F0F00000056
:100F0000000000000000203018FCFC0000007F7F83
:100F1000000000000030381C0C0C0CFCF8607078ED
:100F20007C6E6763600000000000000000181C8CED
:100F30008C8CCC78303070616161733E1C00000095
:100F40000000000000000080C0603018FCFC000EB3
:100F50000F0D0C0C0C0C7F7F0C000000000000003B
:100F600000000000FCFC8C8C8C0C0C307161616109
:100F7000733F1E0000000000000000C0F038988C95
:100F80008C8C0C001F3F73616161733F1E00000079
:100F90000000000000000C0C0C0C0CCCFC3C0C0005
:100FA00040703C0F03000000000000000000000043
:100FB0000030F8CC8C8C8CCCF8301C3E63616161C5
:100FC000633E1C000000000000000000F0F89C0CD4
:100FD0000C0C1CF8E000416363333B1F0F0300005F
:100FE0000000000000000000000507206300000072
:100FF000000000005F00000007000700147F147F5E
:1010000014242A7F2A122313086462364955225079
:101010000005030000001C2241000041221C0008C2
:101020002A1C2A0808083E0808005030000008085A
:10103000080808006060000020100804023E5149C2
:10104000453E00427F400042615149462141454BA7
:10105000311814127F1027454545393C4A4949301B
:1010600001710905033649494936064949291E00D7
:1010700036360000005636000000081422411414D1
:10108000141414412214080002015109063249794E
:10109000413E7E1111117E7F494949363E41414111
:1010A000227F4141221C7F494949417F09090101B1
:1010B0003E414151327F0808087F00417F410020B6
:1010C00040413F017F081422417F404040407F0261
:1010D00004027F7F0408107F3E4141413E7F0909A1
:1010E00009063E4151215E7F091929464649494971
:1010F0003101017F01013F4040403F1F2040201F40
:101100007F2018207F6314081463030478040361AC
:101110005149454300007F414102040810204141EC
:101120007F000004020102044040404040000102F0
:10113000040020545454787F48444438384444448C
:1011400020384444487F3854545418087E0901021A
:10115000081454543C7F0804047800447D40002067
:1011600040443D00007F10284400417F40007C0443
:101170001804787C0804047838444444387C1414F7
:101180001408081414187C7C0804040848545454A7
:1011900020043F4440203C4040207C1C2040201C38
:1011A0003C4030403C44281028440C5050503C44B3
:1011B00064544C44000836410000007F00000041A8
:1011C00036080008083E1C08081C3E08081020408D
:1011D0003806007F3E1C08081C3E7F002E000000E1
:1011E0002100240027002A002D00300033000101D7
:1011F0000000040107010A01000022002500280068
:101200002B002E003100340002010000050108010E
:101210000B01000020002300260029002C002F00D5
:101220003200000100000301060109010505050562
:10123000070508080808020202020A0A080804044E
:10124000040401010101010101010303030303037C
:101250000303040707070C0C0C0C0C0C0C0C02020B
:10126000020206060606060606060B0B0B0B0B0B08
:101270000B0B010210202008081020401020408095
:10128000020102010804020101020408102040804A
:1012900080402010080402018004020180402010D8
:1012A0000804020108040201010204081020408021
:1012B00001020408102040800000090A02080B0CFB
:1012C0000D070603040100000000000000000000FC
:1012D000000000000000000000000000000000000E
:1012E0000000000011100F000000000000000000CE
:1012F00000000000000000000000000000000040AE
:101300007A10F35A00A0724E18090010A5D4E80014
:1013100000E87648170000E40B54020000CA9A3B2C
:10132000000000E1F50500008096980000004042B2
:101330000F000000A0860100000010270000000040
:10134000E803000000006400000000000A00000044
:1013500000000100000000002C76D888DC674F08F0
:1013600023DFC1DFAE59E1B1B796E5E3E453C63AF6
:10137000E651997696E8E6C28426EB898C9B62ED6D
:10138000407C6FFCEFBC9C9F40F2BAA56FA5F49027
:10139000055A2AF75C936B6CF9676DC11BFCE0E49E
:1013A0000D47FEF520E6B500D0ED902E03009435F4
:1013B00077050080841E080000204E0A000000C847
:1013C0000C333333330F986E12831141EF8D211498
:1013D000893BE65516CFFEE6DB18D1844B381BF768
:1013E0007C1D901DA4BBE424203284725E22810007
:1013F000C9F124ECA1E53D27C219AA631076112496
:101400001FBECFEFD1E2DEBFCDBF00E00CBF14E0C6
:10141000A0E0B2E0EAE1F9E001E00BBF02C0079012
:101420000D92A431B107D9F71CE0A4E1B4E001C0EA
:101430001D92A53EB107E1F713E1CEEFD3E104C061
:101440002297FE010E94957DC83FD107C9F70E94EF
:101450002E770C948B840C9400008091D102909193
:10146000D202A091D302B091D4028093D507909379
:10147000D607A093D707B093D807809129039091FE
:101480002A03A0912B03B0912C038093D107909352
:10149000D207A093D307B093D407809128038093F9
:1014A000D90780912D038093DA0780912E038093D2
:1014B000DB078091470480728093DC070895809158
:1014C000D5079091D607A091D707B091D807809300
:1014D000D1029093D202A093D302B093D402809110
:1014E000D1079091D207A091D307B091D4078093F0
:1014F000290390932A03A0932B03B0932C0380918C
:10150000D907809328038091DA0780932D03809177
:10151000DB0780932E038091DC0790914804882399
:1015200011F0906201C09F7D909348040895EF925E
:10153000FF920F931F936091C5027091C602809134
:10154000C7029091C8020E94F0797B018C016091E2
:101550002B0470912C0480912D0490912E040E94F4
:10156000F0799B01AC01C801B7010E94577920E0D6
:1015700030E04AE754E40E940B7B0E94C4799B014F
:10158000AC0160931F047093200480932104909316
:1015900022048091D1029091D202A091D302B09105
:1015A000D402281739074A075B0740F42093D10279
:1015B0003093D2024093D3025093D4021F910F91E3
:1015C000FF90EF9008950F931F93CF93DF93EC015B
:1015D0008EE46132780718F060E27EE405C064367C
:1015E000710510F464E670E080E090E00E94F0790C
:1015F0002FEF30E0C29F8001C39F100DD29F100DCE
:1016000011240352174F0F501F4FF801619371932C
:10161000819391938F0120E030E040E05FE30E94EE
:101620000B7BF8016083718382839383DF91CF9179
:101630001F910F9108952F923F924F925F926F9258
:101640007F928F929F92AF92BF92CF92DF92EF9252
:10165000FF920F931F93DF93CF9300D00F92CDB7DC
:10166000DEB73C018FEF90E0689EB001699E700D7F
:10167000789E700D1124FB01E352F74FDF01A75153
:10168000BF4FE351FF4F20813181428153818D91C2
:101690009D910D90BC91A02D281739074A075B0733
:1016A00009F43FC1FB01E152F74F80E090E020E0F8
:1016B00030E040E050E0208331834283538320AF09
:1016C00031AF42AF53AF148E158E168E178E019622
:1016D00034968730910579F78FEF90E0689E80010E
:1016E000699E100D789E100D11240352174F05505E
:1016F0001F4FD8016D917D918D919C9120E030E03C
:1017000040EA51E40E940B7B2FE632E143E852E4C9
:101710000E9457796B017C0106501040D8018D91D1
:101720009D910D90BC91A02D89839A83AB83BC833E
:10173000F801B290A29092908290C701B601A501E3
:1017400094010E94007B181614F4750164018FEF58
:1017500090E0689EF001699EF00D789EF00D1124D6
:10176000EB53F64F8081882321F4F7FAF094F7F8D1
:10177000F094C701B60129813A814B815C810E94B6
:1017800057791B012C01E89457F88FEF90E0689E81
:10179000F001699EF00D789EF00D1124E352F74F91
:1017A0002282338244825582E751FF4F80819181AA
:1017B000A281B381E95EF040868F978FA0A3B1A389
:1017C000C2AED3AEE4AEF5AEC701B60120E030E064
:1017D00040E050E00E94007B18164CF489819A8109
:1017E000AB81BC81B05889839A83AB83BC838FEF74
:1017F00090E0689E8001699E100D789E100D112466
:101800000352174F56E5652E712C600E711E8981AB
:101810009A81AB81BC81F30180839183A283B383DE
:101820000F2EF0E08F2EF0E09F2EF0E0AF2EF0E0D4
:10183000BF2EF02DD80116968D929D92AD92BC923E
:1018400019975E966D917D918D919C9191970E94D3
:10185000F2796B017C01C201B101F80122AD33AD17
:1018600044AD55AD0E940B7B9B01AC01C701B60195
:101870000E94C4786B017C0169817A818B819C8193
:1018800020E030E040E05FE30E940B7BA201910189
:101890000E940B7BA20191010E940B7B9B01AC017A
:1018A000C701B6010E94C4780E94BF796B017C0118
:1018B000D80192966D937D938D939C939597025C3E
:1018C0001F4FF80180829182A282B382045E1F4F73
:1018D000D8018D929D92AD92BC921397F3016081D5
:1018E00071818281938120E030E040E05FE30E94DB
:1018F0000B7BD3016D937D938D939C9313970D5622
:101900001F4FF801C082D182E282F3820950104059
:10191000D8018D929D92AD92BC921397F8011292CC
:1019200012920F900F900F900F90CF91DF911F9117
:101930000F91FF90EF90DF90CF90BF90AF909F906E
:101940008F907F906F905F904F903F902F90089571
:1019500080E090E070CE6F927F928F929F92AF92D4
:10196000BF92CF92DF92EF92FF920F931F93CF938C
:10197000DF938091D608882319F01092D608E8DF0B
:101980001092D7091092D6090F2EF0E0CF2EF0E07A
:10199000DF2EF0E0EF2EF0E0FF2EF02DC092D80900
:1019A000D092D909E092DA09F092DB091091D808B7
:1019B00010FF0AC18090BF099090C009E401CC0FCC
:1019C000DD1FCC0FDD1FC152D74F688179818A811D
:1019D0009B81A70196010E945079882361F4C092EF
:1019E000D809D092D909E092DA09F092DB091E7F7A
:1019F0001093D808E9C06091C1097091C209809123
:101A0000C3099091C4092DEC3CEC4CE45DE30E94C9
:101A1000C4787B018C016093C1097093C2098093E3
:101A2000C3099093C409A880B980CA80DB80A6014D
:101A300095010E94007B8823ACF0C801B701A60184
:101A400095010E94C3786093C1097093C209809385
:101A5000C3099093C409C40101969093C00980936F
:101A6000BF094C01C090C109D090C209E090C309E0
:101A7000F090C4098401000F111F000F111F0352C1
:101A8000174FF801668D778D80A191A10E94F279A0
:101A90004B015C01C701B601F80122AD33AD44AD85
:101AA00055AD0E940B7B9B01AC01C501B4010E94A6
:101AB000C4784B015C010A5A1F4FC701B601F801F7
:101AC00020813181428153810E940B7BA7019601C5
:101AD0000E940B7B9B01AC01C501B4010E94C4783C
:101AE0000E94BF793B014C018091C6099091C709C2
:101AF000A091C809B091C90964015301A81AB90A93
:101B0000CA0ADB0AD7FE08C0D094C094B094A0944F
:101B1000A11CB11CC11CD11CC601B5010E94F279E7
:101B200023E333E343E852E40E940B7B7B018C0107
:101B300020E03FEF4FE757E40E94007B1816ACF01F
:101B4000C801B70120E030E040E85FE30E9450792F
:101B50008823ACF40F2EF0E0EF2EF0E0FF2EF0E83B
:101B60000F2FFFE31F2FF02D0AC00F2EF0E0EF2EF6
:101B7000FFEFFF2EFFE70F2FF7E41F2FF02DE0926E
:101B8000D809F092D9090093DA091093DB09B092D1
:101B9000D709A092D60920E08091C6099091C70983
:101BA000A091C809B091C90986159705A805B9057E
:101BB0000CF421E02093C5096092C6097092C70910
:101BC0008092C8099092C90981E08093D208DF9180
:101BD000CF911F910F91FF90EF90DF90CF90BF902A
:101BE000AF909F908F907F906F9008952F923F922B
:101BF0004F925F926F927F928F929F92AF92BF921D
:101C0000CF92DF92EF92FF920F931F93DF93CF93C8
:101C1000CDB7DEB760970FB6F894DEBF0FBECDBF6D
:101C20008C0149875A876B877C873E872D878FEF8A
:101C300090E0089FF001099FF00D189FF00D11240E
:101C4000EB53F64F8081882359F40F2EF0E0CF2E0E
:101C5000F0E0DF2EF0EAEF2EF1ECFF2EF02D0AC0BF
:101C60000F2EF0E0CF2EF0E0DF2EF0EAEF2EF1E4C1
:101C7000FF2EF02D8FEF90E0089F9001099F300D0F
:101C8000189F300D11242352374F25503F4FD90153
:101C90002D903D904D905C9022513040D9018D9116
:101CA0009D910D90BC91A02D8D839E83AF83B887AD
:101CB00029853A854B855C8582179307A407B5076C
:101CC0002CF04FEF5FEF588B4F8704C081E090E01E
:101CD000988B8F87C201B10120E030E040E050E0F6
:101CE0000E945079882309F44AC18FEF90E0089F41
:101CF000F001099FF00D189FF00D1124EB53F64FE2
:101D0000808190E0AF85B889FC01AE9FC001AF9F94
:101D1000900DBE9F900D112497FF31C1C8018BDC3F
:101D20003CC18FEF90E0089FF001099FF00D189FD4
:101D3000F00D1124E352F74FEF50FF4F6190719077
:101D40008190919080819181A281B38189839A83CE
:101D5000AB83BC83C701B601A20191010E940B7B3A
:101D60002FE632E143E852E40E9457797B018C016F
:101D7000E89417F9C801B701A40193010E945079B2
:101D800087FD15C00F2EF0E06F2EF0E07F2EF0E003
:101D90008F2EF0E09F2EF02D0F2EF0E02F2EF0E092
:101DA0003F2EF0E04F2EFFE35F2EF02D35C0C40133
:101DB000B301A80197010E94C37829813A814B8120
:101DC0005C810E9457793B014C0120E030E040E00B
:101DD0005FE30E94507987FD15C00F2EF0E06F2E53
:101DE000F0E07F2EF0E08F2EFFE39F2EF02D0F2EE0
:101DF000F0E02F2EF0E03F2EF0E04F2EF0E05F2ECF
:101E0000F02D0AC060E070E080E09FE3A401930140
:101E10000E94C3781B012C0169817A818B819C818E
:101E2000A40193010E940B7B9B01AC01C801B70187
:101E30000E94C4785B016C01C801B701A401930141
:101E40000E940B7B7B018C0169817A818B819C8153
:101E500020E030E040E05FE30E940B7BA4019301AF
:101E60000E940B7BA40193010E940B7B9B01AC01A0
:101E7000C801B7010E94C4780E94BF790E94F2791C
:101E80007B018C01C201B101A60195010E940B7B6F
:101E90009B01AC01C801B7010E94C4780E94BF79C0
:101EA0000E94F2797B018C01C601B501A601950162
:101EB0000E940B7B20E030E040E05FE30E940B7B60
:101EC00029813A814B815C810E9457799B01AC0149
:101ED000C801B7010E94C4780E94BF79EF85F889D4
:101EE0009F01442737FD4095542F0E94047D2D818A
:101EF0003E814F815885620F731F841F951F4F8548
:101F000058894130510551F429853A854B855C85C6
:101F100026173707480759078CF40EC04F85588994
:101F20004F5F5F4F59F429853A854B855C85621771
:101F300073078407950714F4CA01B901AD85BE85FE
:101F40006D937D938D939C93139781E060960FB66C
:101F5000F894DEBF0FBECDBFCF91DF911F910F91DF
:101F6000FF90EF90DF90CF90BF90AF909F908F90B9
:101F70007F906F905F904F903F902F9008952985AC
:101F80003A854B855C858D819E81AF81B885281708
:101F900039074A075B0709F0C4CE80E0D7CF4F92DC
:101FA0005F926F927F928F929F92AF92BF92CF92E9
:101FB000DF92EF92FF920F931F93CF93DF932C0149
:101FC0007A018B018FEF90E0489EF001499EF00D61
:101FD000589EF00D1124E653F64FA080B180C280C8
:101FE000D380A416B506C606D7061CF0CFEFDFEFE8
:101FF00002C0C1E0D0E08FEF90E0489EF001499E22
:10200000F00D589EF00D1124E852F64F6081718159
:102010008281938120E030E040E050E00E945079DE
:10202000882319F0C20107DB90C0CE01880F991FE9
:102030003C01882477FC8094982CA60CB71CC81C03
:10204000D91CC130D10531F4EA14FB040C051D057F
:102050005CF408C0CF5FDF4F39F4AE14BF04C00694
:10206000D10614F4570168018FEF90E0489EF0010B
:10207000499EF00D589EF00D1124E95EF64F80E068
:1020800090E020E030E040E050E0F897208331839A
:1020900042835383F8962083318342835383248F72
:1020A000358F468F578F019634968730910569F7A3
:1020B0008FEF90E0489EF001499EF00D589EF00D84
:1020C0001124E352F74FEC51FF4F208331834283B9
:1020D0005383E45EF0408AE097EDA3E2BCE38283A1
:1020E0009383A483B583E751FF4F80819181A281BF
:1020F000B381E95EF040868F978FA0A3B1A3680EED
:10210000791E8A1E9B1E62A273A284A295A2EE5122
:10211000FF4F118210823B96A082B182C282D3828D
:10212000A816B906CA06DB0681F081E090E0A0E0BF
:10213000B0E004C0880F991FAA1FBB1F4A94D2F7B2
:102140002091D808282B2093D808DF91CF911F9198
:102150000F91FF90EF90DF90CF90BF90AF909F9046
:102160008F907F906F905F904F9008958091DC09E1
:1021700080688093DC0908958091DC0980648093F5
:10218000DC0908958091DC0980628093DC09089560
:102190008091DC0980618093DC0908958091DC09DD
:1021A00088608093DC0908958091DC0984608093C5
:1021B000DC09089560911F0470912004809121042E
:1021C000909122040E94F07920E030E04AE754E444
:1021D0000E9457799B01AC0160911703709118031D
:1021E0008091190390911A030E940B7B6093130353
:1021F00070931403809315039093160308956091D0
:102200001F047091200480912104909122040E9467
:10221000F07920E030E04AE754E40E9457799B01CE
:10222000AC01609113037091140380911503909198
:1022300016030E94577960931703709318038093D5
:10224000190390931A0308956091C40270E080E02E
:1022500090E02091C9023091CA024091CB02509186
:10226000CC020E94047D60932B0470932C04809315
:102270002D0490932E040E94F0799B01AC01609193
:10228000CD027091CE028091CF029091D0020E9437
:1022900057796093130370931403809315039093FD
:1022A000160380911504813029F48091C30288239C
:1022B00009F4A5CF0895EF92FF920F931F937B012E
:1022C0008C01809148042091390430913A04409166
:1022D0003B0450913C0483FF05C02E193F09400B7D
:1022E000510B04C02E0D3F1D401F511F2093390478
:1022F00030933A0440933B0450933C041F910F9158
:10230000FF90EF900895EF92FF920F931F93CF935A
:10231000DF93C8EED6E00F2EF0E0EF2EF0E0FF2EB8
:10232000F0E00F2FF0E01F2FF02D699170E088276B
:1023300077FD8095982F0E94F2799B01AC01C8012E
:10234000B7010E94C4787B018C0186E0C23FD807A8
:1023500061F7C801B70120E030E040E251E40E949B
:1023600057797B018C0120E030E040E050E00E9492
:10237000007B88234CF0C801B70120E030E040E04A
:102380005FE30E94C47808C0C801B70120E030E0D4
:1023900040E05FE30E94C3780E94BF79862FDF91FF
:1023A000CF911F910F91FF90EF900895823061F0CF
:1023B000833028F4882351F0813011F522C0833016
:1023C000D9F08430E9F41AC085E1089580911504AC
:1023D00090911404882341F4913011F48FE0089512
:1023E000992371F480E10895913011F48BE0089500
:1023F000992331F48CE0089586E1089587E10895EA
:10240000089584E108952091C0023091C10224FF13
:1024100016C08091BE07882349F48091C20286FFCE
:1024200005C020623093C1022093C0028091C00297
:102430009091C1028F7E9093C1028093C002089553
:102440008091C0029091C1028D7F806491609093D1
:10245000C1028093C00210920C0A10920B0A0895D8
:102460009091090A992341F480910C0A882321F460
:1024700080910B0A882349F09093C0031092090AB7
:1024800010920C0A10920B0A81E008952F923F924D
:102490004F925F926F927F928F929F92AF92BF9274
:1024A000CF92DF92EF92FF920F931F93DF93CF9320
:1024B000CDB7DEB72A970FB6F894DEBF0FBECDBFFB
:1024C0009A87898749835A836B837C830D831E8314
:1024D0002F83388780913E038530C1F5A985BA8561
:1024E0002D913D914D915C91283EB3E03B07B0E0CA
:1024F0004B07B0E05B0708F47BC0DA01C901885ED6
:102500009340A040B0408834E1E79E07E0E0AE078A
:10251000E0E0BE0708F450C0DA01C90180539547D6
:10252000A040B0408033F5E79F07F0E0AF07F0E050
:10253000BF0708F456C020563A4E4040504020563F
:102540003D434840504008F445C03DC0843009F048
:1025500054C0A985BA852D913D914D915C91203251
:10256000B2E13B07BAE04B07B0E05B0760F5DA0188
:10257000C90188549E4EA040B040883DE3E29E07CA
:10258000E9E0AE07E0E0BE0728F1DA01C9018851B1
:102590009947A040B0408033F5E79F07F0E0AF07D0
:1025A000F0E0BF07F0F0245C394040405040245533
:1025B0003F4640405040E0F434EF232E31E0332ECC
:1025C000412C512C1AC020E6222E2AEE322E412C0C
:1025D000512C13C090E1292E97E2392E412C512C19
:1025E0000CC008EE202E03E0302E412C512C05C0EB
:1025F00011E0212E312C412C512CA985BA85AD90AA
:10260000BD90CD90DC90B1EDAB16B7E0BB06B0E06D
:10261000CB06B0E0DB0610F58091FF02682F70E07A
:10262000A9EDB2E0E0E0F0E016C08D919D919C0133
:10263000442737FD4095542F2A153B054C055D0571
:1026400048F0A985BA852D933D934D935C931397DC
:102650008E2F04C03196E617F7073CF320913E0316
:10266000253009F0A2C0E985FA85A080B180C2803A
:10267000D3802D813E814F815885A216B306C406B2
:10268000D50630F0211531054105510509F02DC160
:1026900030EDA31637E0B30630E0C30630E0D306D2
:1026A000C8F4E82FF0E08091FF0290E00197E8176E
:1026B000F9072CF4EE0FFF1FE552FD4F9BC080ED94
:1026C00097E0A0E0B0E0E985FA8580839183A2835A
:1026D000B38302C16090DD097090DE098090DF094C
:1026E0009090E0092D813E814F815885211531055B
:1026F00041055105B9F40894611C711C811C911CA1
:10270000C201B101A40193010E94047DA60EB71E6F
:10271000C81ED91EA985BA85AD92BD92CD92DC9214
:102720001397C3C0ED80FE800F811885EA18FB085F
:102730000C091D09C201B101A40193010E94047D8D
:102740006E157F058007910758F5C201B1010E94FF
:10275000F0797B018C01C601B5010E94F0795B0123
:102760006C01C401B3010E94F0799B01AC01C80166
:10277000B7010E940B7B9B01AC01C801B7010E940D
:10278000C4789B01AC01C601B5010E94C4780E94C7
:10279000C479E985FA85608371838283938385C0D8
:1027A0002D813E814F81588579C0243009F09DC02C
:1027B000E985FA85A080B180C280D38029813A81E1
:1027C0004B815C812A153B054C055D0508F08DC0E9
:1027D00031EDA31637E0B30630E0C30630E0D30690
:1027E00080F4882309F478C0E82FF0E0EE0FFF1F93
:1027F000E952FD4F80819181AA2797FDA095BA2FBC
:1028000062CF6090DD097090DE098090DF099090C2
:10281000E0098601750129813A814B815C81E21AC8
:10282000F30A040B150BC201B101A40193010E942C
:10283000047D6E157F058007910760F5C201B10127
:102840000E94F0797B018C01C601B5010E94F079EC
:102850005B016C01C401B3010E94F0799B01AC01E2
:10286000C801B7010E940B7B9B01AC01C801B701F5
:102870000E94C4789B01AC01C601B5010E94C378D7
:102880000E94C479A985BA856D937D938D939C939D
:1028900013970BC029813A814B815C81A985BA8548
:1028A0002D933D934D935C931397E985FA85608151
:1028B000718182819381A20191010E94567DCA019A
:1028C000B901A20191010E94047DA985BA856D9389
:1028D0007D938D939C9313978091C0029091C10238
:1028E00080619093C1028093C00220911F043091B7
:1028F00020044091210450912204E985FA858081C9
:102900009181A281B381281739074A075B0720F418
:1029100020833183428353832A960FB6F894DEBF17
:102920000FBECDBFCF91DF911F910F91FF90EF9020
:10293000DF90CF90BF90AF909F908F907F906F90DF
:102940005F904F903F902F9008952F923F924F921B
:102950005F926F927F92AF92BF92CF92DF92EF928F
:10296000FF920F931F93DF93CF93CDB7DEB762979C
:102970000FB6F894DEBF0FBECDBF9A8B898B762E33
:10298000B42EA22E602E80913E03853009F08AC0BD
:10299000A989BA890C91201728F4222329F06620EE
:1029A000D1F411C12223B9F4672D70E080E090E0EA
:1029B0002091DD093091DE094091DF095091E00955
:1029C0002F5F3F4F4F4F5F4F0E94047D060FE989F5
:1029D000FA890083DCC0C02EDD248091DD0990914E
:1029E000DE09A091DF09B091E0098D839E83AF835A
:1029F000B887EA2CFF24EC18FD080027F7FC0095A7
:102A0000102F272C332444245524C201B1012D81D9
:102A10003E814F8158850E94047D6E157F05800799
:102A20009107B0F5B601882777FD8095982F0E9411
:102A3000F27969877A878B879C87672D70E0882772
:102A400077FD8095982F0E94F2795B016C01C2019D
:102A5000B1010E94F0797B018C016D817E818F81B3
:102A600098850E94F0799B01AC01C801B7010E94D2
:102A70000B7B9B01AC01C601B5010E94C4789B0190
:102A8000AC0169857A858B859C850E94C47870C06D
:102A9000662021F0E989FA89B08279C0A989BA89CA
:102AA000AC9275C0843009F08EC0A989BA89EC90C7
:102AB000E41618F4002309F486C0CE2CDD2480919E
:102AC000DD099091DE09A091DF09B091E0098983C9
:102AD0009A83AB83BC837601EB18F1080027F7FCDF
:102AE0000095102F272C332444245524C201B10112
:102AF00029813A814B815C810E94047D6E157F059E
:102B000080079107D8F5B601882777FD8095982F23
:102B10000E94F2796D877E878F87988B672D70E092
:102B2000882777FD8095982F0E94F2795B016C01D0
:102B3000C201B1010E94F0797B018C0169817A8127
:102B40008B819C810E94F0799B01AC01C801B70187
:102B50000E940B7B9B01AC01C601B5010E94C478A9
:102B60009B01AC016D857E858F8598890E94C37815
:102B70000E94C479A989BA896C9309C0662021F0A2
:102B8000E989FA89A08203C0A989BA89BC92E98936
:102B9000FA89808190E0672D70E00E942F7D872D5B
:102BA00090E09C01629FC001639F900D729F900D09
:102BB000112480838091C0029091C1028061909322
:102BC000C1028093C00262960FB6F894DEBF0FBEBA
:102BD000CDBFCF91DF911F910F91FF90EF90DF90CC
:102BE000CF90BF90AF907F906F905F904F903F904D
:102BF0002F9008952F923F924F925F926F927F9203
:102C00008F929F92AF92BF92CF92DF92EF92FF92FC
:102C10000F931F93DF93CF9300D00F92CDB7DEB702
:102C20001C017A8369834A013C832B8380913E0394
:102C3000853009F06FC0F101808091808216930683
:102C400018F0232B29F0DBC02B813C81232BC1F40E
:102C5000E981FA81BF01882777FD8095982F20911F
:102C6000DD093091DE094091DF095091E0092F5FC5
:102C70003F4F4F4F5F4F0E94047D860E971EA1C0AD
:102C80004090DD095090DE096090DF097090E00906
:102C9000EB80FC80E818F90800E010E029813A8117
:102CA0005901CC24B7FCC094DC2CC601B501A301AA
:102CB00092010E94047D6E157F058007910720F523
:102CC000C601B5010E94F2797B018C01B40180E05C
:102CD00090E00E94F0795B016C01C301B2010E9497
:102CE000F0799B01AC01C801B7010E940B7B9B01ED
:102CF000AC01C801B7010E94C4789B01AC01C601B8
:102D0000B5010E94C47857C02B813C81F101318309
:102D100020835AC0843009F072C0F1010190F08123
:102D2000E02DFC83EB834E175F0708F068C04090EE
:102D3000DD095090DE096090DF097090E0097F01A5
:102D4000E41AF50A00E010E029813A815901CC2407
:102D5000B7FCC094DC2CC601B501A30192010E940E
:102D6000047D6E157F058007910758F5C601B501F2
:102D70000E94F2797B018C01EB81FC81BF0180E034
:102D800090E00E94F0795B016C01C301B2010E94E6
:102D9000F0799B01AC01C801B7010E940B7B9B013C
:102DA000AC01C801B7010E94C4789B01AC01C60107
:102DB000B5010E94C3780E94C479F10171836083D8
:102DC00003C0F10191828082F1018081918169814A
:102DD0007A810E942F7D29813A81629FC001639F81
:102DE000900D729F900D1124918380838091C00279
:102DF0009091C10280619093C1028093C0020F90B4
:102E00000F900F900F90CF91DF911F910F91FF9036
:102E1000EF90DF90CF90BF90AF909F908F907F907A
:102E20006F905F904F903F902F9008952F923F9218
:102E30004F925F926F927F928F929F92AF92BF92CA
:102E4000CF92DF92EF92FF920F931F93DF93CF9376
:102E5000CDB7DEB72E970FB6F894DEBF0FBECDBF4D
:102E60009E878D873A014B010D831E832F83388700
:102E70001601270180913E03853009F093C0AD858E
:102E8000BE85AD90BD90CD90DC90A214B304C40477
:102E9000D50430F0211431044104510431F00BC148
:102EA0002114310441045104D9F4A60CB71CC81CE8
:102EB000D91C2091DD093091DE094091DF09509144
:102EC000E009C401B3010E94047DA60EB71EC81E0E
:102ED000D91EED85FE85A082B182C282D38253C005
:102EE0008091DD099091DE09A091DF09B091E009A0
:102EF00089839A83AB83BC8382017101EA18FB0842
:102F00000C091D09CB01BA0129813A814B815C81F1
:102F10000E94047D6E157F058007910770F5C4013E
:102F2000B3010E94F2797B018C01C601B5010E94B8
:102F3000F0795B016C0169817A818B819C810E94AF
:102F4000F0799B01AC01C801B7010E940B7B9B018A
:102F5000AC01C801B7010E94C4789B01AC01C60155
:102F6000B5010E94C4780E94C479AD85BE856D9379
:102F70007D938D939C93139706C0ED85FE852082EB
:102F8000318242825382AD85BE856D917D918D9156
:102F90009C919301A4010E94567DCA01B90193013D
:102FA000A40178C0843009F086C0AD85BE85AD909F
:102FB000BD90CD90DC908D819E81AF81B8858A15C2
:102FC0009B05AC05BD0508F076C02090DD0930906A
:102FD000DE094090DF095090E00949877A868B86A8
:102FE0009C8686017501E81AF90A0A0B1B0BBA01C7
:102FF000C401A20191010E94047D6E157F05800726
:10300000910760F5C401B3010E94F2797B018C0144
:10301000C601B5010E94F0795B016C01C201B101EA
:103020000E94F0799B01AC01C801B7010E940B7BA3
:103030009B01AC01C801B7010E94C4789B01AC019F
:10304000C601B5010E94C3780E94C479AD85BE85D2
:103050006D937D938D939C9313970AC08D819E8170
:10306000AF81B885ED85FE8580839183A283B3838C
:10307000AD85BE856D917D918D919C9129853A8517
:103080004B855C850E94567DCA01B90129853A8528
:103090004B855C850E94047DED85FE856083718390
:1030A000828393838091C0029091C102806190934A
:1030B000C1028093C0022E960FB6F894DEBF0FBEF9
:1030C000CDBFCF91DF911F910F91FF90EF90DF90D7
:1030D000CF90BF90AF909F908F907F906F905F90B8
:1030E0004F903F902F9008952F923F924F925F9272
:1030F0006F927F928F929F92AF92BF92CF92DF9208
:10310000EF92FF920F931F93DF93CF93CDB7DEB76C
:1031100028970FB6F894DEBF0FBECDBF1C014A0141
:103120005B010D831E832F83388780913E0385309A
:1031300009F084C0D1018D919D910D90BC91A02D7D
:1031400089839A83AB83BC83BC01CD01A70196011F
:103150000E94507987FD0BC0C701B60120E030E026
:1031600040E050E00E945079882359F0D8C0C70150
:10317000B60120E030E040E050E00E945079882322
:1031800021F56091DD097091DE098091DF09909150
:10319000E0090E94F0799B01AC01C501B4010E94D5
:1031A0000B7B9B01AC01C501B4010E94C4789B015B
:1031B000AC0169817A818B819C810E94C478F10184
:1031C0006083718382839383A1C06091DD097091D4
:1031D000DE098091DF099091E0090E94F079A50154
:1031E00094010E940B7B2B013C01C701B601298190
:1031F0003A814B815C810E94C378A30192010E94B5
:10320000007B1816ACF4C501B401A30192010E9421
:10321000C4789B01AC0169817A818B819C810E9479
:10322000C478D1016D937D938D939C9313976EC059
:10323000F101C082D182E282F38268C0843009F059
:103240006EC0D101CD90DD90ED90FC90C701B6012C
:103250002D813E814F8158850E94007B18160CF00D
:103260005EC06091DD097091DE098091DF09909167
:10327000E0090E94F079A50194010E940B7B2B01CB
:103280003C01C701B6012D813E814F8158850E94C6
:10329000C378A30192010E94007B181694F4C50123
:1032A000B401A30192010E94C4789B01AC01C70143
:1032B000B6010E94C378F101608371838283938396
:1032C00009C08D819E81AF81B885F1018083918392
:1032D000A283B3836D817E818F819885A50194013E
:1032E0000E94C4789B01AC01D1016D917D918D91BB
:1032F0009C910E94507988234CF48D819E81AF81EE
:10330000B885F10180839183A283B3838091C00249
:103310009091C10280619093C1028093C00228966F
:103320000FB6F894DEBF0FBECDBFCF91DF911F91D6
:103330000F91FF90EF90DF90CF90BF90AF909F9054
:103340008F907F906F905F904F903F902F90089557
:10335000FC0180913E038450823098F481E090E03B
:1033600002C0880F991F6A95E2F7208128272083E1
:103370008091C0029091C10280619093C1028093BC
:10338000C00208958BEF96E066E043EA5CE00E949D
:103390002D5B809115048093B3070895DF92EF921F
:1033A000FF920F931F93CF93DF93D82E8091040841
:1033B000909105088230910509F49FC083309105F2
:1033C00034F4009769F0019709F04AC128C08330AE
:1033D000910509F432C18436910509F041C132C129
:1033E0008DE0D81609F440C19AE0D91609F43CC121
:1033F00081E090E09093050880930408909307087B
:1034000080930608109208081092090810920A0882
:1034100010920B0810920C0810920D0825C1809193
:103420000308883631F4E9E6DE1609F019C18AE0AE
:103430000DC08D3629F4F3E7DF1659F48EE106C08E
:10344000833761F481E6D81609F582E38093080892
:10345000F6C09DE6D91651F488E246C08E3661F476
:10346000E0E7DE1609F0FCC08FE13EC0F0E7DF16B2
:1034700009F0F6C08BE238C08A3731F48DE6D816F1
:1034800009F0EEC08CE230C0833731F49DE6D916E6
:1034900009F0E6C08AE228C0803731F4E2E7DE16A0
:1034A00009F0DEC089E220C0823631F4F6E6DF168C
:1034B00009F0D6C08CE318C0873631F48FE6D816F1
:1034C00009F0CEC08DE3C2CF8A3631F49DE6D9161D
:1034D00009F0C6C086E408C0893609F0C1C0EDE62F
:1034E000DE1609F0BDC087E48093080882E090E012
:1034F0009093050880930408B7C09D2D90539A308F
:1035000020F0FDE2DF1609F069C0809103088032E7
:10351000D1F5809109088F5F80930908883248F0BF
:1035200085E69CE060E072E00E945A7883E090E0DB
:10353000DFCFE82FF0E0EE0FFF1FEE0FFF1FEA5F77
:10354000F74F10821182128213828DE2D81639F45D
:103550008FEF9FEF909307088093060885C081E066
:1035600090E090930708809306088D2D992787FD9A
:103570009095C097AA2797FDA095BA2F8083918335
:10358000A283B38371C09A3048F560910908C62FB1
:10359000D0E0CC0FDD1FCC0FDD1FCA5FD74FED2C65
:1035A000FF24E7FCF094E0EDFFEFEE0EFF1E002796
:1035B000F7FC0095102F688179818A819B812AE030
:1035C00030E040E050E00E94047DE60EF71E081F48
:1035D000191FE882F9820A831B8346C0F0E2DF16D6
:1035E00021F08DE0D81609F03FC080910308805388
:1035F0008A30F8F4009109080023D9F010E0000F98
:10360000111F000F111F0A5F174F209106083091FC
:103610000708442737FD4095542FF80160817181D8
:10362000828193810E94047DF8016083718382838B
:103630009383FDE0DF16C1F402C01092080884E60F
:1036400090E056CF8AE0D81679F4809103088D3047
:1036500059F480910808109205081092040805C0DA
:10366000109205081092040880E0D0920308DF91C0
:10367000CF911F910F91FF90EF90DF900895DF920F
:10368000EF92FF920F931F93CF93DF93182FF62E95
:1036900086E19AE06DE74BE023E000E4EE240E942F
:1036A000AB62112309F45AC080910B0AFF2011F07C
:1036B000182F03C010910C0A181B00910D0A063038
:1036C00018F470E3D72E17C0602F70E080E090E010
:1036D0000E94F0799B01AC0160E070E080EA90E428
:1036E0000E94577920E030E040E452E40E940B7BD6
:1036F0000E94C479D62E612F70E080E090E0C02F48
:10370000D0E0FF2031F00E94F0797B018C012297FC
:1037100005C00E94F0797B018C012197BE018827AA
:1037200077FD8095982F0E94F2799B01AC01C8012A
:10373000B7010E94577920E030E040E452E40E9453
:103740000B7B0E94C479462F435F86E19AE06EE7C7
:1037500021E00D2DEE24EA940E94AB62DF91CF911F
:103760001F910F91FF90EF90DF900895BF92CF923D
:10377000DF92EF92FF920F931F93182FD62E042FF4
:1037800080913603B5E0BB2EB10E8823F1F1809114
:10379000E70687FF3AC0A8E0FA2EF60EF2E0EF2E19
:1037A000E10E4423C9F086E19AE069ED79E0412F0A
:1037B0002D2D0FEF0E94C76286E19AE0612F4F2DF9
:1037C00024E000E00E94956286E19AE06E2D4F2D84
:1037D0002FEF0E9424675BC086E19AE069ED79E0F3
:1037E000412F2D2D00E00E94C76286E19AE0612FF3
:1037F0004F2D24E00FEF0E94956286E19AE06E2D36
:103800004F2D20E00E9424673BC00E948311E82EC8
:10381000E8E0FE2EFD0CC12EC3940023F1F086E1FA
:103820009AE060EE79E0412F2D2D0FEF0E94C762E4
:103830004F2D4E1986E19AE06C2D22E00E2DEE24DC
:10384000EA940E94AB6286E19AE0612F4F2D1C5FE3
:10385000212F0F2D0E9426631AC086E19AE060EEA8
:1038600079E0412F2D2D00E00E94C762FE1886E10D
:103870009AE06C2D4F2D22E00E2DEE240E94AB62BB
:1038800086E19AE06B2D4D2D29E00FEF06C086E111
:103890009AE06B2D4D2D29E000E00E949F621F9160
:1038A0000F91FF90EF90DF90CF90BF90089590918F
:1038B0004804882331F098609093480483E261E0E3
:1038C00005C0977F9093480483E260E00C942572D2
:1038D0001F920F920FB60F920BB60F9211242F93D7
:1038E0003F934F935F936F937F938F939F93AF9388
:1038F000BF93CF93DF93EF93FF9390E08091D9082C
:10390000882309F491E09093D908992311F140910B
:10391000CE085091CF084115510509F476C0209189
:10392000CC083091CD088091D0089091D108820FB9
:10393000931F9093CD088093CC088217930708F0CB
:1039400064C0415050405093CF084093CE08449AF1
:103950005CC08091D3089091D40801969093D408CC
:103960008093D308885E934009F04EC01092D4082B
:103970001092D3088091D508882319F08150809344
:10398000D508C0913C03D0913D0388819981892B52
:10399000A9F06091D8097091D9098091DA099091C4
:1039A000DB0920E030E040E050E00E9450798823BD
:1039B00029F48091D70881608093D708E0913A0379
:1039C000F0913B038091D6099091D7099183808330
:1039D0006091D8097091D9098091DA099091DB0939
:1039E0000E94C479798368836091C5098091DE085B
:1039F0000E942572E0913803F09139038FEF9FEF19
:103A0000918380831092D2084498FF91EF91DF91C7
:103A1000CF91BF91AF919F918F917F916F915F9166
:103A20004F913F912F910F900BBE0F900FBE0F90B3
:103A30001F90189588E060E00E94257289E060E0A0
:103A40000E94257280912F048F7D80932F0408950A
:103A50000F931F93182F062F442321F08BEF96E02E
:103A60006CEB07C08BEF96E00E94C55B682F8BEF75
:103A700096E047E0212F0E94585F1F910F91089513
:103A800080911C0390911D03A0911E03B0911F0310
:103A90000097A105B10579F08091160481608093AB
:103AA00016040E94BA6F60931704709318048093F1
:103AB000190490931A0408958091F9099091FA09D4
:103AC000A091FB09B091FC090097A105B10511F483
:103AD00080E00895809116048260809316040E940D
:103AE000BA6F60931704709318048093190490932D
:103AF0001A0481E00895EF92FF920F931F93609153
:103B0000230470912404809125049091260420912F
:103B10001F043091200440912104509122040E94FE
:103B2000047D7B018C018091490490914A04A0910D
:103B30004B04B0914C04E80EF91E0A1F1B1F0E9493
:103B4000BA6F20E06E157F058007910708F021E02D
:103B5000822F1F910F91FF90EF90089580912F0475
:103B6000806280932F0480FF03C088E061E002C080
:103B700088E060E00E94257289E061E00E94257281
:103B80000E94BA6F6093170470931804809319040D
:103B900090931A04089588E061E00E9425720E94C3
:103BA000BA6F60931704709318048093190490936C
:103BB0001A04809116048064809316040895EF928D
:103BC000FF920F931F938BEF96E00E94535B882325
:103BD00089F18BEF96E00E947D5B882359F18091FB
:103BE0001504813039F5E090C502F090C6020091CD
:103BF000C7021091C8028BEF96E06CEB47E020E221
:103C00000E94E75EE090C902F090CA020091CB02E8
:103C10001091CC028BEF96E06CEB47E021E20E9422
:103C2000E75E8BEF96E06CEB47E022E20091C40286
:103C30000E94585F1F910F91FF90EF9008951F937E
:103C4000182F8BEF96E00E947D5B8823A9F08BEF05
:103C500096E00E94535B882379F089E16091150416
:103C6000412FF6DE87E06091C302412FF1DE86E34B
:103C700060911404412FECDE1F910895E82FF0E0CD
:103C8000EE0FFF1FE359F74F2591349184E1689FB0
:103C9000B0011124CB01835B9B4FB9010C94217FB0
:103CA0006F927F928F929F92AF92BF92CF92DF924C
:103CB000EF92FF920F931F93DF93CF93CDB7DEB7B1
:103CC00066970FB6F894DEBF0FBECDBFFC01A08093
:103CD000B180C280D3808CE2A81681E0B80680E073
:103CE000C80680E0D80628F58091FF02482F50E0F2
:103CF000E9EDF2E020E030E00FC081919191AA2738
:103D000097FDA095BA2F8A159B05AC05BD0510F04F
:103D1000822F05C02F5F3F4F2417350774F38D584E
:103D200060E0ACDFCE0101966DE474E00E94337F69
:103D3000CBC05CE0652E712C6C0E7D1E80E6A81653
:103D40008AEEB80680E0C80680E0D80608F04FC0CA
:103D5000C601B5010E94F07920E030E04AE754E462
:103D60000E9457797B018C010E94C4795B016C0130
:103D7000862F90E04E010894811C911CB4014AE00A
:103D800050E00E943A7FC40167EC73E00E94287FF4
:103D9000C801B70120E030E040E251E40E940B7B13
:103DA0007B018C012A2D30E0B90143E0660F771FBB
:103DB0004A95E1F7220F331F620F731F882777FDA3
:103DC0008095982F0E94F2799B01AC01C801B70140
:103DD0000E94C3780E94C479DC01CB0190E0B3015A
:103DE0004AE050E00E943A7FC401B30162C0C601BC
:103DF000B50120E63AEE40E050E00E94567D7901A0
:103E00008A01C801B70120E63AEE40E050E00E9486
:103E1000047DA61AB70AC80AD90AC601B50128EE58
:103E200033E040E050E00E94567D59016A01C7012D
:103E3000B3014AE050E00E943A7F4E010894811C91
:103E4000911C8AE0E816F1040105110550F4C40143
:103E500063EC73E00E94337FC401B3010E94287FAA
:103E600004C0C401B3010E94337F87E260E006DF33
:103E70004E010894811C911CC4016DE474E00E9401
:103E8000287FC501BE01645F7F4F4AE050E00E9479
:103E90003A7F8AE0A816B104C104D10428F4C40111
:103EA00063EC73E00E94287FCE010196BE01645F3F
:103EB0007F4F0E94287F84E460E0E0DECE0101961F
:103EC0006DE474E00E94287FCE01019666960FB6DD
:103ED000F894DEBF0FBECDBFCF91DF911F910F9140
:103EE000FF90EF90DF90CF90BF90AF909F908F901A
:103EF0007F906F900895EF920F931F93182F81E892
:103F000060E0BCDE82E861E0B9DE83E862E0B6DE54
:103F100080910C0A882309F087C0143009F084C00E
:103F20008091160483FD80C086E19AE060E04DE058
:103F30002EE108E0EE24EA940E94AB6286E19AE06A
:103F400060E00E94F46786E19AE06AE04EE00E9439
:103F5000E26786E19AE061E674E00E945A78809117
:103F60000C0A882309F06DC0143009F46AC01530BA
:103F700009F467C08091160483FD63C086E19AE06E
:103F80006FE14DE02DE308E0EE24EA940E94AB627D
:103F900086E19AE060E00E94F46786E19AE06DE4D1
:103FA00074E00E944C6886956FE3681B86E19AE096
:103FB0004EE00E94E26786E19AE06DE474E00E94C0
:103FC0005A7880910C0A882309F048C0153009F00E
:103FD00045C08091160483FD41C086E19AE06DE5FD
:103FE0004DE02EE108E0EE24EA940E94AB6286E107
:103FF0009AE060E00E94F46786E19AE068E64EE0AD
:104000000E94E26786E19AE065E774E00E945A78D0
:1040100086E19AE060E046E12DE700E00E949562CB
:104020001F910F91EF90089586E19AE060E04DE0D6
:104030002EE108E0EE240E94AB6286E19AE06FEF89
:1040400080CF86E19AE06FE14DE02DE308E0EE24B9
:104050000E94AB6286E19AE06FEF9DCF86E19AE025
:104060006DE54DE02EE108E0EE240E94AB6286E1B2
:104070009AE06FEFBFCF0F931F9306E11AE0C801DC
:1040800060E00E94F467C80163E542E00E94E267D5
:1040900080E860E0F3DDC8016DE474E00E945A78C6
:1040A0001F910F910895DF92EF92FF920F931F934C
:1040B000CF93DF938091090A0E94D611E82E1092C7
:1040C0000D0AC4E4D3E0DD24D39428812E1509F031
:1040D00083C09981953169F480911504813049F448
:1040E00010E08091C302811111E01D25012F10E025
:1040F00002C000E010E0273159F4903209F073C09B
:1041000080911404813009F46EC00B5F1F4F6BC0A7
:104110002C3009F068C0923409F065C08BEF96E04E
:104120000E94535B882371F08BEF96E00E94535BF3
:10413000882309F458C08BEF96E00E947D5B8823AA
:1041400009F051C0FF24F3948881843159F48981A6
:104150008A3641F48BEF96E00E94535B882311F47A
:10416000FF24F39488818031B9F489818234A1F4E9
:104170008BEF96E00E94535B882361F08BEF96E013
:104180000E94535B882341F08BEF96E00E947D5B99
:10419000882311F4FF24F3948881843149F48981C0
:1041A0008A3631F48BEF96E00E94535B8823A1F0AE
:1041B000FF2091F4102F8981800F60910D0A5EDD40
:1041C00090910D0AE92FF0E0E353F94F8981180F20
:1041D00010839F5F90930D0A229683E0C03CD8071E
:1041E00009F073CF02C0FF24AFCFDF91CF911F91B1
:1041F0000F91FF90EF90DF900895909131039436E6
:1042000021F484E061E00C9425728FEF989FC00147
:10421000112464E670E00E94437D84E00C94B27047
:1042200088E30E947E702091E706C39714F020680F
:1042300001C02F772093E70608959F92AF92BF9217
:10424000CF92DF92EF92FF920F931F93982E80915F
:104250000C0A882309F075C08091090A882309F0A7
:1042600070C08091480481FD6CC02BC00E94F07921
:104270007B018C01C601B5010E94F0799B01AC0164
:10428000C801B7010E9457797B018C01CB01D8018D
:104290008093ED099093EE09A093EF09B093F00994
:1042A0009920D9F0B701C8010E94BE7B0E94BE7B55
:1042B0006093ED097093EE098093EF099093F009F4
:1042C0000CC080E090E0A0E8BFE38093ED099093FC
:1042D000EE09A093EF09B093F0096091200370916B
:1042E0002103809122039091230320912403309194
:1042F00025034091260350912703621B730B840B07
:10430000950B0E94F0792091ED093091EE094091D2
:10431000EF095091F0090E940B7B0E94C4796093D1
:10432000E9097093EA098093EB099093EC091F91D6
:104330000F91FF90EF90DF90CF90BF90AF909F9044
:1043400008956091F9097091FA098091FB099091A3
:10435000FC09A0900B03B0900C03C0900D03D0900B
:104360000E036A157B058C059D0508F47FCFA9CF48
:104370002F923F924F925F926F927F928F929F9275
:10438000AF92BF92CF92DF92EF92FF920F931F9363
:10439000DF93CF93CDB7DEB7A2970FB6F894DEBF09
:1043A0000FBECDBF1C01498F5A8F6B8F7C8F8FEF53
:1043B00090E0289E9001299E300D389E300D1124EA
:1043C000295E364F3A832983F90180E090E020E0AE
:1043D00030E040E050E0F8972083318342835383FC
:1043E000F8962083318342835383248F358F468F01
:1043F000578F019634968730910569F78FEF90E0DB
:10440000289EB001299E700D389E700D11246352B4
:10441000774F6C517F4FDB012D933D934D935C9310
:1044200013976B5F7F4FDB012D913D914D915C9117
:104430002D8B3E8B4F8B588F695E7040FB01268F12
:10444000378F40A351A36F507F4FDB01ED90FD905C
:104450000D911D918D919D910D90BC91A02D898BF9
:104460009A8BAB8BBC8BC801B70129893A894B89E0
:104470005C890E9457796D877E878F87988BC801EA
:10448000B7012D853E854F8558890E940B7B698732
:104490007A878B879C87698D7A8D8B8D9C8D2D89F2
:1044A0003E894F89588D621B730B840B950B97FFC8
:1044B00007C090958095709561957F4F8F4F9F4F66
:1044C0000E94F2796D837E838F839887898D9A8D80
:1044D000AB8DBC8D2D893E894F89588D28173907A2
:1044E0004A075B072CF04FEF5FEF5C834B8304C000
:1044F00081E090E09C838B838FEF90E0289E800189
:10450000299E100D389E100D11240352174F05508F
:104510001F4FD8018D909D90AD90BC900B5F1040C7
:10452000C501B40120E030E040EA50E40E94007B85
:1045300018160CF027C1F801E851FF4F808188233D
:1045400029F460E070E080EA91EC04C060E070E083
:1045500080EA91E4A50194010E940B7B2FE632E1F1
:1045600043E852E40E9457796B017C0129893A891A
:104570004B895C890E9457792B013C01E89477F8BC
:1045800069897A898B899C8920E030E040E05FE38B
:104590000E940B7BA30192010E940B7BA30192015D
:1045A0000E940B7B6D8F7E8F8F8F98A3EB81FC8198
:1045B000BF01882777FD8095982F0E94F2794B01E3
:1045C0005C01C701B601A50194010E940B7B20E0AC
:1045D00030E040E050E00E9450798823BCF58FEF36
:1045E00090E0289E8001299E100D389E100D112408
:1045F0000352174FD80112964D925D926D927C92A4
:1046000015970B501F4FC501B401F801208131816E
:10461000428153810E940B7B0F591040D8016D934A
:104620007D938D939C93139706551040F801C2AE6D
:10463000D3AEE4AEF5AE6D817E818F8198852D8DF0
:104640003E8D4F8D58A10E94C47850C06D817E81EF
:104650008F8198852D8D3E8D4F8D58A10E94507968
:1046600088230CF04BC08FEF90E0289E8001299E9C
:10467000100D389E100D11240352174FD8011296B9
:104680004D925D926D927C921597EB81FC81F09535
:10469000E195FF4FFC83EB83BF01882777FD809571
:1046A000982F0E94F2790B501F4FD8012D913D9108
:1046B0004D915C910E940B7B0F591040F801608373
:1046C00071838283938306551040D801DA96CD9288
:1046D000DD92ED92FC92DD976D8D7E8D8F8D98A190
:1046E0002D813E814F8158850E94C3786D837E83E2
:1046F0008F83988741E0642E712C46C06D817E8146
:104700008F8198852D8D3E8D4F8D58A10E94C47844
:104710006D837E838F8398878FEF90E0289E600162
:10472000299ED00C389ED00C1124EDEDF8E0CE0E71
:10473000DF1E6D897E898F89988D0E94F2797B01B9
:104740008C01C501B4012D8D3E8D4F8D58A10E9465
:104750000B7B9B01AC01C801B7010E94C3780E948A
:10476000BF79D6015E966D937D938D939C939197BF
:10477000E4EEF0E0CE0EDF1ED6014D925D926D921A
:104780007C921397662477246D817E818F81988532
:1047900029853A854B855C850E94507918163CF432
:1047A000BD85B9A3EE85EAA34F8458881AC08FEF60
:1047B00090E0289EF001299EF00D389EF00D112406
:1047C000EE52F64F6D817E818F81988520813181F7
:1047D000428153810E9457790E94BE7B69A37AA3CC
:1047E0002C01F301EE0FFF1FEE0FFF1F8FEF90E084
:1047F000289E7001299EF00C389EF00C1124EE0DBD
:10480000FF1DE152F74F29A13AA1C901D2018083CE
:104810009183A283B3832B813C81B901882777FDE3
:104820008095982F0E94F2794B015C018301000F63
:10483000111F000F111F0E0D1F1D0D5C164F9DED5A
:10484000C92E98E0D92ECE0CDF1CF601EB50FF4F9D
:10485000C501B40120813181428153810E940B7BCB
:10486000D8016D937D938D939C9313976D817E8179
:104870008F81988529853A854B855C850E94007BD0
:104880001816ACF50894611C711C8301000F111FF0
:10489000000F111F0E0D1F1D0152174F6D817E81DC
:1048A0008F81988529853A854B855C850E94C378E0
:1048B000F601EF50FF4F20813181428153810E94E8
:1048C0005779F8016083718382839383F301EE0F3C
:1048D000FF1FEE0FFF1FEE0DFF1DED5CF64F80E09A
:1048E00090E0A0E0B0E080839183A283B38308943A
:1048F000611C711CF301EE0FFF1FEE0FFF1F8FEF06
:1049000090E0289E7001299EF00C389EF00C112436
:10491000EE0DFF1DE152F74F29A13AA1C901D201C5
:1049200080839183A283B3838301000F111F000F43
:10493000111F0E0D1F1D0D5C164FF701EE52F64FA5
:1049400020813181428153815058C501B4010E94B8
:104950000B7BD8016D937D938D939C931397EFED13
:104960004E2EE8E05E2E4E0C5F1C71E0872E912CDF
:10497000F201A080B180C280D380648D758D868D58
:10498000978D0E94F2797B018C01C601B501A98146
:10499000BA812D913D914D915C910E940B7B9B01C1
:1049A000AC01C801B7010E94C4787B018C01E98188
:1049B000FA81648D758D868D978D20E030E040E022
:1049C0005FE30E940B7BA60195010E940B7BA60171
:1049D00095010E940B7B9B01AC01C801B7010E94AD
:1049E000C4780E94BF79D20190966D937D938D9388
:1049F0009C939397C601B501E981FA81248D358D89
:104A0000468D578D0E940B7B9B01AC01A981BA8119
:104A10006D917D918D919C910E94C478E981FA817C
:104A200064837583868397830894811C911C24E09A
:104A300030E0420E531E3496FA83E98368147904F9
:104A40000CF096CFF3013196EE0FFF1FEE0FFF1F14
:104A50008FEF90E0AC01249EC001259E900D349E06
:104A6000900D1124E80FF91FE352F74F298D3A8D6D
:104A70004B8D5C8D268F378F40A351A38C010D5C2D
:104A8000164FEE24FF24D8016D917D918D919C915C
:104A900020E030E040E05FE30E940B7BF80161938F
:104AA0007193819391938F010894E11CF11C6E1412
:104AB0007F044CF78FEF90E0289EF001299EF00DC7
:104AC000389EF00D1124E154F64F11821082A29607
:104AD0000FB6F894DEBF0FBECDBFCF91DF911F910F
:104AE0000F91FF90EF90DF90CF90BF90AF909F908D
:104AF0008F907F906F905F904F903F902F90089590
:104B0000CF93DF93EC018FEF90E0C89FF001C99F36
:104B1000F00DD89FF00D1124E352F74FE351FF4FF2
:104B20004083518362837383B291A2919291829167
:104B3000481759076A077B0791F0CE0119DC81E01D
:104B400090E0A0E0B0E004C0880F991FAA1FBB1F2F
:104B5000CA95D2F72091D808282B2093D808DF9146
:104B6000CF9108952F923F924F925F926F927F92D2
:104B70008F929F92AF92BF92CF92DF92EF92FF926D
:104B80000F931F93DF93CF93CDB7DEB760970FB628
:104B9000F894DEBF0FBECDBF9A8789877C876B876D
:104BA00028013901CD86DE86EF86F88A662757FD13
:104BB0006095762FCB01BA010E94F27920E030E0B7
:104BC0004AE754E40E9457797B018C016D857E850C
:104BD0008F8598890E94F2796D837E838F83988771
:104BE0002D853E854F855889421A530A640A750AF5
:104BF000C301B2010E94F2799B01AC01C801B70167
:104C00000E940B7B9B01AC016D817E818F81988519
:104C10000E94C4780E94BF791B012C018D859E855E
:104C2000AF85B889881A990AAA0ABB0AC501B401D6
:104C30000E94F2799B01AC01C801B7010E940B7B75
:104C40009B01AC016D817E818F8198850E94C47823
:104C50000E94BF7969837A838B839C838FEF90E076
:104C6000A985BA85A89FF001A99FF00DB89FF00D06
:104C70001124E957F64F20E030E080E090E0A0E01A
:104C8000B0E0F89780839183A283B383F896808302
:104C90009183A283B383848F958FA68FB78F2F5F65
:104CA0003F4F34962730310561F78FEF90E0E9856B
:104CB000FA85E89F8001E99F100DF89F100D1124DF
:104CC0000352174F0E561F4FD8012D923D924D9211
:104CD0005C921397EB85FC85BF01882777FD809553
:104CE000982F0E94F27920E030E04AE754E40E94D5
:104CF000577920E030E040E05FE30E940B7B6B01DE
:104D00007C010C511040D8016D937D938D939C9341
:104D10001397065710405EEA652E712C600E711EC7
:104D20006D857E858F859889621973098409950937
:104D30000E94F279A70196010E945779F3016083DE
:104D40007183828393830A561F4F2D853E854F853D
:104D50005889D8012D933D934D935C9313970C5133
:104D60001040F801C082D182E282F382085C1F4FBA
:104D700069817A818B819C81621B730B840B950BFB
:104D80000E94F279A70196010E9457794B015C01BC
:104D9000D8016D937D938D939C931397F30160815C
:104DA00071818281938120E030E040E05FE30E94E6
:104DB0000B7B6B017C01C201B1010E94F279A7015A
:104DC00096010E94C3780E94BF792B013C010452D6
:104DD0001040D8016D937D938D939C9313970C5144
:104DE000104080E090E0A0E8BFE3F8018083918369
:104DF000A283B3830C5A1F4FF801C082D182E28292
:104E0000F3820C52104029813A814B815C81F80178
:104E100020833183428353830C511040F8018083F7
:104E20009183A283B383085C1F4FD8018D929D921A
:104E3000AD92BC921397045E1F4FC501B40120E0F0
:104E400030E040E05FEB0E940B7BF80160837183F0
:104E5000828393830453104069817A818B819C8182
:104E60000E94F2796B017C01C501B40120E030E0C1
:104E700040E05FE30E940B7B9B01AC01C701B601E0
:104E80000E94C4780E94BF79D8016D937D938D9361
:104E90009C93139789859A85B301A20131DE6096B0
:104EA0000FB6F894DEBF0FBECDBFCF91DF911F913B
:104EB0000F91FF90EF90DF90CF90BF90AF909F90B9
:104EC0008F907F906F905F904F903F902F900895BC
:104ED000CF93DF930E94BA6F6093F7067093F80642
:104EE0008093F9069093FA062091490430914A0480
:104EF00040914B0450914C04621B730B840B950B37
:104F00000E94F0792091FD093091FE094091FF093E
:104F10005091000A0E940B7B0E94C4792091050ADF
:104F20003091060A4091070A5091080A2617370760
:104F30004807590778F4DC01CB01821B930BA40BC3
:104F4000B50B8093010A9093020AA093030AB093D1
:104F5000040A08C01092010A1092020A1092030A71
:104F60001092040AC0E0D0E024C081E261E00E9417
:104F7000257284E190E00E94127081E260E00E945C
:104F8000257286E990E00E9412708091050A909146
:104F9000060AA091070AB091080A0196A11DB11D49
:104FA0008093050A9093060AA093070AB093080A13
:104FB00021962091010A3091020A4091030A5091F2
:104FC000040ACE01A0E0B0E082179307A407B5075A
:104FD00060F2CA01B9010E945B11DF91CF9108957F
:104FE0008091480480FF0DC08E7F809348040E940A
:104FF000BA6F6093490470934A0480934B04909372
:105000004C0480911504813059F48091C3028823A7
:1050100039F48091160483FF03C087FD01C058CF87
:1050200008951F93182FDCDF80912B0490912C049E
:10503000A0912D04B0912E040197A109B109875EBA
:105040009340A040B04008F47CC0112351F086E1A9
:105050009AE06FEF0E94F46786E19AE069E445E127
:1050600009C086E19AE060E00E94F46786E19AE078
:1050700060E542E00E94E267B3DF809123049091F3
:105080002404A0912504B091260420912B04309192
:105090002C0440912D0450912E04281739074A07FB
:1050A0005B0760F4821B930BA40BB50B8093230466
:1050B00090932404A0932504B093260480912304A4
:1050C00090912404A0912504B09126048A30910582
:1050D000A105B10528F486E19AE064E07AE018C001
:1050E00084369105A105B10528F486E19AE060E0D7
:1050F0007AE00EC0885E9340A040B04028F486E17C
:105100009AE06DEF79E004C086E19AE06BEF79E018
:105110000E94657765DF40912304509124046091DB
:1051200025047091260486E19AE02AE030E00E948E
:10513000FD7786E19AE067E172E00E945A7850DFDD
:1051400078C0112329F086E19AE067E345E104C0C5
:1051500086E19AE060E442E00E94E26741DF8091EC
:10516000230490912404A0912504B09126048A3050
:105170009105A105B10528F486E19AE067EF79E091
:105180000EC084369105A105B10528F486E19AE0A8
:1051900064EF79E004C086E19AE062EF79E00E9472
:1051A00065771EDF4091230450912404609125040B
:1051B0007091260486E19AE02AE030E00E94FD77B3
:1051C0000FDF80912B0490912C04A0912D04B091BD
:1051D0002E048A309105A105B10528F486E19AE0F4
:1051E0006EEE79E00EC084369105A105B10528F474
:1051F00086E19AE06BEE79E004C086E19AE069EE20
:1052000079E00E946577ECDE40912B0450912C04EC
:1052100060912D0470912E0486E19AE02AE030E03E
:105220000E94FD77DDDE86E19AE067EE79E00E947C
:1052300065771F91089586E19AE06FEF0E94F46709
:1052400086E19AE066E143E00E94E26786E19AE047
:1052500069E07AE00E94657780911504882311F057
:1052600081E0DFCE0895EF920F9386E19AE060E04F
:1052700040E020E800E4EE240E94AB6286E19AE080
:105280006FEF0E94F46786E19AE066E143E00E94D6
:10529000E26786E19AE060E47AE00E9465778091B7
:1052A00015048823E9F086E19AE066E145E10E9471
:1052B000E26786E19AE06AE37AE00E94657781E03E
:1052C000B0DE86E19AE066E141E20E94E26786E1B3
:1052D0009AE062E37AE00E94657784E660E20EC0BD
:1052E00086E19AE066E145E10E94E26786E19AE0A4
:1052F0006AE27AE00E94657784E664E141E00E9418
:10530000B61B86E19AE06DE046E30E94E26786E123
:105310009AE068E17AE00E9465770F91EF90089536
:10532000CF92DF92EF920F935BDE66E1C62E6AE0CA
:10533000D62EC60160E040E020E80AE0EE24EA94C0
:105340000E94AB624DDEC60160E04BE020E801E068
:10535000EE240E94AB6244DEC60160E00E94F46766
:105360003FDE0F91EF90DF90CF900895EF920F9373
:105370001F93CF93DF93D4DF86E19AE06BEC79E063
:1053800044E021E000E00E94C76286E19AE064E028
:1053900049E02CE00FEF0E94956286E19AE060E11F
:1053A00041E028E00E949F6286E19AE06BE049E0DC
:1053B00020E00E94246786E19AE065E142E00E94D5
:1053C000E2678091CD0660E00E943E1E86E19AE091
:1053D0006DE474E00E945A7886E19AE06FEF0E94D3
:1053E000F467C0E0D0E01DE080910B0AFE01E353BA
:1053F000F94FE80FF11D818160E00E943E1E86E1B9
:105400009AE060E0412F20E809E0EE240E94AB62C0
:1054100080910D0A90E0C817D9076CF4412F4F5FB7
:1054200086E19AE062E00E94E26786E19AE06DE43C
:1054300074E00E945A782196165F1F33A9F686E120
:105440009AE060E04BE020E801E0EE240E94AB62CD
:1054500090E080910D0A863008F091E0892F61E09C
:105460000E943F1B8091C0029091C1028E7F909359
:10547000C1028093C002DF91CF911F910F91EF90F5
:105480000895EF92FF920F931F93DF93CF930F92A4
:10549000CDB7DEB745DF1091090A11501295110FF3
:1054A000107EF12EF39486E19AE06F2D41E02DE11C
:1054B00008E0EE240E94AB6286E19AE06F2D41E0A5
:1054C0002FEF0E942467125E86E19AE0612F41E08F
:1054D0002FEF0E94246700E010E01982802F805F88
:1054E00060E00E943E1E6981695FC80195958795BD
:1054F000680F86E19AE042E00E94E2678091090A23
:1055000090E001978017910721F486E19AE06FEF10
:1055100003C086E19AE060E00E94F46786E19AE0C9
:105520006DE474E00E945A780F5F1F4F8981805E9E
:105530008983803899F60F90CF91DF911F910F9159
:10554000FF90EF900895ECDE4BDD88E761E040E0EE
:105550000C94B61BEF92FF920F931F93DF93CF93A0
:10556000CDB7DEB728970FB6F894DEBF0FBECDBF1C
:1055700037DDE9DF35DD60911F04709120048091F3
:105580002104909122040E94F07920E030E04AE763
:1055900054E40E94577943E021E07E010894E11C25
:1055A000F11C87010E94997D1BDD84E460E00E946C
:1055B0003E1EC7016DE474E00E94287F06E11AE0F8
:1055C000C80162E042E00E94E2670ADDC801B7015B
:1055D0000E945A7805DD80E024DD02DD28960FB6B2
:1055E000F894DEBF0FBECDBFCF91DF911F910F9119
:1055F000FF90EF90089584E060E00E942572F0DC57
:105600008091C0029091C1028F779093C1028093E4
:10561000C00208950E94FD20E3DC0E94BA6F6093EF
:105620001B0470931C0480931D0490931E046093CC
:10563000100A7093110A8093120A9093130AD0DC17
:105640008091C0029091C10280689093C1028093C2
:10565000C002C6CC1F93162F10920C0A10920B0A90
:105660008093CD06A0E0B0E030E070E050E009C0EB
:10567000E32FF0E0E353F94F812F8A0F81831196D6
:105680003F5FCD01860F971F481759078CF730935E
:105690000D0A8091C0029091C10283609093C10273
:1056A0008093C0022093E606B5DF0E94BA6F609334
:1056B000E2067093E3068093E4069093E5061F915B
:1056C000089585E566E549E52FEFC4CF89E66EE9E3
:1056D0004FE921E0BFCF87E862E943E921E0BACF93
:1056E00087E860E941E921E0B5CF87E86CE84DE85B
:1056F00021E0B0CF89E667E949E92FEFABCF87E832
:1057000069E84BE82FEFA6CF87E868E848E821E092
:10571000A1CF8BEF96E00E94535B882321F080E7B6
:1057200060EA40EA03C080E760EA44EA21E092CF01
:1057300082E663E645E62FEF8DCF8BE56DE54FE51D
:105740002FEF88CF8BE560E641E621E083CF8BE544
:105750006BE54CE521E07ECF86E467E445E52FEF7D
:1057600079CF2091C0023091C10227FF0FC087FF7F
:105770000DC0809116048D7F8093160420643160E3
:105780003093C1022093C00280E0089543DF81E09E
:1057900008951F9325DC2091230430912404409127
:1057A00025045091260480910E0A90910F0AA0E0E2
:1057B000B0E082179307A407B50779F030930F0A7A
:1057C00020930E0A0DDC8091C0029091C10280648A
:1057D00098609093C1028093C00202DC0E94831102
:1057E000182F8091C103811731F49091C2038091E9
:1057F000E706981781F0F4DB1093C1038091E70668
:105800008093C2038091C0029091C1028064909302
:10581000C1028093C002E4DB1F910895AF92BF9252
:10582000CF92DF92EF92FF920F931F937C010E9421
:10583000BA6F5B016C0100E010E0AE0CBF1CC01E33
:10584000D11E05C0CDDB8BEF96E00E94AE610E94B9
:10585000BA6F6A157B058C059D05A0F31F910F910A
:10586000FF90EF90DF90CF90BF90AF90089584E6C7
:1058700090E0D4DF83B7817F83BF83B7816083BF2C
:1058800080916400816080936400809164008460F2
:1058900080936400809164008062809364008091B2
:1058A00064008860809364008091640080648093C9
:1058B0006400809165008860809365008091650038
:1058C00080618093650080916500806280936500AF
:1058D000809164008068809364008091640082609D
:1058E0008093640080916500816080936500809161
:1058F000650084608093650083B7816083BF88956D
:1059000083B78E7F83BF83B78E7F83BF8091640010
:1059100080718093640080916500807C8093650035
:105920008091DC098C7F51F08091C0029091C1027E
:10593000806491609093C1028093C0020895EF92B9
:10594000FF920F931F937B018C010E94AE1DC70134
:1059500065DF0E941A1D1F910F91FF90EF9008952F
:105960003FDB8091D5029091D602A091D702B091F1
:10597000D8020097A105B10511F480E00895809147
:1059800016048460809316042BDB0E94BA6F609328
:105990001704709318048093190490931A0481E0FB
:1059A000089580912F0485FF02C00E941A1D18DB04
:1059B000809116048F7E8093160480912304909129
:1059C0002404A0912504B09126040196A11DB11DC7
:1059D0008093230490932404A0932504B093260479
:1059E000FFCA80911604806180931604F9DA0E9440
:1059F000BA6F6093170470931804809319049093FE
:105A00001A0408959F92AF92BF92CF92DF92EF92C5
:105A1000FF920F931F93982EE090E509F090E6090E
:105A20000091E7091091E809A090F109B090F209FE
:105A3000C090F309D090F409EA14FB040C051D058D
:105A40001CF4C801B70121C02091F9093091FA096D
:105A50004091FB095091FC09A090F509B090F6091E
:105A6000C090F709D090F809DA01C9018A199B0999
:105A7000AC09BD098E159F05A007B107D4F42E19F6
:105A80003F09400B510BCA01B9010E94F0797B011B
:105A90008C01C601B5010E94F0799B01AC01C801DF
:105AA000B7010E9457797B018C0181E0981649F576
:105AB0002FC081E0981649F0981620F082E09816E1
:105AC00059F406C08DE290E005C08EE591E002C079
:105AD00088EC90E00E941270209120033091210305
