:100000000C94FE090C9499760C94CA760C94FB76A9
:100010000C942C770C945D770C948E770C94BF77AE
:100020000C94F0770C942B0A0C942B0A0C942B0A4A
:100030000C942B0A0C942B0A0C942B0A0C942B0A6C
:100040000C942B0A0C942B0A0C942B0A0C942B0A5C
:100050000C9470230C942B0A0C942B0A0C9421788A
:100060000C942B0A0C94457B0C946D7C0C942B0AFD
:100070000C942B0A0C942B0A0C942B0A0C942B0A2C
:100080000C942B0A0C942B0A0C942B0A0C942B0A1C
:100090000C947E7B0C94BA7C0C942B0A0C942B0A47
:1000A0000C942B0A0C942B0A0C942B0A0C942B0AFC
:1000B0000C942B0A0C942B0A0C942B0A0C942B0AEC
:1000C0000C942B0A0C942B0A0C942B0A0C94B77BDF
:1000D0000C94077D0C942B0A0C94F07B0C94547DAB
:1000E0000C942B0A084AD73B3BCE016E84BCBFFD63
:1000F000C12F3D6C74319ABD56833DDA3D00C77FF8
:1001000011BED9E4BB4C3E916BAAAABE0000008090
:100110003F05A84CCDB2D44EB93836A9020C50B91F
:10012000918688083CA6AAAA2ABE000000803F0744
:10013000634236B79BD8A71A39685618AEBAAB5582
:100140008C1D3CB7CC5763BD6DEDFD753EF6177247
:1001500031BF000000803F08000000BE9224491219
:100160003EABAAAA2ABECDCCCC4C3E00000080BE3D
:10017000ABAAAAAA3E00000000BF000000803F001A
:1001800000000000084178D3BB4387D1133D190E0E
:100190003CC3BD4282AD2B3E68EC8276BED98FE176
:1001A000A93E4C80EFFFBE01C4FF7F3F000000006E
:1001B000004F4E004F464600435700434357004F01
:1001C0006E004F666600004D6F766520547970654D
:1001D00000436F6E74696E756F757300532D4D2DEE
:1001E000530054696D656C61707365004379636C8D
:1001F000650052756E007E0053686F77005365741A
:1002000074696E67730047454E00434F4E004D546E
:10021000520043414D0064656700230053706565DB
:100220006400446972656374696F6E004D6F746F2A
:100230007220536C656570005265636F7264004391
:10024000616D20547970650046697265205465734C
:10025000742053686F7400416C6C00496E666F7255
:100260006D6174696F6E0044697374616E636500DB
:10027000667073005265632074696D6500506C612F
:1002800079422054696D6500506C61794220465076
:100290005300537461727420486F6D650045787027
:1002A0006F737572650073686F742023006E6F2022
:1002B0006C696D6974003A004272696768746E65B2
:1002C000737300622D6C6967687420746D004D6FE4
:1002D000746F722044656C61790043616D204465E0
:1002E0006C6179005363726C2052616D70004D6FC8
:1002F000746F72205479706500476F20486F6D6588
:100300000053657420486F6D650048445200427286
:1003100061636B65740042756C622052616D7000A0
:10032000466972737420457870004C61737420457F
:10033000787000566964656F005365747570002DA0
:100340002D2D2D2D0052616D700052657365742046
:1003500053657474696E6773005363726C205261E5
:100360006D70005363726C205370656564006D732B
:10037000004B65796672616D6573002500636D00E1
:10038000636D2F7300726576004D6F746F72006D30
:10039000696E0073002F00496E666F726D6174693B
:1003A0006F6E006D696E69456E67696E65004369C1
:1003B0006E654D6F636F2076322E3400446576652E
:1003C0006C6F706572732028696E00616C70616873
:1003D000616265742E206F72646572293A0041690A
:1003E000726963204C656E7A2C00416C7661726F85
:1003F00063616C766F2C00432E412E20436875722A
:1004000063682C00457269632050616B2C004A754B
:100410007374696E204A656E73656E2C004B617251
:100420006C204D63446F6E616C642C004D6172638F
:10043000204C616E652E00436865636B206F757498
:100440000063696E65746963732E636F6D206F72EC
:100450000061697269636C656E7A2E636F6D005519
:100460005342204D6F6465005072657373205B5377
:10047000454C4543545D20746F007265737461721E
:1004800074207468652043696E654D6F636F006109
:100490006E6420676574206261636B20746F2074E2
:1004A000686500757375616C2043696E654D6F6397
:1004B0006F206D6F64652E00004D6F746F72206841
:1004C0006F6D6500706F736974696F6E206973205A
:1004D0006E6F77207365742E00506C6561736520B4
:1004E00077616974207768696C65006D6F746F72ED
:1004F000206973206D6F76656420746F00686F6D7E
:100500006520706F736974696F6E2E2E2E004D6FAB
:10051000746F7220686F6D6520706F736974696F96
:100520006E00726561636865642E00526573657460
:100530002073657474696E677300416C6C20637519
:1005400073746F6D2073657474696E67730064658E
:100550006C657465642E2053797374656D207769BA
:100560006C6C007265626F6F74206E6F772E2E2E2A
:1005700000436861696E204944004D61737465727F
:1005800000446576696365200044616973792D6371
:100590006861696E696E67005570646174652043B7
:1005A0006861696E007E2075706461746521002346
:1005B000204F662053686F7473002B2F2D2000434B
:1005C000616E6F6E004E696B6F6E00537973746568
:1005D0006D000053686F7720737570706C79003C04
:1005E0003D20312F31357300312F31337300312FDE
:1005F00031307300312F387300312F367300312FB3
:10060000357300312F347300007368772065787478
:100610007077720053706565640052616D70204997
:100620006E0052616D70204F75740044697374617F
:100630006E636500564944454F004D6F76650082F4
:10064000820081810053657420537461727420505C
:100650006F696E740053657420456E6420506F6935
:100660006E7400476F20746F205374617274004B76
:1006700065796672616D657300506F736974696F37
:100680006E206973206E6F77207365742E00506C36
:10069000656173652077616974207768696C6500AE
:1006A0006D6F746F72206973206D6F76656420744E
:1006B0006F006B657920706F736974696F6E2E2E91
:1006C0002E004B657920706F736974696F6E0072CC
:1006D0006561636865642E000080207E005468694F
:1006E00073206B657920776173206E6F740073657A
:1006F000742079657421004E6F7420616C6C206BDE
:1007000065796672616D65730077657265207365E2
:100710007421005379737420536C656570004B65C8
:10072000657020506F776572656400476F20746F45
:1007300020456E64005570646174696E672063685B
:1007400061696E696E6700646174612E2054686926
:1007500073206D696768740074616B6520736F6DD9
:1007600065207365636F6E64732E2E2E004465766C
:10077000002D2D00426F756E63696E6700416C6CD1
:10078000005265676973746572656420696E0074F0
:10079000686520636861696E2E2E2E00456E67695C
:1007A0006E6520707265706172696E672E2E2E0004
:1007B0005768696C652077616974696E6720666F38
:1007C00072007468652063656E7472616C20737961
:1007D0006E63007369676E616C2C20707265737351
:1007E00020506C617900746F207374617274206D95
:1007F000616E75616C6C792E0053746F702D6D6F26
:1008000074696F6E00506C6561736520505245537A
:100810005320504C415900746F20636F6E74696EA1
:100820007565207769746800746865206E657874F2
:100830002073686F742E00446F7562626C652D7052
:100840007265737320746F0073746F7020726563C8
:100850006F7264696E672E00537461727420555311
:1008600042204D6F646500000000B101B401B80181
:10087000BB01BF01C201C601C701D101DC01E20118
:10088000EC01F201F601F801FD0106020A020E0276
:10089000120216021A021C0222022C0238023F0225
:1008A000480257025B026702700274027D028802EE
:1008B00092029D02A602AD02B602B802C302CE02A7
:1008C000DA02E402EE02F90201030A030E03160340
:1008D00020032A03330339033F0345034A03590323
:1008E00063036E0371037B037D0380038503890328
:1008F0008F03930395039703A303AE03BC03CB03BA
:10090000DE03EA03F70304040E041D042C04370479
:10091000410451045F0468047A048F04A304B804FA
:10092000B904C404D904EB04FD040E0522052B050B
:100930003A054E05630571057A0581058905980517
:10094000A505AF05BA05BF05C505CB05D205D3057D
:10095000DF05E805EE05F405F905FE0503060806C2
:10096000090614061A0622062B0634063A063F0626
:1009700042064506550663066F0679068E06A006F2
:10098000B206C206CF06D806D906DD06EE06F70681
:10099000090713071E072B073507470758076D0779
:1009A000710774077D0781078F079C07B007C2078F
:1009B000D307E607F9070508170828083708480885
:1009C00058086708680869080C087F55555555553B
:1009D000D5D555557F0005081C3FFC3F1C0508FE7A
:1009E000030103FE5D002F002F20002F2020005B5D
:1009F000005B20005B2020005B005B20005B202070
:100A0000005B20202000202020434F4D504C4554B7
:100A10004520202000505245535320504C4159202E
:100A2000544F20454E44004261747465727900420F
:100A30006174746572790053686F6F7400494E2059
:100A400050524F47524553532E2E2E0080300000F7
:100A500000000000000000000000000000C0E0E016
:100A6000F07070F0E0E0C00000EEEEEE00E0E0E0DC
:100A7000F0F07070F0E0E0C0000080C0E0E0707066
:100A800070E0E0C0800000FFFFFFFFFEF08000008C
:100A900080F0FEFFFFFFFF0000C0E0E0E07070E0CC
:100AA000E0E0C080000080C0E0E0F07070E0E0C0F6
:100AB00080000080C0E0E0707070E0E0C080000066
:100AC0000000000000000000000000000000000026
:100AD0000000000000000000000000003FFFFFE3F6
:100AE000C08080C0E1E1E12100FFFFFF00FFFFFFC8
:100AF000FF00000000FFFFFF003EFFFFFFCE8E8ED5
:100B00008E8ECFCFCF0E00FFFFFF00073FFFFCFC14
:100B1000FF3F0700FFFFFF003FFFFFE38080808073
:100B2000C1FFFF7F000C7FFFFFC1808080C0E1E13B
:100B300061001EFFFFFFC0808080C0FFFFFF1E001E
:100B400000000000000000000000000000000000A5
:100B5000000000000000000000000000C0C0C1C391
:100B6000C3C3C3C3C3C1C0C0C0C3C3C3C0C3C3C363
:100B7000C3C0C0C0C0C3C3C3C0C0C0C1C1C3C3C35E
:100B8000C3C3C3C1C0C0C0C3C3C3C0C0C0C1C3C34B
:100B9000C1C0C0C0C303030000000103030303037B
:100BA000030100000000000101030303030301012E
:100BB0000000000001010303030303010100000022
:100BC0000000000000000000000000000000000025
:100BD000000000000000000000000000C7C7C7C7F9
:100BE000C7C7C7C7C7C7C7C7C7C7C7C7C7C7C7C795
:100BF000C7C7C7C7C7C7C7C7C7C7C7C7C7C7C7C785
:100C0000C7C7C7C7C7C7C7C7C7C7C7C7C7C7C7C774
:100C1000C7C7C7C7C70000000000061EFEF08080DF
:100C2000F0FE1E06000000000000000000000000B2
:100C300000000000000000000000000000000000B4
:100C400000000000000000000000000000000000A4
:100C50000000000000000000000000000707070778
:100C60000707070707070707070707070707070714
:100C70000707070707070707070707070707070704
:100C800007070707070707070707070707070707F4
:100C90000707070707000000000000000003070720
:100CA0000300000000000000000000000000000041
:100CB0000000000000000000000000000000000034
:100CC0000000000000000000000000000000000024
:100CD0000000000000000000000000000070888894
:100CE00090FE0000F810080810000088FA8000004C
:100CF0003840804038000070A8A8A8300000F810E4
:100D00000808F000000000000000FE9088887000D5
:100D10000018A0A0A07800000000000000F8083033
:100D200008F000000088FA80000000F8100808F0C1
:100D300000000088FA80000000FE9292928200007B
:100D4000000000000000000000000000000010880B
:100D50000A14201A000A0A0A0A0A0A0A0A0A0A0ACD
:100D600002050207090508080A080909090900001F
:100D70000000000000000000000000000000000073
:100D80000000000000000000000000000000000063
:100D90000000000000000000000000000000000053
:100DA0000000000000000000000000000000000043
:100DB0000000000000000000000000000000000033
:100DC0000000000000000000000000000000000023
:100DD0000000000000000000000000000000000013
:100DE0000000000000000000000000000000000003
:100DF00000000000000000000000000000000000F3
:100E000000000000000000000000000000000000E2
:100E100000000000000000000000000000000000D2
:100E200000000000000000000000000000000000C2
:100E300000000000000000000000000000000000B2
:100E400000000000000000000000000000000000A2
:100E50000000000000000000000000000000000092
:100E60000000000000000000000000000000000082
:100E70000000000000000000000000000000000072
:100E80000000000000000000000000000000000062
:100E90000000000000000000000000000000000052
:100EA0000000000000000000000000000000000042
:100EB00000000000000000000000E06010000000E2
:100EC00000000002020202020000000000000060B8
:100ED00060000000000080F01C0680701E0300000F
:100EE0000000000000000000E0F81C0C0C0C1CF8D6
:100EF000E00F3F70606060703F0F00000000000076
:100F0000000000203018FCFC0000007F7F00000083
:100F1000000030381C0C0C0CFCF86070787C6E679C
:100F200063600000000000000000181C8C8C8CCC5A
:100F300078303070616161733E1C00000000000079
:100F40000000000080C0603018FCFC000E0F0D0C8B
:100F50000C0C0C7F7F0C0000000000000000000063
:100F600000FCFC8C8C8C0C0C3071616161733F1E39
:100F70000000000000000000C0F038988C8C8C0C41
:100F8000001F3F73616161733F1E0000000000009D
:100F90000000000C0C0C0C0CCCFC3C0C0040703C19
:100FA0000F0300000000000000000000000030F807
:100FB000CC8C8C8CCCF8301C3E63616161633E1C30
:100FC000000000000000000000F0F89C0C0C0C1C5D
:100FD000F8E000416363333B1F0F03000000000093
:100FE0000000000000000507206300000000000072
:100FF000005F00000007000700147F147F14242AFC
:101000007F2A1223130864623649552250000503D3
:101010000000001C2241000041221C00082A1C2A5A
:101020000808083E080800503000000808080808B2
:10103000006060000020100804023E5149453E0057
:10104000427F400042615149462141454B311814CD
:10105000127F1027454545393C4A494930017109FD
:1010600005033649494936064949291E00363600E6
:101070000000563600000008142241141414141401
:1010800041221408000201510906324979413E7E8D
:101090001111117E7F494949363E414141227F412C
:1010A00041221C7F494949417F090901013E4141D3
:1010B00051327F0808087F00417F41002040413FB6
:1010C000017F081422417F404040407F0204027F9C
:1010D0007F0408107F3E4141413E7F090909063ED9
:1010E0004151215E7F09192946464949493101018B
:1010F0007F01013F4040403F1F2040201F7F2018BC
:10110000207F631408146303047804036151494584
:101110004300007F4141020408102041417F00004C
:10112000040201020440404040400001020400204B
:10113000545454787F484444383844444420384414
:1011400044487F3854545418087E09010208145446
:10115000543C7F0804047800447D40002040443D16
:1011600000007F10284400417F40007C0418047870
:101170007C0804047838444444387C141414080867
:101180001414187C7C080404084854545420043F68
:101190004440203C4040207C1C2040201C3C4030EF
:1011A000403C44281028440C5050503C4464544C5B
:1011B00044000836410000007F000000413608006E
:1011C00008083E1C08081C3E08081020403806008D
:1011D0007F3E1C08081C3E7F002E000000210024DA
:1011E0000027002A002D0030003300010100000418
:1011F0000107010A0100002200250028002B002E13
:10120000003100340002010000050108010B01005B
:101210000020002300260029002C002F00320000AF
:101220000100000301060109010505050507050880
:10123000080808020202020A0A0808040404040159
:10124000010101010101010303030303030303047B
:101250000707070C0C0C0C0C0C0C0C02020202060B
:10126000060606060606060B0B0B0B0B0B0B0B01FB
:1012700002102020080810204010204080020102A7
:10128000010804020101020408102040808040206F
:1012900010080402018004020180402010080402AA
:1012A0000108040201010204081020408001020428
:1012B00008102040800000090A02080B0C0D0706E8
:1012C0000304010000000000000000000000000016
:1012D000000000000000000000000000000000000E
:1012E0000011100F000000000000000000000000CE
:1012F000000000000000000000000000407A10F331
:101300005A00A0724E18090010A5D4E80000E87633
:1013100048170000E40B54020000CA9A3B0000008A
:10132000E1F505000080969800000040420F0000A3
:1013300000A08601000000102700000000E8030064
:101340000000006400000000000A0000000000012E
:1013500000000000002C76D888DC674F0823DFC12E
:10136000DFAE59E1B1B796E5E3E453C63AE65199E9
:101370007696E8E6C28426EB898C9B62ED407C6F12
:10138000FCEFBC9C9F40F2BAA56FA5F490055A2AC9
:10139000F75C936B6CF9676DC11BFCE0E40D47FED5
:1013A000F520E6B500D0ED902E03009435770500CA
:1013B00080841E080000204E0A000000C80C333351
:1013C00033330F986E12831141EF8D2114893BE660
:1013D0005516CFFEE6DB18D1844B381BF77C1D90E9
:1013E0001DA4BBE424203284725E228100C9F12452
:1013F000ECA1E53D2700B01F476CCE7E11241FBE37
:10140000CFEFD1E2DEBFCDBF00E00CBF14E0A0E023
:10141000B2E0E0E5FDE001E00BBF02C007900D92F5
:10142000A833B107D9F71BBE1DE0A8E3B4E001C0A3
:101430001D92AA30B107E1F713E1CCEFD3E104C06C
:101440002297FE010E946B86C63FD107C9F70E9412
:10145000EC7F0C94A6860C940000EF92FF920F9301
:101460001F93F22FF02E47FD02C0E4E001C0E4E13B
:10147000242F332727FD309537FF03C03095219562
:101480003F4F4F2D512F0F2FEE2E92D38F2D912F97
:101490001F910F91FF90EF900895CF93DF93BC01C0
:1014A0008230910510F462E070E0A091080DB091D7
:1014B000090DED01E0E0F0E040E050E021C088815E
:1014C00099818617970769F48A819B81309719F073
:1014D0009383828304C09093090D8093080DFE01CD
:1014E00034C06817790738F44115510519F084178D
:1014F000950708F4AC01FE018A819B819C01E901FA
:101500002097E9F641155105A9F1CA01861B970BF1
:10151000049708F4BA01E0E0F0E02AC08D919C91B4
:10152000119784179507F9F46417750781F41296DB
:101530008D919C911397309719F09383828304C007
:101540009093090D8093080DFD0132964CC0CA019D
:10155000861B970BFD01E80FF91F619371930297AA
:101560008D939C9340C0FD01828193819C01D901A0
:101570001097A1F68091060D9091070D892B41F4EB
:101580008091D0029091D1029093070D8093060D27
:101590004091D2025091D3024115510541F44DB70B
:1015A0005EB78091CE029091CF02481B590B2091DB
:1015B000060D3091070DCA01821B930B8617970702
:1015C00080F0AB014E5F5F4F8417950750F0420FDC
:1015D000531F5093070D4093060DF90161937193CA
:1015E00002C0E0E0F0E0CF01DF91CF910895CF930A
:1015F000DF93009709F450C0EC0122971B821A82F6
:10160000A091080DB091090D109709F140E050E04C
:10161000AC17BD0708F1BB83AA83FE01219131916C
:10162000E20FF31FAE17BF0779F48D919C911197CC
:10163000280F391F2E5F3F4F3983288312968D91D3
:101640009C9113979B838A834115510571F4D09324
:10165000090DC093080D20C012968D919C9113978F
:10166000AD01009711F0DC01D3CFFA01D383C2831F
:1016700021913191E20FF31FCE17DF0769F48881C2
:101680009981280F391F2E5F3F4FFA013183208344
:101690008A819B8193838283DF91CF910895A0E01B
:1016A000B0E0E5E5FBE00C947786EC01A880B9801A
:1016B000CA80DB80A114B104C104D10441F484E2E6
:1016C000A82E89EDB82E8BE5C82E87E0D82EC6014E
:1016D000B5012DE133EF41E050E00E944E8627EA4C
:1016E00031E440E050E00E94DA857B018C01C601C4
:1016F000B5012DE133EF41E050E00E944E86CA0172
:10170000B9012CEE34EF4FEF5FEF0E94DA856E0DDA
:101710007F1D801F911F97FF04C061507040804063
:101720009048688379838A839B839B01AC015F77B0
:10173000B901CA01CDB7DEB7EAE00C949386AFCF0A
:1017400084ED92E0ACCF6093D4027093D502809385
:10175000D6029093D7020895FB01DC0105900D920B
:101760000020E1F70895FB01DC010D900020E9F76E
:10177000119701900D920020E1F70895FB01DC0123
:1017800001900D920020E1F70895FB019F01E8947C
:101790004230C4F04532B4F44A3029F497FB1EF4C9
:1017A000909581959F4F642F77270E940586805DD5
:1017B0008A330CF0895D8193CB010097A1F716F471
:1017C0005DE251931082C90142C4AEE0B0E0EBEE9D
:1017D000FBE00C947D860E891F8986E08C831A833A
:1017E00009838FEF9FE79E838D839E01265E3F4F87
:1017F000CE010196688D798DA9010AD02F81388597
:10180000020F131FF80110822E96E4E00C949986C3
:10181000ABE0B0E0EEE0FCE00C946F863C012B0105
:101820005A01FC0117821682838181FD03C06FEF8C
:101830007FEFB9C19AE0892E1E010894211C311C4A
:10184000F3012381F20123FD859123FF81912F0173
:10185000882309F4A5C1853239F423FD859123FF3E
:1018600081912F01853221F490E0B30100D4E8CFBB
:10187000982FFF24EE249924FFE1FF15D0F09B322E
:1018800069F09C3228F4903259F0933291F40EC0F2
:101890009D3249F0903369F441E024C052E0F52ACA
:1018A00084E0F82A28C098E0F92A25C0E0E1FE2A61
:1018B00022C0F7FC29C0892F80538A3070F4F6FECD
:1018C00005C0989C902C1124980E15C0E89CE02C23
:1018D0001124E80EF0E2FF2A0EC09E3229F4F6FC35
:1018E0005FC140E4F42A07C09C3619F450E8F52A99
:1018F00002C0983649F4F20123FD959123FF91919E
:101900002F01992309F0B8CF892F8554833018F01F
:101910008052833038F444E050E0A40EB51E5FE3FB
:1019200059830FC0933631F0933779F0933509F02E
:1019300052C01FC0F5018081898342E050E0A40EAF
:10194000B51E610101E010E011C0F501C080D18039
:10195000F6FC03C06FEF7FEF02C0692D70E042E03C
:1019600050E0A40EB51EC60167D38C015FE7F522D7
:1019700013C0F501C080D180F6FC03C06FEF7FEF8C
:1019800002C0692D70E042E050E0A40EB51EC60111
:1019900048D38C0150E8F52AF3FE06C018C080E257
:1019A00090E0B30164D3EA948E2D90E008171907F4
:1019B000B0F30DC0F601F7FC8591F7FE81916F0140
:1019C00090E0B30154D3E110EA94015010400115A6
:1019D000110581F7E2C0943611F0993661F5F7FEF2
:1019E00008C0F501208131814281538184E090E07B
:1019F0000AC0F501808191819C01442737FD409503
:101A0000542F82E090E0A80EB91E9FE6F92257FFFE
:101A100009C050954095309521953F4F4F4F5F4FEE
:101A2000E0E8FE2ACA01B901A1012AE030E04BD367
:101A3000D82ED2183FC0953729F41F2D1F7E2AE0DB
:101A400030E01DC01F2D197F9F3661F0903720F4C4
:101A5000983509F0A5C00FC0903739F0983709F0D4
:101A60009FC004C028E030E00AC0106114FD14607B
:101A700020E130E004C014FD166020E132E017FFE1
:101A800008C0F501608171818281938144E050E05A
:101A900008C0F50180819181BC0180E090E042E0C6
:101AA00050E0A40EB51EA1010ED3D82ED2188FE798
:101AB000F82EF122F6FE0BC05EEFF522D91438F4B1
:101AC000F4FE07C0F2FC05C08FEEF82202C01D2D07
:101AD00001C0192DF4FE0DC0FE01ED0DF11D808138
:101AE000803319F499EEF92208C01F5FF2FE05C099
:101AF00003C08F2D867809F01F5F0F2DF3FC13C0F4
:101B0000F0FE0EC01E1510F09D2C0AC09D2C9E0CE0
:101B1000911A1E2D05C080E290E0B301A8D21F5F8C
:101B20001E15C8F304C01E1510F4E11A01C0EE24FE
:101B300004FF0EC080E390E0B30199D202FF1BC006
:101B400001FD03C088E790E00EC088E590E00BC07F
:101B5000802F867881F001FF02C08BE201C080E215
:101B6000F7FC8DE290E0B30182D205C080E390E003
:101B7000B3017DD29A94D914C8F3DA94F101ED0D32
:101B8000F11D808190E0B30172D2DD20B1F705C074
:101B900080E290E0B3016BD2EA94EE20C9F750CE18
:101BA000F30166817781CB012B96E2E10C948B8661
:101BB000A9E0B0E0EEEDFDE00C9473866A01122F0F
:101BC000A02EBE2C2BE3201718F42CE3922E02C07B
:101BD000902E9394AE014F5F5F4F27E0092D49D1BE
:101BE000BC018981E82EFF24C7018970907001979C
:101BF00011F4ADE209C0B1FE02C0ABE205C0B0FC19
:101C000002C0A0E001C0A0E2E3FE3BC0AA2311F4A1
:101C100023E001C024E0211710F020E002C0121BD5
:101C2000212FEB2CB4FE02C0322F0AC0F601322F56
:101C300080E202C0819331503323E1F7C20ED11C00
:101C4000AA2319F0F601A1936F01F6013196E2FE85
:101C500005C09EE4D6019C9381E404C09EE6D601B3
:101C60009C9381E611968C9391833296DF01832FAA
:101C700090E202C09D9381508823E1F7E30FF11DAC
:101C800040C0E2FE42C0AA2311F423E001C024E0D8
:101C9000211710F020E002C0121B212FEB2CB4FE04
:101CA00002C0922F0AC0F601922F80E202C08193F7
:101CB00091509923E1F7C20ED11CAA2319F0F60125
:101CC000A1936F01F6013196E2FE08C089E4D601C6
:101CD0008C938EE411968C9386E407C089E6D60136
:101CE0008C938EE611968C9386E681833296DF0183
:101CF000892F20E202C02D9381508823E1F7E90F5C
:101D0000F11D10822EEF3FEFAFC0161617061CF024
:101D100041E050E003C0AB014F5F5F4FAA2019F4D0
:101D200080E090E003C08A2D90E0019620E030E052
:101D3000AA2311F021E030E0240F351F280F391FAE
:101D4000812F90E02817390714F020E002C0121B01
:101D5000212F4B2D50E0CA0180719070B4FC0DC052
:101D6000B3FC0BC0F601322F40E202C04193315068
:101D70003323E1F7C20ED11C01C0322FAA2319F080
:101D8000F601A1936F01892B11F0132F0AC0F60100
:101D9000132F80E302C0819311501123E1F7C30E8A
:101DA000D11C092D060FBA8090E1892E912C8E202E
:101DB0009F20E4FE04C0F1E3BF1609F401501016A1
:101DC00014F001E003C0093008F008E09B0177FF40
:101DD00002C020E030E0CB010196821B930BFE0194
:101DE0003196E80FF91F8EE2F82E3B01601A710858
:101DF0008A2D90E044275527481B590B8FEF2F3F22
:101E0000380719F4D601FD926D01621773072CF0A3
:101E10006216730614F4808101C080E321503040C3
:101E200031962417350724F0D6018D936D01E6CF46
:101E30002617370749F4B5E3BB1528F0BB1621F484
:101E40008114910409F481E3F6018193D601812F75
:101E500090E202C09C93815011968823D9F7E10F3C
:101E6000F11D108220E030E0C9012996EEE00C94CB
:101E70008F86283008F027E03327DA01990F311DCB
:101E800087FD916000966105710539F432602E5F1F
:101E90003D9330E32A95E1F708959F3F30F0803875
:101EA0007105610509F03C5F3C5F3D93913008F09E
:101EB0008068911DDF93CF931F930F93FF92EF9252
:101EC000192F987F9695E92F96959695E90FFF27FC
:101ED000EB5AFC4E99273327EE24FF24A701E70194
:101EE00005900894079428F4360FE71EF81E491F42
:101EF000511D660F771F881F991F0694A1F7059043
:101F0000079428F4E70EF81E491F561FC11D770FCE
:101F1000881F991F661F0694A1F70590079428F45F
:101F2000F80E491F561FC71FD11D880F991F661F26
:101F3000771F0694A1F70590079420F4490F561FC8
:101F4000C71FD81F990F661F771F881F0694A9F710
:101F500084911095177041F0D695C7955795479580
:101F6000F794E7941A95C1F7EBEFF2E168941590B6
:101F7000159135916591959105907FE27395E118E2
:101F8000F10A430B560BC90BD009C0F7E10CF11E47
:101F9000431F561FC91FD01D7EF4703311F48A955C
:101FA000E6CFE894015030F0080F0AF4002702173A
:101FB00008F4202F2395022F7A3328F079E37D93BC
:101FC0002A95E9F710C07D932A9589F6069497958E
:101FD0006795379517951794E118F10A430B560B3F
:101FE000C90BD00998F023957E9173957A3308F048
:101FF00070E37C932013B8F77E9170617D9330F08D
:10200000839571E37D9370E32A95E1F71124EF90B6
:10201000FF900F911F91CF91DF91992787FD9095A8
:102020000895FC010590615070400110D8F780952B
:1020300090958E0F9F1F0895FC0161507040019094
:102040000110D8F7809590958E0F9F1F0895DC01A1
:10205000FC01672F71917723E1F7329704C07C91DF
:102060006D9370836291AE17BF07C8F308950F9305
:102070001F93CF93DF938C01EB018B8181FF1BC0FA
:1020800082FF0DC02E813F818C819D8128173907E9
:1020900064F4E881F9810193F983E88306C0E88557
:1020A000F985802F1995892B31F48E819F810196B6
:1020B0009F838E8302C00FEF1FEFC801DF91CF9186
:1020C0001F910F910895FA01AA27283051F120316C
:1020D00081F1E8946F936E7F6E5F7F4F8F4F9F4FBC
:1020E000AF4FB1E03ED0B4E03CD0670F781F891FFE
:1020F0009A1FA11D680F791F8A1F911DA11D6A0FCC
:10210000711D811D911DA11D20D009F468943F917E
:102110002AE0269F11243019305D3193DEF6CF017D
:102120000895462F4770405D4193B3E00FD0C9F743
:10213000F6CF462F4F70405D4A3318F0495D31FDB0
:102140004052419302D0A9F7EACFB4E0A695979503
:10215000879577956795BA95C9F7009761057105D9
:1021600008959B01AC010A2E069457954795379523
:102170002795BA95C9F7620F731F841F951FA01D7D
:102180000895EF92FF920F931F936091DD0270917B
:10219000DE028091DF029091E0020E94AF827B011B
:1021A0008C0160914F047091500480915104909182
:1021B00052040E94AF829B01AC01C801B7010E948A
:1021C000168220E030E04AE754E40E94D3830E9464
:1021D00083829B01AC016093430470934404809319
:1021E0004504909346048091E9029091EA02A091FF
:1021F000EB02B091EC02281739074A075B0740F45D
:102200002093E9023093EA024093EB025093EC02F0
:102210001F910F91FF90EF9008952F923F924F9250
:102220005F926F927F928F929F92AF92BF92CF9266
:10223000DF92EF92FF920F931F93DF93CF9300D023
:102240000F92CDB7DEB73C018FEF90E0689EB001F2
:10225000699E700D789E700D1124FB01EE5FF64FA4
:10226000DF01A751BF4FE351FF4F208131814281F0
:1022700053818D919D910D90BC91A02D2817390708
:102280004A075B0709F43FC1FB01EC5FF64F80E0B2
:1022900090E020E030E040E050E020833183428352
:1022A000538320AF31AF42AF53AF148E158E168ECD
:1022B000178E019634968730910579F78FEF90E06D
:1022C000689E8001699E100D789E100D11240E5F8E
:1022D000164F05501F4FD8016D917D918D919C91A6
:1022E00020E030E040EA51E40E94D3832FE632E15F
:1022F00043E852E40E9416826B017C0106501040B4
:10230000D8018D919D910D90BC91A02D89839A83C8
:10231000AB83BC83F801B290A29092908290C701E7
:10232000B601A50194010E94C883181614F4750122
:1023300064018FEF90E0689EF001699EF00D789E39
:10234000F00D1124E651F64F8081882321F4F7FA2D
:10235000F094F7F8F094C701B60129813A814B81D6
:102360005C810E9416821B012C01E89457F88FEFC4
:1023700090E0689EF001699EF00D789EF00D1124AA
:10238000EE5FF64F2282338244825582E751FF4F3F
:1023900080819181A281B381E95EF040868F978F21
:1023A000A0A3B1A3C2AED3AEE4AEF5AEC701B601F1
:1023B00020E030E040E050E00E94C88318164CF462
:1023C00089819A81AB81BC81B05889839A83AB8320
:1023D000BC838FEF90E0689E8001699E100D789E0F
:1023E000100D11240E5F164F56E5652E712C600EF0
:1023F000711E89819A81AB81BC81F30180839183B5
:10240000A283B3830F2EF0E08F2EF0E09F2EF0E03A
:10241000AF2EF0E0BF2EF02DD80116968D929D9232
:10242000AD92BC9219975E966D917D918D919C9124
:1024300091970E94B1826B017C01C201B101F80148
:1024400022AD33AD44AD55AD0E94D3839B01AC01A9
:10245000C701B6010E9483816B017C0169817A8189
:102460008B819C8120E030E040E05FE30E94D383D9
:10247000A20191010E94D383A20191010E94D38302
:102480009B01AC01C701B6010E9483810E947E823C
:102490006B017C01D80192966D937D938D939C93F3
:1024A0009597025C1F4FF80180829182A282B382CD
:1024B000045E1F4FD8018D929D92AD92BC921397EE
:1024C000F301608171818281938120E030E040E0FE
:1024D0005FE30E94D383D3016D937D938D939C938F
:1024E00013970D561F4FF801C082D182E282F3820A
:1024F00009501040D8018D929D92AD92BC921397D5
:10250000F801129212920F900F900F900F90CF91AE
:10251000DF911F910F91FF90EF90DF90CF90BF90D0
:10252000AF909F908F907F906F905F904F903F9073
:102530002F90089580E090E070CE6F927F928F92FE
:102540009F92AF92BF92CF92DF92EF92FF920F9342
:102550001F93CF93DF938091FB08882319F010928B
:10256000FB08E8DF1092FC091092FB090F2EF0E047
:10257000CF2EF0E0DF2EF0E0EF2EF0E0FF2EF02D7A
:10258000C092FD09D092FE09E092FF09F092000A84
:102590001091FD0810FF0AC18090E4099090E509B0
:1025A000E401CC0FDD1FCC0FDD1FCC5FD64F68815F
:1025B00079818A819B81A70196010E940F828823DD
:1025C00061F4C092FD09D092FE09E092FF09F092F9
:1025D000000A1E7F1093FD08E9C06091E609709122
:1025E000E7098091E8099091E9092DEC3CEC4CE475
:1025F0005DE30E9483817B018C016093E609709307
:10260000E7098093E8099093E909A880B980CA8016
:10261000DB80A60195010E94C8838823ACF0C80125
:10262000B701A60195010E9482816093E60970932B
:10263000E7098093E8099093E909C4010196909312
:10264000E5098093E4094C01C090E609D090E709C0
:10265000E090E809F090E9098401000F111F000FD4
:10266000111F0E5F164FF801668D778D80A191A125
:102670000E94B1824B015C01C701B601F80122AD95
:1026800033AD44AD55AD0E94D3839B01AC01C50170
:10269000B4010E9483814B015C010A5A1F4FC7019C
:1026A000B601F80120813181428153810E94D38398
:1026B000A70196010E94D3839B01AC01C501B4011F
:1026C0000E9483810E947E823B014C018091EB0934
:1026D0009091EC09A091ED09B091EE0964015301CC
:1026E000A81AB90ACA0ADB0AD7FE08C0D094C09457
:1026F000B094A094A11CB11CC11CD11CC601B50191
:102700000E94B18223E333E343E852E40E94D3837F
:102710007B018C0120E03FEF4FE757E40E94C88324
:102720001816ACF0C801B70120E030E040E85FE3E4
:102730000E940F828823ACF40F2EF0E0EF2EF0E021
:10274000FF2EF0E80F2FFFE31F2FF02D0AC00F2EF2
:10275000F0E0EF2EFFEFFF2EFFE70F2FF7E41F2F24
:10276000F02DE092FD09F092FE090093FF0910930D
:10277000000AB092FC09A092FB0920E08091EB09CD
:102780009091EC09A091ED09B091EE09861597059D
:10279000A805B9050CF421E02093EA096092EB0941
:1027A0007092EC098092ED099092EE0981E080939D
:1027B000F708DF91CF911F910F91FF90EF90DF907D
:1027C000CF90BF90AF909F908F907F906F90089523
:1027D0002F923F924F925F926F927F928F929F9231
:1027E000AF92BF92CF92DF92EF92FF920F931F931F
:1027F000DF93CF93CDB7DEB760970FB6F894DEBF07
:102800000FBECDBF8C0149875A876B877C873E8777
:102810002D878FEF90E0089FF001099FF00D189F22
:10282000F00D1124E651F64F8081882359F40F2EC4
:10283000F0E0CF2EF0E0DF2EF0EAEF2EF1ECFF2EED
:10284000F02D0AC00F2EF0E0CF2EF0E0DF2EF0EAE0
:10285000EF2EF1E4FF2EF02D8FEF90E0089F900116
:10286000099F300D189F300D11242E5F364F2550D3
:102870003F4FD9012D903D904D905C9022513040BA
:10288000D9018D919D910D90BC91A02D8D839E833A
:10289000AF83B88729853A854B855C858217930776
:1028A000A407B5072CF04FEF5FEF588B4F8704C09C
:1028B00081E090E0988B8F87C201B10120E030E089
:1028C00040E050E00E940F82882309F44AC18FEF54
:1028D00090E0089FF001099FF00D189FF00D112462
:1028E000E651F64F808190E0AF85B889FC01AE9F3C
:1028F000C001AF9F900DBE9F900D112497FF31C175
:10290000C8018BDC3CC18FEF90E0089FF001099F6C
:10291000F00D189FF00D1124EE5FF64FEF50FF4FB2
:10292000619071908190919080819181A281B38119
:1029300089839A83AB83BC83C701B601A20191014D
:102940000E94D3832FE632E143E852E40E941682CC
:102950007B018C01E89417F9C801B701A401930128
:102960000E940F8287FD15C00F2EF0E06F2EF0E061
:102970007F2EF0E08F2EF0E09F2EF02D0F2EF0E056
:102980002F2EF0E03F2EF0E04F2EFFE35F2EF02DD4
:1029900035C0C401B301A80197010E948281298139
:1029A0003A814B815C810E9416823B014C0120E000
:1029B00030E040E05FE30E940F8287FD15C00F2EDC
:1029C000F0E06F2EF0E07F2EF0E08F2EFFE39F2EE1
:1029D000F02D0F2EF0E02F2EF0E03F2EF0E04F2EE6
:1029E000F0E05F2EF02D0AC060E070E080E09FE331
:1029F000A40193010E9482811B012C0169817A81CB
:102A00008B819C81A40193010E94D3839B01AC0123
:102A1000C801B7010E9483815B016C01C801B70145
:102A2000A40193010E94D3837B018C0169817A8187
:102A30008B819C8120E030E040E05FE30E94D38303
:102A4000A40193010E94D383A40193010E94D38324
:102A50009B01AC01C801B7010E9483810E947E8264
:102A60000E94B1827B018C01C201B101A6019501D6
:102A70000E94D3839B01AC01C801B7010E948381EE
:102A80000E947E820E94B1827B018C01C601B50149
:102A9000A60195010E94D38320E030E040E05FE38F
:102AA0000E94D38329813A814B815C810E941682E6
:102AB0009B01AC01C801B7010E9483810E947E8204
:102AC000EF85F8899F01442737FD4095542F0E94D8
:102AD000DA852D813E814F815885620F731F841FD7
:102AE000951F4F8558894130510551F429853A8504
:102AF0004B855C8526173707480759078CF40EC0AD
:102B00004F8558894F5F5F4F59F429853A854B852A
:102B10005C85621773078407950714F4CA01B9012D
:102B2000AD85BE856D937D938D939C93139781E0C6
:102B300060960FB6F894DEBF0FBECDBFCF91DF9188
:102B40001F910F91FF90EF90DF90CF90BF90AF90CB
:102B50009F908F907F906F905F904F903F902F90BD
:102B6000089529853A854B855C858D819E81AF814D
:102B7000B885281739074A075B0709F0C4CE80E0FB
:102B8000D7CF4F925F926F927F928F929F92AF9228
:102B9000BF92CF92DF92EF92FF920F931F93CF934A
:102BA000DF932C017A018B018FEF90E0489EF001BA
:102BB000499EF00D589EF00D1124E151F64FA08072
:102BC000B180C280D380A416B506C606D7061CF015
:102BD000CFEFDFEF02C0C1E0D0E08FEF90E0489E82
:102BE000F001499EF00D589EF00D1124E350F64F70
:102BF000608171818281938120E030E040E050E08B
:102C00000E940F82882319F0C20107DB90C0CE0119
:102C1000880F991F3C01882477FC8094982CA60C7F
:102C2000B71CC81CD91CC130D10531F4EA14FB040F
:102C30000C051D055CF408C0CF5FDF4F39F4AE14FE
:102C4000BF04C006D10614F4570168018FEF90E06D
:102C5000489EF001499EF00D589EF00D1124E45C51
:102C6000F64F80E090E020E030E040E050E0F89760
:102C70002083318342835383F896208331834283B8
:102C80005383248F358F468F578F01963496873024
:102C9000910569F78FEF90E0489EF001499EF00D95
:102CA000589EF00D1124EE5FF64FEC51FF4F20833C
:102CB000318342835383E45EF0408AE097EDA3E2E0
:102CC000BCE382839383A483B583E751FF4F808164
:102CD0009181A281B381E95EF040868F978FA0A396
:102CE000B1A3680E791E8A1E9B1E62A273A284A2E3
:102CF00095A2EE51FF4F118210823B96A082B182C5
:102D0000C282D382A816B906CA06DB0681F081E02A
:102D100090E0A0E0B0E004C0880F991FAA1FBB1F7D
:102D20004A94D2F72091FD08282B2093FD08DF91CB
:102D3000CF911F910F91FF90EF90DF90CF90BF90B8
:102D4000AF909F908F907F906F905F904F9008957D
:102D50008091010A80688093010A08958091010A98
:102D600080648093010A08958091010A80628093B3
:102D7000010A08958091010A80618093010A0895F3
:102D80008091010A88608093010A08958091010A68
:102D900084608093010A0895609143047091440413
:102DA00080914504909146040E94AF8220E030E07B
:102DB0004AE754E40E9416829B01AC0160912F0304
:102DC0007091300380913103909132030E94D3833C
:102DD00060932B0370932C0380932D0390932E0309
:102DE000089560914304709144048091450490914A
:102DF00046040E94AF8220E030E04AE754E40E949B
:102E000016829B01AC0160912B0370912C03809181
:102E10002D0390912E030E94168260932F037093CE
:102E20003003809331039093320308956091DC0264
:102E300070E080E090E02091E1023091E202409168
:102E4000E3025091E4020E94DA8560934F0470938C
:102E5000500480935104909352040E94AF829B01CE
:102E6000AC016091E5027091E6028091E7029091D9
:102E7000E8020E94168260932B0370932C038093C8
:102E80002D0390932E0380913904813029F4809191
:102E9000DB02882309F4A5CF08958091390481309D
:102EA00029F48091DB02882309F476DFBFDF80916B
:102EB0006B048130B1F0813018F08230E9F526C022
:102EC00080916A0490E0FC01EE0FFF1FE80FF91FEC
:102ED000EE0FFF1FE750FC4F60817181828193816B
:102EE0002BC080916A0490E0FC01EE0FFF1FE80FF9
:102EF000F91FEE0FFF1FE750FC4F60817181828147
:102F0000938120E030E040E05FE314C080916A04E8
:102F100090E0FC01EE0FFF1FE80FF91FEE0FFF1FFF
:102F2000E750FC4F608171818281938120E030E025
:102F300040E85EE30E94D38320912B0330912C0361
:102F400040912D0350912E030E94D3830E948382CF
:102F500060931E0A70931F0A8093200A9093210A9F
:102F60000895EF92FF920F931F93CF93DF93CDE0DD
:102F7000D7E00F2EF0E0EF2EF0E0FF2EF0E00F2F65
:102F8000F0E01F2FF02D699170E0882777FD809584
:102F9000982F0E94B1829B01AC01C801B7010E9429
:102FA00083817B018C0187E0C731D80761F7C801B5
:102FB000B70120E030E040E251E40E9416827B013C
:102FC0008C0120E030E040E050E00E94C88388237C
:102FD0004CF0C801B70120E030E040E05FE30E9420
:102FE000838108C0C801B70120E030E040E05FE322
:102FF0000E9482810E947E82862FDF91CF911F9155
:103000000F91FF90EF900895823061F0833028F4A3
:10301000882351F0813011F522C08330D9F08430FB
:10302000E9F41AC085E1089580913904909138043B
:10303000882341F4913011F48FE00895992371F4BD
:1030400080E10895913011F48BE00895992331F4D3
:103050008CE0089586E1089587E10895089584E15C
:1030600008952091D8023091D90224FF16C0809192
:10307000E307882349F48091DA0286FF05C02062C5
:103080003093D9022093D8028091D8029091D9022E
:103090008F7E9093D9028093D80208952F923F9209
:1030A0004F925F926F927F928F929F92AF92BF9258
:1030B000CF92DF92EF92FF920F931F93DF93CF9304
:1030C000CDB7DEB72A970FB6F894DEBF0FBECDBFDF
:1030D0009A87898749835A836B837C830D831E83F8
:1030E0002F833887809156038530C1F5A985BA852D
:1030F0002D913D914D915C91283EB3E03B07B0E0AE
:103100004B07B0E05B0708F47BC0DA01C901885EB9
:103110009340A040B0408834E1E79E07E0E0AE076E
:10312000E0E0BE0708F450C0DA01C90180539547BA
:10313000A040B0408033F5E79F07F0E0AF07F0E034
:10314000BF0708F456C020563A4E40405040205623
:103150003D434840504008F445C03DC0843009F02C
:1031600054C0A985BA852D913D914D915C91203235
:10317000B2E13B07BAE04B07B0E05B0760F5DA016C
:10318000C90188549E4EA040B040883DE3E29E07AE
:10319000E9E0AE07E0E0BE0728F1DA01C901885195
:1031A0009947A040B0408033F5E79F07F0E0AF07B4
:1031B000F0E0BF07F0F0245C394040405040245517
:1031C0003F4640405040E0F4F4EF2F2EF1E03F2E18
:1031D000412C512C1AC0E0E62E2EEAEE3E2E412C58
:1031E000512C13C070E1272E77E2372E412C512C41
:1031F0000CC068EE262E63E0362E412C512C05C003
:1032000051E0252E312C412C512CA985BA85AD9049
:10321000BD90CD90DC90B1EDAB16B7E0BB06B0E051
:10322000CB06B0E0DB0610F580911703682F70E045
:10323000A1EFB2E0E0E0F0E016C08D919D919C011D
:10324000442737FD4095542F2A153B054C055D0555
:1032500048F0A985BA852D933D934D935C931397C0
:103260008E2F04C03196E617F7073CF320915603E2
:10327000253009F0A2C0E985FA85A080B180C2801E
:10328000D3802D813E814F815885A216B306C40696
:10329000D50630F0211531054105510509F02DC144
:1032A00030EDA31637E0B30630E0C30630E0D306B6
:1032B000C8F4E82FF0E08091170390E00197E81739
:1032C000F9072CF4EE0FFF1FED50FD4F9BC080ED72
:1032D00097E0A0E0B0E0E985FA8580839183A2833E
:1032E000B38302C16090020A7090030A8090040ABE
:1032F0009090050A2D813E814F8158852115310519
:1033000041055105B9F40894611C711C811C911C84
:10331000C201B101A40193010E94DA85A60EB71E75
:10332000C81ED91EA985BA85AD92BD92CD92DC92F8
:103330001397C3C0ED80FE800F811885EA18FB0843
:103340000C091D09C201B101A40193010E94DA8593
:103350006E157F058007910758F5C201B1010E94E3
:10336000AF827B018C01C601B5010E94AF825B0177
:103370006C01C401B3010E94AF829B01AC01C80182
:10338000B7010E94D3839B01AC01C801B7010E9421
:1033900083819B01AC01C601B5010E9483810E941B
:1033A0008382E985FA85608371838283938385C0F4
:1033B0002D813E814F81588579C0243009F09DC010
:1033C000E985FA85A080B180C280D38029813A81C5
:1033D0004B815C812A153B054C055D0508F08DC0CD
:1033E00031EDA31637E0B30630E0C30630E0D30674
:1033F00080F4882309F478C0E82FF0E0EE0FFF1F77
:10340000E151FD4F80819181AA2797FDA095BA2FA8
:1034100062CF6090020A7090030A8090040A909034
:10342000050A8601750129813A814B815C81E21A86
:10343000F30A040B150BC201B101A40193010E9410
:10344000DA856E157F058007910760F5C201B1012D
:103450000E94AF827B018C01C601B5010E94AF8240
:103460005B016C01C401B3010E94AF829B01AC01FE
:10347000C801B7010E94D3839B01AC01C801B70109
:103480000E9483819B01AC01C601B5010E9482812B
:103490000E948382A985BA856D937D938D939C93B9
:1034A00013970BC029813A814B815C81A985BA852C
:1034B0002D933D934D935C931397E985FA85608135
:1034C000718182819381A20191010E942C86CA019F
:1034D000B901A20191010E94DA85A985BA856D938F
:1034E0007D938D939C9313978091D8029091D902EC
:1034F00080619093D9028093D80220914304309147
:1035000044044091450450914604E985FA85808140
:103510009181A281B381281739074A075B0720F4FC
:1035200020833183428353832A960FB6F894DEBFFB
:103530000FBECDBFCF91DF911F910F91FF90EF9004
:10354000DF90CF90BF90AF909F908F907F906F90C3
:103550005F904F903F902F9008952F923F924F92FF
:103560005F926F927F92AF92BF92CF92DF92EF9273
:10357000FF920F931F93DF93CF93CDB7DEB7629780
:103580000FB6F894DEBF0FBECDBF9A8B898B762E17
:10359000B42EA22E602E80915603853009F08AC089
:1035A000A989BA890C91201728F4222329F06620D2
:1035B000D1F411C12223B9F4672D70E080E090E0CE
:1035C0002091020A3091030A4091040A5091050AA1
:1035D0002F5F3F4F4F4F5F4F0E94DA85060FE989FB
:1035E000FA890083DCC0C02EDD248091020A90910C
:1035F000030AA091040AB091050A8D839E83AF83CC
:10360000B887EA2CFF24EC18FD080027F7FC00958A
:10361000102F272C332444245524C201B1012D81BD
:103620003E814F8158850E94DA856E157F0580079F
:103630009107B0F5B601882777FD8095982F0E94F5
:10364000B18269877A878B879C87672D70E088278E
:1036500077FD8095982F0E94B1825B016C01C201B9
:10366000B1010E94AF827B018C016D817E818F81CF
:1036700098850E94AF829B01AC01C801B7010E94EE
:10368000D3839B01AC01C601B5010E9483819B01DC
:10369000AC0169857A858B859C850E94838170C089
:1036A000662021F0E989FA89B08279C0A989BA89AE
:1036B000AC9275C0843009F08EC0A989BA89EC90AB
:1036C000E41618F4002309F486C0CE2CDD24809182
:1036D000020A9091030AA091040AB091050A898315
:1036E0009A83AB83BC837601EB18F1080027F7FCC3
:1036F0000095102F272C332444245524C201B101F6
:1037000029813A814B815C810E94DA856E157F05A3
:1037100080079107D8F5B601882777FD8095982F07
:103720000E94B1826D877E878F87988B672D70E0AE
:10373000882777FD8095982F0E94B1825B016C01EC
:10374000C201B1010E94AF827B018C0169817A8143
:103750008B819C810E94AF829B01AC01C801B701A3
:103760000E94D3839B01AC01C601B5010E948381F5
:103770009B01AC016D857E858F8598890E94828131
:103780000E948382A989BA896C9309C0662021F0BE
:10379000E989FA89A08203C0A989BA89BC92E9891A
:1037A000FA89808190E0672D70E00E940586872D60
:1037B00090E09C01629FC001639F900D729F900DED
:1037C000112480838091D8029091D90280619093D6
:1037D000D9028093D80262960FB6F894DEBF0FBE6E
:1037E000CDBFCF91DF911F910F91FF90EF90DF90B0
:1037F000CF90BF90AF907F906F905F904F903F9031
:103800002F9008952F923F924F925F926F927F92E6
:103810008F929F92AF92BF92CF92DF92EF92FF92E0
:103820000F931F93DF93CF9300D00F92CDB7DEB7E6
:103830001C017A8369834A013C832B838091560360
:10384000853009F06FC0F101808091808216930667
:1038500018F0232B29F0DBC02B813C81232BC1F4F2
:10386000E981FA81BF01882777FD8095982F209103
:10387000020A3091030A4091040A5091050A2F5F11
:103880003F4F4F4F5F4F0E94DA85860E971EA1C0B3
:103890004090020A5090030A6090040A7090050A52
:1038A000EB80FC80E818F90800E010E029813A81FB
:1038B0005901CC24B7FCC094DC2CC601B501A3018E
:1038C00092010E94DA856E157F058007910720F529
:1038D000C601B5010E94B1827B018C01B40180E078
:1038E00090E00E94AF825B016C01C301B2010E94B3
:1038F000AF829B01AC01C801B7010E94D3839B0139
:10390000AC01C801B7010E9483819B01AC01C601D3
:10391000B5010E94838157C02B813C81F101318325
:1039200020835AC0843009F072C0F1010190F08107
:10393000E02DFC83EB834E175F0708F068C04090D2
:10394000020A5090030A6090040A7090050A7F01F1
:10395000E41AF50A00E010E029813A815901CC24EB
:10396000B7FCC094DC2CC601B501A30192010E94F2
:10397000DA856E157F058007910758F5C601B501F8
:103980000E94B1827B018C01EB81FC81BF0180E050
:1039900090E00E94AF825B016C01C301B2010E9402
:1039A000AF829B01AC01C801B7010E94D3839B0188
:1039B000AC01C801B7010E9483819B01AC01C60123
:1039C000B5010E9482810E948382F101718360832C
:1039D00003C0F10191828082F1018081918169812E
:1039E0007A810E94058629813A81629FC001639F86
:1039F000900D729F900D1124918380838091D80245
:103A00009091D90280619093D9028093D8020F904F
:103A10000F900F900F90CF91DF911F910F91FF901A
:103A2000EF90DF90CF90BF90AF909F908F907F905E
:103A30006F905F904F903F902F9008952F923F92FC
:103A40004F925F926F927F928F929F92AF92BF92AE
:103A5000CF92DF92EF92FF920F931F93DF93CF935A
:103A6000CDB7DEB72E970FB6F894DEBF0FBECDBF31
:103A70009E878D873A014B010D831E832F833887E4
:103A80001601270180915603853009F093C0AD855A
:103A9000BE85AD90BD90CD90DC90A214B304C4045B
:103AA000D50430F0211431044104510431F00BC12C
:103AB0002114310441045104D9F4A60CB71CC81CCC
:103AC000D91C2091020A3091030A4091040A5091B6
:103AD000050AC401B3010E94DA85A60EB71EC81EEE
:103AE000D91EED85FE85A082B182C282D38253C0E9
:103AF0008091020A9091030AA091040AB091050AEC
:103B000089839A83AB83BC8382017101EA18FB0825
:103B10000C091D09CB01BA0129813A814B815C81D5
:103B20000E94DA856E157F058007910770F5C40144
:103B3000B3010E94B1827B018C01C601B5010E94D4
:103B4000AF825B016C0169817A818B819C810E94CB
:103B5000AF829B01AC01C801B7010E94D3839B01D6
:103B6000AC01C801B7010E9483819B01AC01C60171
:103B7000B5010E9483810E948382AD85BE856D93CD
:103B80007D938D939C93139706C0ED85FE852082CF
:103B9000318242825382AD85BE856D917D918D913A
:103BA0009C919301A4010E942C86CA01B901930142
:103BB000A40178C0843009F086C0AD85BE85AD9083
:103BC000BD90CD90DC908D819E81AF81B8858A15A6
:103BD0009B05AC05BD0508F076C02090020A309028
:103BE000030A4090040A5090050A49877A868B861A
:103BF0009C8686017501E81AF90A0A0B1B0BBA01AB
:103C0000C401A20191010E94DA856E157F0580072B
:103C1000910760F5C401B3010E94B1827B018C0160
:103C2000C601B5010E94AF825B016C01C201B10106
:103C30000E94AF829B01AC01C801B7010E94D383EF
:103C40009B01AC01C801B7010E9483819B01AC01BB
:103C5000C601B5010E9482810E948382AD85BE8526
:103C60006D937D938D939C9313970AC08D819E8154
:103C7000AF81B885ED85FE8580839183A283B38370
:103C8000AD85BE856D917D918D919C9129853A85FB
:103C90004B855C850E942C86CA01B90129853A852D
:103CA0004B855C850E94DA85ED85FE856083718396
:103CB000828393838091D8029091D90280619093FE
:103CC000D9028093D8022E960FB6F894DEBF0FBEAD
:103CD000CDBFCF91DF911F910F91FF90EF90DF90BB
:103CE000CF90BF90AF909F908F907F906F905F909C
:103CF0004F903F902F9008952F923F924F925F9256
:103D00006F927F928F929F92AF92BF92CF92DF92EB
:103D1000EF92FF920F931F93DF93CF93CDB7DEB750
:103D200028970FB6F894DEBF0FBECDBF1C014A0125
:103D30005B010D831E832F83388780915603853066
:103D400009F084C0D1018D919D910D90BC91A02D61
:103D500089839A83AB83BC83BC01CD01A701960103
:103D60000E940F8287FD0BC0C701B60120E030E042
:103D700040E050E00E940F82882359F0D8C0C7016C
:103D8000B60120E030E040E050E00E940F8288233E
:103D900021F56091020A7091030A8091040A9091C2
:103DA000050A0E94AF829B01AC01C501B4010E94CB
:103DB000D3839B01AC01C501B4010E9483819B01A7
:103DC000AC0169817A818B819C810E948381F101A0
:103DD0006083718382839383A1C06091020A709192
:103DE000030A8091040A9091050A0E94AF82A501FE
:103DF00094010E94D3832B013C01C701B6012981A4
:103E00003A814B815C810E948281A30192010E94D0
:103E1000C8831816ACF4C501B401A30192010E9435
:103E200083819B01AC0169817A818B819C810E9495
:103E30008381D1016D937D938D939C9313976EC075
:103E4000F101C082D182E282F38268C0843009F03D
:103E50006EC0D101CD90DD90ED90FC90C701B60110
:103E60002D813E814F8158850E94C88318160CF021
:103E70005EC06091020A7091030A8091040A9091D9
:103E8000050A0E94AF82A50194010E94D3832B01F1
:103E90003C01C701B6012D813E814F8158850E94AA
:103EA0008281A30192010E94C883181694F4C5016F
:103EB000B401A30192010E9483819B01AC01C7015F
:103EC000B6010E948281F1016083718382839383B2
:103ED00009C08D819E81AF81B885F1018083918376
:103EE000A283B3836D817E818F819885A501940122
:103EF0000E9483819B01AC01D1016D917D918D91D7
:103F00009C910E940F8288234CF48D819E81AF8109
:103F1000B885F10180839183A283B3838091D80215
:103F20009091D90280619093D9028093D80228960B
:103F30000FB6F894DEBF0FBECDBFCF91DF911F91BA
:103F40000F91FF90EF90DF90CF90BF90AF909F9038
:103F50008F907F906F905F904F903F902F9008953B
:103F600080E297E066E048EC5CE00E948A63809122
:103F700039048093D8070895DF92EF92FF920F9350
:103F80001F93CF93DF93D82E8091290890912A0810
:103F90008230910509F49FC08330910534F4009775
:103FA00069F0019709F04AC128C08330910509F4EE
:103FB00032C18436910509F041C132C18DE0D81675
:103FC00009F440C19AE0D91609F43CC181E090E0BF
:103FD00090932A088093290890932C0880932B08AB
:103FE00010922D0810922E0810922F08109230086F
:103FF000109231081092320825C180912808883625
:1040000031F4E9E6DE1609F019C18AE00DC08D36FB
:1040100029F4F3E7DF1659F48EE106C0833761F423
:1040200081E6D81609F582E380932D08F6C09DE657
:10403000D91651F488E246C08E3661F4E0E7DE1608
:1040400009F0FCC08FE13EC0F0E7DF1609F0F6C0D2
:104050008BE238C08A3731F48DE6D81609F0EEC00D
:104060008CE230C0833731F49DE6D91609F0E6C002
:104070008AE228C0803731F4E2E7DE1609F0DEC0BC
:1040800089E220C0823631F4F6E6DF1609F0D6C0A8
:104090008CE318C0873631F48FE6D81609F0CEC00D
:1040A0008DE3C2CF8A3631F49DE6D91609F0C6C039
:1040B00086E408C0893609F0C1C0EDE6DE1609F0D5
:1040C000BDC087E480932D0882E090E090932A0899
:1040D00080932908B7C09D2D90539A3020F0FDE2BF
:1040E000DF1609F069C0809128088032D1F58091EF
:1040F0002E088F5F80932E08883248F08AE89CE073
:1041000060E072E00E94188183E090E0DFCFE82F4A
:10411000F0E0EE0FFF1FEE0FFF1FE55DF74F10827F
:104120001182128213828DE2D81639F48FEF9FEF3D
:1041300090932C0880932B0885C081E090E09093A9
:104140002C0880932B088D2D992787FD9095C0977B
:10415000AA2797FDA095BA2F80839183A283B3836A
:1041600071C09A3048F560912E08C62FD0E0CC0F70
:10417000DD1FCC0FDD1FC55DD74FED2CFF24E7FC05
:10418000F094E0EDFFEFEE0EFF1E0027F7FC009528
:10419000102F688179818A819B812AE030E040E09C
:1041A00050E00E94DA85E60EF71E081F191FE8820C
:1041B000F9820A831B8346C0F0E2DF1621F08DE00E
:1041C000D81609F03FC08091280880538A30F8F44F
:1041D00000912E080023D9F010E0000F111F000FEE
:1041E000111F055D174F20912B0830912C08442793
:1041F00037FD4095542FF801608171818281938150
:104200000E94DA85F8016083718382839383FDE0E5
:10421000DF16C1F402C010922D0884E690E056CF5C
:104220008AE0D81679F4809128088D3059F480916D
:104230002D0810922A081092290805C010922A0809
:104240001092290880E0D0922808DF91CF911F9129
:104250000F91FF90EF90DF900895DF92EF92FF9221
:104260000F931F93CF93DF93182FF62E8BE39AE0D3
:104270006DE74BE023E000E4EE240E94486B11233D
:1042800009F45AC08091300AFF2011F0182F03C0A2
:104290001091310A181B0091320A063018F480E39D
:1042A000D82E17C0602F70E080E090E00E94AF82AF
:1042B0009B01AC0160E070E080EA90E40E9416820D
:1042C00020E030E040E452E40E94D3830E948382E5
:1042D000D62E612F70E080E090E0C02FD0E0FF206C
:1042E00031F00E94AF827B018C01229705C00E94B1
:1042F000AF827B018C012197BE01882777FD8095D5
:10430000982F0E94B1829B01AC01C801B7010E94A5
:10431000168220E030E040E452E40E94D3830E9401
:104320008382462F435F8BE39AE06EE721E00D2DF9
:10433000EE24EA940E94486BDF91CF911F910F9178
:10434000FF90EF90DF900895BF92CF92DF92EF92AF
:10435000FF920F931F93182FD62E042F80914E0398
:1043600045E0B42EB10E8823F1F180910C0787FF50
:104370003AC038E0F32EF60E22E0E22EE10E0023E2
:10438000C9F08BE39AE066ED79E0412F2D2D0FEF18
:104390000E94646B8BE39AE0612F4F2D24E000E0D4
:1043A0000E94326B8BE39AE06E2D4F2D2FEF0E940F
:1043B000D36F5BC08BE39AE066ED79E0412F2D2D42
:1043C00000E00E94646B8BE39AE0612F4F2D24E0A4
:1043D0000FEF0E94326B8BE39AE06E2D4F2D20E0A1
:1043E0000E94D36F3BC00E94B117E82E98E0F92ECF
:1043F000FD0CC12EC3940023F1F08BE39AE06DED28
:1044000079E0412F2D2D0FEF0E94646B4F2D4E1937
:104410008BE39AE06C2D22E00E2DEE24EA940E94AC
:10442000486B8BE39AE0612F4F2D1C5F212F0F2DDE
:104430000E94C36B1AC08BE39AE06DED79E0412FC7
:104440002D2D00E00E94646BFE188BE39AE06C2D2A
:104450004F2D22E00E2DEE240E94486B8BE39AE054
:104460006B2D4D2D29E00FEF06C08BE39AE06B2DED
:104470004D2D29E000E00E943C6B1F910F91FF90B1
:10448000EF90DF90CF90BF90089590916D048823B6
:1044900031F0986090936D0483E261E005C0977FEE
:1044A00090936D0483E260E00C94E37AAF92BF9244
:1044B000CF92DF92EF92FF920F931F93A09062042E
:1044C000B0906304C0906404D09065048091660449
:1044D00090916704A0916804B0916904A81AB90A80
:1044E000CA0ADB0AD7FE02C080E001C081E0CDDF4E
:1044F00080916B048130B9F0813020F0823009F076
:104500003FC026C080916A0490E0FC01EE0FFF1FBF
:10451000E80FF91FEE0FFF1FE750FC4FE080F1801E
:10452000028113812DC080916A0490E0FC01EE0F9E
:10453000FF1FE80FF91FEE0FFF1FE750FC4F6081D0
:1045400071818281938120E030E040E05FE314C01C
:1045500080916A0490E0FC01EE0FFF1FE80FF91F45
:10456000EE0FFF1FE750FC4F6081718182819381C4
:1045700020E030E040E85EE30E94D3837B018C01C1
:10458000C601B5010E94B182A80197010E9416825E
:104590001F910F91FF90EF90DF90CF90BF90AF9061
:1045A0000895EF92FF920F931F9380DF7B018C01A0
:1045B00020E030E040E050E00E94C883181624F06C
:1045C00017FB109517F91095E092E502F092E602BC
:1045D0000093E7021093E8020E9416170E94F1165A
:1045E0001F910F91FF90EF900895EF92FF920F931C
:1045F0001F935CDF7B018C0120E030E040E050E065
:104600000E94C883181624F017FB109517F910950F
:10461000E0924103F092420300934303109344035A
:104620001F910F91FF90EF90089580913904813090
:1046300031F48091DB02882311F40E94CC16809122
:1046400038048130D9F40E9416176091DC0270E0C2
:1046500080E090E02091E1023091E2024091E3029B
:104660005091E4020E94DA8560934F0470935004E5
:1046700080935104909352040E94C1108091390498
:10468000813031F48091DB02882311F40E94F1160D
:1046900080913804882331F480913904882309F407
:1046A000A4CF7FCF0895809139048130B1F48091F7
:1046B000DB02882331F480913804882341F00C9484
:1046C000F116813061F480913804882321F469CF98
:1046D00081E0809338040C94CC168823C9F30895A4
:1046E0001F920F920FB60F920BB60F9211242F93B9
:1046F0003F934F935F936F937F938F939F93AF936A
:10470000BF93CF93DF93EF93FF9390E08091FE08E8
:10471000882309F491E09093FE08992311F14091C8
:10472000F3085091F4084115510509F476C0209121
:10473000F1083091F2088091F5089091F608820F07
:10474000931F9093F2088093F1088217930708F063
:1047500064C0415050405093F4084093F308449A89
:104760005CC08091F8089091F90801969093F9083F
:104770008093F808885E934009F04EC01092F908C3
:104780001092F8088091FA08882319F081508093DC
:10479000FA08C0915403D091550388819981892BDF
:1047A000A9F06091FD097091FE098091FF09909137
:1047B000000A20E030E040E050E00E940F828823B1
:1047C00029F48091FC0881608093FC08E0915203F9
:1047D000F09153038091FB099091FC0991838083B0
:1047E0006091FD097091FE098091FF099091000A86
:1047F0000E948382798368836091EA09809103092A
:104800000E94E37AE0915003F09151038FEF9FEF04
:10481000918380831092F7084498FF91EF91DF9184
:10482000CF91BF91AF919F918F917F916F915F9148
:104830004F913F912F910F900BBE0F900FBE0F9095
:104840001F90189588E060E00E94E37A89E060E0BC
:104850000E94E37A809153048F7D809353040895DE
:104860000F931F93182F062F442321F080E297E027
:104870006CEB07C080E297E00E942264682F80E220
:1048800097E047E0212F0E94AD671F910F91089597
:104890008091340390913503A0913603B091370392
:1048A0000097A105B10579F080913A048160809369
:1048B0003A040E94697860933B0470933C048093AF
:1048C0003D0490933E04089580911E0A90911F0A22
:1048D000A091200AB091210A0097A105B10511F419
:1048E00080E0089580913A04826080933A040E94A7
:1048F000697860933B0470933C0480933D049093EB
:104900003E0481E00895EF92FF920F931F93609110
:104910004704709148048091490490914A04209181
:1049200043043091440440914504509146040E9450
:10493000DA857B018C0180916E0490916F04A091C7
:104940007004B0917104E80EF91E0A1F1B1F0E942B
:10495000697820E06E157F058007910708F021E057
:10496000822F1F910F91FF90EF9008958091530433
:104970008062809353048091540490E0FC01EE0F18
:10498000FF1FE80FF91FE551FC4F8281882319F0C2
:1049900088E061E002C088E060E00E94E37A89E09C
:1049A00061E00E94E37A0E94697860933B0470930F
:1049B0003C0480933D0490933E04089588E061E0B8
:1049C0000E94E37A0E94697860933B0470933C04F0
:1049D00080933D0490933E0480913A0480648093D8
:1049E0003A040895EF92FF920F931F9380E297E0AD
:1049F0000E94B063882389F180E297E00E94DA6325
:104A0000882359F180913904813039F5E090DD0235
:104A1000F090DE020091DF021091E00280E297E068
:104A20006CEB47E020E20E943C67E090E102F090EE
:104A3000E2020091E3021091E40280E297E06CEB65
:104A400047E021E20E943C6780E297E06CEB47E0A0
:104A500022E20091DC020E94AD671F910F91FF904E
:104A6000EF9008951F93182F80E297E00E94DA6379
:104A70008823A9F080E297E00E94B063882379F050
:104A800089E160913904412FEBDE87E06091DB0220
:104A9000412FE6DE86E360913804412FE1DE1F916D
:104AA0000895CF93DF93E091E307EE2319F480910B
:104AB0006C0421C08823D9F0C0E0D0E009C0FE0119
:104AC000EA51F84F808186FD02C080E015C0219632
:104AD00080E297E00E94DA6390E0C817D9077CF380
:104AE00080916C04829586958695817005C0F0E072
:104AF000EB51F84F80818074DF91CF910895CF936F
:104B0000DF93E091E307EE2319F480916C0420C059
:104B10008823D1F0C0E0D0E009C0FE01EA51F84F8F
:104B2000808187FD02C080E014C0219680E297E07A
:104B30000E94DA6390E0C817D9077CF380916C0477
:104B4000881F8827881F05C0F0E0EB51F84F80814F
:104B50008078DF91CF910895E82FF0E0EE0FFF1FEE
:104B6000E659F74F2591349184E1689FB0011124F3
:104B7000CB018E589B4FB9010C94AC0B6F927F9276
:104B80008F929F92AF92BF92CF92DF92EF92FF925D
:104B90000F931F93DF93CF93CDB7DEB766970FB612
:104BA000F894DEBF0FBECDBFFC01A080B180C280F3
:104BB000D3808CE2A81681E0B80680E0C80680E0C9
:104BC000D80628F580911703482F50E0E1EFF2E076
:104BD00020E030E00FC081919191AA2797FDA09528
:104BE000BA2F8A159B05AC05BD0510F0822F05C0B4
:104BF0002F5F3F4F2417350774F38D5860E0ACDF0B
:104C0000CE01019662E774E00E94BE0BCBC06CE05F
:104C1000662E712C6C0E7D1E80E6A8168AEEB806F4
:104C200080E0C80680E0D80608F04FC0C601B50194
:104C30000E94AF8220E030E04AE754E40E941682EE
:104C40007B018C010E9483825B016C01862F90E0C6
:104C50004E010894811C911CB4014AE050E00E946E
:104C6000C50BC4016FED73E00E94B30BC801B7011F
:104C700020E030E040E251E40E94D3837B018C01CC
:104C80002A2D30E0B90153E0660F771F5A95E1F7FE
:104C9000220F331F620F731F882777FD8095982F8F
:104CA0000E94B1829B01AC01C801B7010E948281C0
:104CB0000E948382DC01CB0190E0B3014AE050E026
:104CC0000E94C50BC401B30162C0C601B50120E654
:104CD0003AEE40E050E00E942C8679018A01C8013A
:104CE000B70120E63AEE40E050E00E94DA85A61ACD
:104CF000B70AC80AD90AC601B50128EE33E040E078
:104D000050E00E942C8659016A01C701B3014AE0B4
:104D100050E00E94C50B4E010894811C911C8AE052
:104D2000E816F1040105110550F4C4016BED73E0C0
:104D30000E94BE0BC401B3010E94B30B04C0C401A6
:104D4000B3010E94BE0B87E260E006DF4E010894CB
:104D5000811C911CC40162E774E00E94B30BC50181
:104D6000BE01645F7F4F4AE050E00E94C50B8AE0BD
:104D7000A816B104C104D10428F4C4016BED73E09A
:104D80000E94B30BCE010196BE01645F7F4F0E946B
:104D9000B30B84E460E0E0DECE01019662E774E0EC
:104DA0000E94B30BCE01019666960FB6F894DEBF53
:104DB0000FBECDBFCF91DF911F910F91FF90EF906C
:104DC000DF90CF90BF90AF909F908F907F906F902B
:104DD0000895EF920F931F93182F81E860E0BCDED7
:104DE00082E861E0B9DE83E862E0B6DE8091310AF4
:104DF000882309F087C0143009F084C080913A04F8
:104E000083FD80C08BE39AE060E04DE02EE108E096
:104E1000EE24EA940E94486B8BE39AE060E00E94E3
:104E2000A3708BE39AE06AE04EE00E9491708BE3FE
:104E30009AE066E874E00E9418818091310A882324
:104E400009F06DC0143009F46AC0153009F467C068
:104E500080913A0483FD63C08BE39AE06FE14DE0FB
:104E60002DE308E0EE24EA940E94486B8BE39AE07D
:104E700060E00E94A3708BE39AE062E774E00E9416
:104E8000FB7086956FE3681B8BE39AE04EE00E940F
:104E900091708BE39AE062E774E00E941881809140
:104EA000310A882309F048C0153009F045C08091C7
:104EB0003A0483FD41C08BE39AE06DE54DE02EE1BD
:104EC00008E0EE24EA940E94486B8BE39AE060E0ED
:104ED0000E94A3708BE39AE068E64EE00E94917016
:104EE0008BE39AE06AE974E00E9418818BE39AE010
:104EF00060E046E12DE700E00E94326B1F910F91C8
:104F0000EF9008958BE39AE060E04DE02EE108E039
:104F1000EE240E94486B8BE39AE06FEF80CF8BE327
:104F20009AE06FE14DE02DE308E0EE240E94486B2B
:104F30008BE39AE06FEF9DCF8BE39AE06DE54DE058
:104F40002EE108E0EE240E94486B8BE39AE06FEFBD
:104F5000BFCF0F931F930BE31AE0C80160E00E94DC
:104F6000A370C80163E542E00E94917080E860E0B0
:104F7000F3DDC80162E774E00E9418811F910F9170
:104F80000895DF92EF92FF920F931F93CF93DF93D9
:104F900080912E0A0E940418E82E1092320ACCE565
:104FA000D3E0DD24D39498819E1509F085C0298132
:104FB000253169F480913904813049F410E0809101
:104FC000DB02811111E01D25012F10E002C000E07D
:104FD00010E0973141F4203231F48091380481306F
:104FE00011F00B5F1F4F892F8B50823030F09F30B4
:104FF00021F080E1E81609F066C0223409F063C0B0
:1050000080E297E00E94B063882371F080E297E02D
:105010000E94B063882309F456C080E297E00E94A2
:10502000DA63882309F04FC0FF24F39488818C3021
:10503000A9F48981843291F480E297E00E94B06300
:10504000882361F080E297E00E94DA63882331F0E0
:105050008091E3078F3F11F4FF24F394888184311A
:1050600059F489818A3641F480E297E00E94B06366
:10507000882311F4FF24F3948881843149F48981D1
:105080008A3631F480E297E00E94B0638823A1F071
:10509000FF2091F4102F8981800F6091320A5CDD2E
:1050A0009091320AE92FF0E0EE50F94F8981180F04
:1050B00010839F5F9093320A229683E0C83DD80701
:1050C00009F071CF02C0FF24B1CFDF91CF911F91C2
:1050D0000F91FF90EF90DF900895909149039436DF
:1050E00021F484E061E00C94E37A8FEF989FC00193
:1050F000112464E670E00E94198684E00C947079B3
:1051000088E30E943C7920910C07C39714F0206833
:1051100001C02F7720930C0708959F92AF92BF9202
:10512000CF92DF92EF92FF920F931F93982E809170
:10513000310A882309F075C080912E0A882309F06E
:1051400070C080916D0481FD6CC02BC00E94AF8245
:105150007B018C01C601B5010E94AF829B01AC01AD
:10516000C801B7010E9416827B018C01CB01D801D6
:105170008093120A9093130AA093140AB093150A0D
:105180009920D9F0B701C8010E9486840E948684C4
:105190006093120A7093130A8093140A9093150A6D
:1051A0000CC080E090E0A0E8BFE38093120A9093E7
:1051B000130AA093140AB093150A609138037091F2
:1051C000390380913A0390913B0320913C03309145
:1051D0003D0340913E0350913F03621B730B840BD0
:1051E000950B0E94AF822091120A3091130A4091D0
:1051F000140A5091150A0E94D3830E9483826093FF
:105200000E0A70930F0A8093100A9093110A1F914F
:105210000F91FF90EF90DF90CF90BF90AF909F9055
:10522000089560911E0A70911F0A8091200A909142
:10523000210AA0902303B0902403C0902503D090AE
:1052400026036A157B058C059D0508F47FCFA9CF41
:10525000AF92BF92CF92DF92EF92FF920F931F9384
:10526000E62E882311F00E944D17A0901E0AB090E0
:105270001F0AC090200AD090210AEE2011F16091FF
:10528000220370E080E090E00E94AF8220E030E0F6
:1052900048EC52E40E9416827B018C01D694C7949C
:1052A000B794A794C601B5010E94AF829B01AC01DF
:1052B000C801B7010E94D3830E9483829B01AC0185
:1052C00015C0A6019501569547953795279580916C
:1052D000230390912403A0912503B0912603821704
:1052E0009307A407B50710F49C01AD012093160A9B
:1052F0003093170A4093180A5093190A20931A0AF8
:1053000030931B0A40931C0A50931D0A2115310546
:105310004105510521F421E030E040E050E081E01A
:10532000B901FBDE80916D048870AFD860911E0AD0
:1053300070911F0A8091200A9091210A0E94AF82E9
:105340007B018C0160914304709144048091450479
:10535000909146040E94AF829B01AC01C801B70145
:105360000E9416826093220A7093230A8093240A73
:105370009093250A10922A0A10922B0A10922C0A56
:1053800010922D0A1F910F91FF90EF90DF90CF9018
:10539000BF90AF9008952F923F924F925F926F927D
:1053A0007F928F929F92AF92BF92CF92DF92EF92B5
:1053B000FF920F931F93DF93CF93CDB7DEB7A297E2
:1053C0000FB6F894DEBF0FBECDBF1C01498F5A8FB8
:1053D0006B8F7C8F8FEF90E0289E9001299E300D7F
:1053E000389E300D1124245C364F3A832983F9010D
:1053F00080E090E020E030E040E050E0F89720834B
:10540000318342835383F8962083318342835383CD
:10541000248F358F468F578F0196349687309105AC
:1054200069F78FEF90E0289EB001299E700D389E9D
:10543000700D11246E5F764F6C517F4FDB012D9301
:105440003D934D935C9313976B5F7F4FDB012D91E1
:105450003D914D915C912D8B3E8B4F8B588F695EAA
:105460007040FB01268F378F40A351A36F507F4FB1
:10547000DB01ED90FD900D911D918D919D910D9011
:10548000BC91A02D898B9A8BAB8BBC8BC801B701CB
:1054900029893A894B895C890E9416826D877E87AB
:1054A0008F87988BC801B7012D853E854F85588918
:1054B0000E94D38369877A878B879C87698D7A8DD1
:1054C0008B8D9C8D2D893E894F89588D621B730B66
:1054D000840B950B97FF07C090958095709561950B
:1054E0007F4F8F4F9F4F0E94B1826D837E838F834A
:1054F0009887898D9A8DAB8DBC8D2D893E894F897A
:10550000588D281739074A075B072CF04FEF5FEFDC
:105510005C834B8304C081E090E09C838B838FEF9E
:1055200090E0289E8001299E100D389E100D1124B8
:105530000E5F164F05501F4FD8018D909D90AD9076
:10554000BC900B5F1040C501B40120E030E040EAA0
:1055500050E40E94C88318160CF027C1F801E851E6
:10556000FF4F8081882329F460E070E080EA91ECAD
:1055700004C060E070E080EA91E4A50194010E941B
:10558000D3832FE632E143E852E40E9416826B0196
:105590007C0129893A894B895C890E9416822B01FA
:1055A0003C01E89477F869897A898B899C8920E0A5
:1055B00030E040E05FE30E94D383A30192010E94A8
:1055C000D383A30192010E94D3836D8F7E8F8F8F2F
:1055D00098A3EB81FC81BF01882777FD8095982FE8
:1055E0000E94B1824B015C01C701B601A501940183
:1055F0000E94D38320E030E040E050E00E940F8220
:105600008823BCF58FEF90E0289E8001299E100D25
:10561000389E100D11240E5F164FD80112964D9230
:105620005D926D927C9215970B501F4FC501B4018E
:10563000F80120813181428153810E94D3830F5927
:105640001040D8016D937D938D939C9313970655CD
:105650001040F801C2AED3AEE4AEF5AE6D817E81EE
:105660008F8198852D8D3E8D4F8D58A10E9483810D
:1056700050C06D817E818F8198852D8D3E8D4F8D9F
:1056800058A10E940F8288230CF04BC08FEF90E04E
:10569000289E8001299E100D389E100D11240E5F4A
:1056A000164FD80112964D925D926D927C9215978D
:1056B000EB81FC81F095E195FF4FFC83EB83BF010B
:1056C000882777FD8095982F0E94B1820B501F4F3D
:1056D000D8012D913D914D915C910E94D3830F593A
:1056E0001040F801608371838283938306551040D4
:1056F000D801DA96CD92DD92ED92FC92DD976D8D18
:105700007E8D8F8D98A12D813E814F8158850E947D
:1057100082816D837E838F83988771E0672E712CE1
:1057200046C06D817E818F8198852D8D3E8D4F8DF8
:1057300058A10E9483816D837E838F8398878FEF2A
:1057400090E0289E6001299ED00C389ED00C112438
:10575000E2E0F9E0CE0EDF1E6D897E898F89988D9B
:105760000E94B1827B018C01C501B4012D8D3E8D5B
:105770004F8D58A10E94D3839B01AC01C801B70192
:105780000E9482810E947E82D6015E966D937D93F7
:105790008D939C939197E4EEF0E0CE0EDF1ED60140
:1057A0004D925D926D927C921397662477246D8161
:1057B0007E818F81988529853A854B855C850E94FD
:1057C0000F8218163CF4BD85B9A3EE85EAA34F8479
:1057D00058881AC08FEF90E0289EF001299EF00DA6
:1057E000389EF00D1124E950F64F6D817E818F8136
:1057F000988520813181428153810E9416820E94C6
:10580000868469A37AA32C01F301EE0FFF1FEE0F2C
:10581000FF1F8FEF90E0289E7001299EF00C389EAC
:10582000F00C1124EE0DFF1DEC5FF64F29A13AA1FB
:10583000C901D20180839183A283B3832B813C81F0
:10584000B901882777FD8095982F0E94B1824B017E
:105850005C018301000F111F000F111F0E0D1F1D92
:10586000085A164F42E0C42E49E0D42ECE0CDF1C5D
:10587000F601EB50FF4F20813181428153810E941C
:10588000D383D8016D937D938D939C9313976D81F2
:105890007E818F81988529853A854B855C850E941C
:1058A000C8831816ACF50894611C711C8301000FA5
:1058B000111F000F111F0E0D1F1D0C5F164F6D8164
:1058C0007E818F81988529853A854B855C850E94EC
:1058D0008281F601EF50FF4F208131814281538157
:1058E0000E941682F8016083718382839383F3019F
:1058F000EE0FFF1FEE0FFF1FEE0DFF1DE85AF64FD4
:1059000080E090E0A0E0B0E080839183A283B38345
:105910000894611C711CF301EE0FFF1FEE0FFF1FB7
:105920008FEF90E0289E7001299EF00C389EF00CBD
:105930001124EE0DFF1DEC5FF64F29A13AA1C9011C
:10594000D20180839183A283B3838301000F111F4F
:10595000000F111F0E0D1F1D085A164FF701E950B9
:10596000F64F20813181428153815058C501B401E5
:105970000E94D383D8016D937D938D939C9313974D
:1059800014E0412E19E0512E4E0C5F1CB1E08B2E1D
:10599000912CF201A080B180C280D380648D758D7E
:1059A000868D978D0E94B1827B018C01C601B50165
:1059B000A981BA812D913D914D915C910E94D38333
:1059C0009B01AC01C801B7010E9483817B018C015E
:1059D000E981FA81648D758D868D978D20E030E0A8
:1059E00040E05FE30E94D383A60195010E94D38328
:1059F000A60195010E94D3839B01AC01C801B701A8
:105A00000E9483810E947E82D20190966D937D9345
:105A10008D939C939397C601B501E981FA81248DFA
:105A2000358D468D578D0E94D3839B01AC01A98192
:105A3000BA816D917D918D919C910E948381E981C4
:105A4000FA8164837583868397830894811C911CF3
:105A500024E030E0420E531E3496FA83E983681442
:105A600079040CF096CFF3013196EE0FFF1FEE0F85
:105A7000FF1F8FEF90E0AC01249EC001259E900D8A
:105A8000349E900D1124E80FF91FEE5FF64F298D1B
:105A90003A8D4B8D5C8D268F378F40A351A38C019F
:105AA000085A164FEE24FF24D8016D917D918D91F7
:105AB0009C9120E030E040E05FE30E94D383F80156
:105AC00061937193819391938F010894E11CF11C70
:105AD0006E147F044CF78FEF90E0289EF001299E12
